:020000040800F2
:100000002808002045010008710400085302000878
:10001000570200088D010008F106000800000000EA
:1000200000000000000000000000000011050008B2
:1000300091010008000000009D040008130500085D
:100040005F0100085F0100085F0100085F01000810
:100050005F0100085F0100085F0100085F01000800
:100060005F0100085F0100085F0100085F010008F0
:100070005F0100085F0100085F0100085F010008E0
:100080005F0100085F0100085F0100085F010008D0
:100090005F0100085F0100085F0100085F010008C0
:1000A0005F0100085F0100085F0100085F010008B0
:1000B0008D0500085F0100085F0100085F0100086E
:1000C0005F0100085F0100085F0100085F01000890
:1000D0005F010008F90500085F01000845060008F7
:1000E0005F0100085F0100085F0100085F01000870
:1000F0005F0100085F0100085F0100085F01000860
:100100005F0100085F0100085F0100085F0100084F
:100110005F0100085F010008C50500085F010008D5
:100120005F0100085F0100085F0100085F0100082F
:10013000DFF80CD000F018F800480047C90F00089D
:10014000280800200648804706480047FEE7FEE7EB
:10015000FEE7FEE7FEE7FEE7FEE7FEE7FEE7FEE777
:100160001D05000831010008064C074D06E0E06857
:1001700040F0010394E8070098471034AC42F6D3EE
:10018000FFF7DAFF702000089020000800BFFEE7AC
:100190007047F0B54FF47A7300260446A4FB03279A
:1001A00001FB037300FB0631104647E000BF00BFB0
:1001B00000BF00BF00BF00BF00BF00BF00BF00BF47
:1001C00000BF00BF00BF00BF00BF00BF00BF00BF37
:1001D00000BF00BF00BF00BF00BF00BF00BF00BF27
:1001E00000BF00BF00BF00BF00BF00BF00BF00BF17
:1001F00000BF00BF00BF00BF00BF00BF00BF00BF07
:1002000000BF00BF00BF00BF00BF00BF00BF00BFF6
:1002100000BF00BF00BF00BF00BF00BF00BF00BFE6
:1002200000BF00BF00BF00BF00BF00BF00BF00BFD6
:1002300000BF00BF00BF00BF00BF00BF0A460346AB
:10024000401E61F1000100256B406A401343ADD1AF
:10025000F0BD00BFFEE700BFFEE7000010B5164886
:100260000078164908701448407848701248807821
:1002700088701148C078C8700F48007908710E481E
:10028000407948710C488079887107210B4800F04B
:10029000E3FB0B4908800846008800120749C87133
:1002A0000748007808720921044801F079FC002011
:1002B0000449087010BD00002C000020F40000204C
:1002C0000A0000200300002010B501201449087026
:1002D0000320487004208870124800880012C870FB
:1002E00010480078087110480088001248710E48C4
:1002F0000078887107210A4800F0AEFB0B4908809E
:100300000846008800120649C8710848007808723B
:100310000921034801F044FC00200549087010BD84
:10032000F400002006000020080000200A00002041
:100330000300002010B51148C0781049897840EAC0
:10034000012424B90D4840790D4908800CE0012CA6
:1003500004D10A4840790B49088005E0022C03D1FA
:100360000648407906490880054802880548018802
:100370000548008800F0BEF910BD00000E03002003
:100380001A0000201E0000201C000020002006E0B3
:10039000002213490A5413490A54411C88B2FA280E
:1003A000F6DB002004E000210F4A1154411C88B202
:1003B0000828F8DB00210A4A083A11705170518070
:1003C0009180D180A2F80211064A921F11705170DB
:1003D0005180918082F8001182F80111704700006D
:1003E00010010020120200202000002010B5064855
:1003F0008179083000F068F80020044981F8000194
:1004000081F8010110BD0000080100200C0200204D
:1004100010B5154890F8000100B910BD124890F8C9
:100420000101022800DCF8E70F4890F801010328D9
:1004300018DB0E480078FC280ED10C4840780328C1
:1004400002D0062806D102E000F0BEFF03E0FFF76D
:1004500071FF00E000BF00BF0020034981F80001E8
:1004600081F8010100BFD8E70C0200200E03002034
:100470007047000010B5002807DA0A07140E054A75
:1004800000F00F031B1FD45403E00A07130E024AA7
:10049000135410BD18ED00E000E400E070470000C8
:1004A00010B54FF48071024800F0F8FC10BD000058
:1004B0000008014010B54FF48071024800F0F0FCD4
:1004C00010BD00000008014070B504460D46FFF75E
:1004D000F1FF0BE000BF07210C4801F05CFC002895
:1004E000F9D014F8011B094801F003FC281EA5F1FE
:1004F0000101CDB2EED100BF0621044801F04BFC52
:100500000028F9D0FFF7CCFF70BD00000038014093
:10051000704710B500F0BCFA10BD000008B51848CF
:10052000006840F47000164908601648006840F002
:100530000100144908600846406840F080004860A7
:100540000020009002E00098401C009044F62061DA
:1005500000988842F7D300200A494860C8620846DC
:10056000006809490840074908604FF41F00886087
:100570000846006820F48020086000F0D1FF08BD24
:1005800088ED00E000100240FFFFF6FE10B50121EB
:10059000880701F086FA09480088401C074908804E
:1005A00008460088082807DB05480078401C0449F5
:1005B000087000200149088010BD00002A000020BA
:1005C0002800002010B50121094801F0C0FA70B1DF
:1005D0000121074801F0B8FA064890F8010130B14E
:1005E000044890F80101401C024981F8010110BD46
:1005F000001000400C02002010B50E490E4801F01A
:10060000F3FB012815D10B490B4801F0E0FB0A4828
:1006100001F06AFB094991F80011094A5054074852
:1006200090F80001401C054981F80001012081F883
:10063000010110BD05030500003801400C02002037
:100640000E03002010B500242349244801F0CCFB00
:10065000002840D0214801F047FBC4B2204801786F
:100660000078401C1E4A10701E48445440780A28E6
:1006700004D11D49087001201A4948701948407872
:10068000032804D1184908700120164948701648FB
:1006900000780A280ED1134880790930104909786A
:1006A000884207D10A201149087000200C490870BF
:1006B0000D4908700C48007803280CD108480078D0
:1006C000082808D10020064908700320074908704F
:1006D00000200549087010BD0503050000480040D2
:1006E000000000202C000020040000200300002057
:1006F00000BFFEE77CB506460C461546ADF8006027
:10070000ADF80240ADF8045003226946014800F0FC
:1007100041FB7CBD0000010802E008C8121F08C1AF
:10072000002AFAD170477047002001E001C1121F72
:10073000002AFBD17047816841F00801816000BF49
:10074000816801F008010029FAD1816841F00401B3
:10075000816000BF816801F004010029FAD170476F
:1007600030B5012902D002291AD10CE0C36A23F462
:100770007003C362C36A541E4FF4700505EA045443
:100780002343C3620DE0836B23F440138363836BC5
:10079000541E4FF4401505EA04542343836300E0DC
:1007A00000BF00BF30BD21B1826842F400628260A8
:1007B00003E0826822F4006282607047816801F081
:1007C000010119B9816841F001018160704772B17E
:1007D00001F001031BB1836843F48013836001F0CF
:1007E000020393B1836843F4004383600DE001F09A
:1007F00001031BB1836823F48013836001F00203BB
:100800001BB1836823F4004383607047012902D041
:10081000022910D107E0836823F460238360836892
:100820001343836008E0836823F4E04383608368B4
:100830001343836000E000BF00BF704710B540F273
:10084000026000F091FDC02304220021224800F044
:1008500029FB40F2096000F087FD092000F0A2FCAE
:10086000012211021D4800F0C1F8012202211B489B
:1008700000F0BCF84FF4E04202211848FFF7C6FF31
:1008800000211648FFF78FFF002000F041F80222F8
:1008900011461248FFF764FF0123062200210F488A
:1008A00000F044F80123072219460C4800F03EF8F6
:1008B000012202210948FFF78AFF0021074800F0C2
:1008C0008BF80648FFF77AFF0A200021FFF761FC4A
:1008D0000248FFF730FF10BD00080140002401402E
:1008E00002460B4633B1012B06D0022B06D0032B58
:1008F00008D105E0D16B07E0116C05E0516C03E015
:10090000916C01E0002100BF00BF88B27047000079
:100910000549096821F47021034A116011460968EC
:10092000014311607047000004240140F0B51D46EA
:1009300006290CD2436B01EB81071F26BE40B3434F
:1009400001EB810602FA06F63343436322E00C29E9
:100950000ED2036B8E1F06EB86071F26BE40B343E5
:100960008E1F06EB860602FA06F63343036311E098
:1009700010290FD2C36AA1F10C0606EB86071F26C9
:10098000BE40B343A1F10C0606EB860602FA06F65A
:100990003343C3620A2A0CD2046902EB42070726DA
:1009A000BE40B44302EB420605FA06F63443046146
:1009B00011E0122A0FD2C468A2F10A0606EB46071C
:1009C0000726BE40B443A2F10A0606EB460605FA26
:1009D00006F63443C460F0BD50F8802F22F4405234
:1009E000026002680A4340F880297047AAB101F406
:1009F00080731BB1436843F48073436001F48063E8
:100A00001BB1436843F48063436001F00203CBB140
:100A1000836843F00203836014E001F480731BB128
:100A2000436823F48073436001F480631BB143681F
:100A300023F48063436001F002031BB1836823F059
:100A400002038360704710B54FF4965001F0B4F87C
:100A5000FFF79CFC10BD000070B502460C46FF2558
:100A6000FF2309E012F8010B80EA05010648405C0B
:100A700080EA03050548435C201EA4F10106B4B2D8
:100A8000F0D143EA052070BD701E0008701F0008F9
:100A90000448006820B103480068401E014908600E
:100AA000704700001000002000B50346012200BF7F
:100AB00000F00CF802465B1E012A01D1002BF7D191
:100AC000012A00D10422104600BD000000200A497E
:100AD000C96801F0010109B101200CE00649C968AB
:100AE00001F0100109B1032005E00349C96801F0D4
:100AF000040101B1022070470020024000B5034606
:100B0000012200BF00F00CF802465B1E012A01D151
:100B1000002BF7D1012A00D10422104600BD0000AD
:100B200000200A49C96C01F0010109B101200CE063
:100B30000649C96C01F0100109B1032005E0034921
:100B4000C96C01F0040101B102207047002002408D
:100B5000064A02EB9011096800F01F0301229A4037
:100B60001143024B03EB90121160704700200240CA
:100B700070B504460D4600262A480088B0F5007F6F
:100B800035D92948844219D24FF47020FFF78CFFE1
:100B90000646002E43D12548006940F00100234954
:100BA000086125804FF47020FFF77EFF06461F483E
:100BB000006920F001001D49086130E04FF4702009
:100BC000FFF79CFF064656BB1848006D40F0010039
:100BD0001649086525804FF47020FFF78FFF064601
:100BE0001248006D20F001001049086517E04FF42D
:100BF0007020FFF759FF06468EB90C48006940F097
:100C000001000A49086125804FF47020FFF74CFF6E
:100C100006460648006920F0010004490861304694
:100C200070BD0000E0F7FF1FFFFF07080020024033
:100C30000848006940F080000649086106480088BD
:100C4000B0F5007F04D90846006D40F080000865CB
:100C50007047000000200240E0F7FF1F30B5054656
:100C600036480088B0F5007F48D9354885421ED205
:100C70004FF47020FFF718FF0446002C5BD1314879
:100C8000006940F002002F4908610846456100698B
:100C900040F0400008614FF47020FFF705FF044664
:100CA0002848006920F002002649086143E04FF41B
:100CB0007020FFF723FF0446002C3CD12148006D33
:100CC00040F002001F49086508464565C06900F00C
:100CD000020008B1084645611A48006D40F0400026
:100CE000184908654FF47020FFF708FF04461548BF
:100CF000006D20F00200134908651CE04FF47020DD
:100D0000FFF7D2FE0446B4B90E48006940F0020075
:100D10000C49086108464561006940F040000861DF
:100D20004FF47020FFF7C0FE04460648006920F02B
:100D3000020004490861204630BD0000E0F7FF1FB3
:100D4000FFFF0708002002400146088870470000A6
:100D50000C48006900F0800020B10B480949486048
:100D60000A4848600A480088B0F5007F09D905485C
:100D7000006D00F0800020B1034802494864034838
:100D8000486470470020024023016745AB89EFCDDE
:100D9000E0F7FF1F2DE9F04706468A4615464FF05B
:100DA0000009FFF7D5FF40F20730FFF7D1FE41F20F
:100DB0000730FFF7CDFE34462FB206EB450036492B
:100DC00088421ED2C6F30A0058B907E02046FFF752
:100DD00045FF04F50064A7F5806007B2002FF5DC3D
:100DE00045E007E02046FFF739FF04F50064A7F56A
:100DF000806007B2002FF5DC06EB4500A042F1D978
:100E000035E02548864214D204E02046FFF726FF4D
:100E100004F5006420488442F7D3044604E02046E9
:100E2000FFF71CFF04F5805406EB4500A042F6D204
:100E30001DE0C6F30B0058B902E02046FFF70EFF95
:100E4000002FFADC04F58054A7F5006007B20EE02D
:100E500007E02046FFF702FF04F58054A7F5006085
:100E600007B2002FF5DC06EB4500A042F1D9B046F1
:100E70004FF000090AE03AF819104046FFF778FEF3
:100E800008F1020809F101001FFA80F9A945F2DB17
:100E9000FFF7CEFEBDE8F08700000808416170470B
:100EA00001617047F0B5044616460025002201F0A6
:100EB0000F0501F0100747B1042E05D145F00305D9
:100EC000E76B1F43E76300E0354300201EE0012786
:100ED00087401F40C7B122684FEA800C0F2707FAEE
:100EE0000CF7BA43870005FA07F73A43282904D1DB
:100EF000012787401F40676105E0482903D101278A
:100F000087401F4027612260471CB8B20828DED303
:100F1000082022E0012787401F40E7B16268A0F166
:100F200008074FEA870C0F2707FA0CF7BA43A0F11E
:100F30000807BF0005FA07F73A43282904D101271B
:100F400087401F40676105E0482903D1012787409A
:100F50001F4027616260471CB8B21028DAD3F0BD89
:100F600010B540F2026000F0FFF9062303221821B9
:100F70000148FFF797FF10BD0008014010B540F28F
:100F8000036000F0F1F94FF40073032210210348CD
:100F9000FFF788FF00F00EF810BD0000000C0140C4
:100FA00010B54FF400710248FFF778FF10BD000044
:100FB000000C014010B54FF400710248FFF770FFBC
:100FC00010BD0000000C01404FF4A06000F0E0F8FC
:100FD00000F0AAFAFFF7D2FFFFF730FC00F028FB81
:100FE000632140F6B73000F0F9FA00F0C5FAFFF7D8
:100FF0002AFD2B48FFF7A8FE2A49088008460088EA
:101000004FF6FF7188420AD1012026490880084620
:1010100002882548018825480088FFF76BFB3DE0E2
:1010200023480078012823DB1E480088012811D1BD
:1010300006212048FFF754FC1F49088007211D485E
:10104000FFF74EFC1D4908801D480078032801D198
:10105000FFF73AF91B48007808B9FFF7ABFF1948CA
:101060000078012801D1FFF79BFF0020104908708C
:10107000FFF7CEF90B48008802280FD110480078FE
:101080000A280BD1642201210F4800F056FCC82227
:1010900002210D4800F051FCFFF7E0F8C0E7000026
:1010A000040001081A0000201E0000201C0000207F
:1010B0002800002000240140060000200800002035
:1010C0000300002005000020000C00402DE9F04145
:1010D00003460D46164600240027A0462A4800680D
:1010E00000F4E060B0F5E06F03D100BF4FF00408FA
:1010F00030E02548006800F4E060B0F5C06F03D12F
:1011000001274FF0030825E01F48006800F4E06065
:10111000B0F5A06F02D10227B8461BE01A4800685C
:1011200000F4E060B0F5806F03D103274FF00108B1
:1011300010E01548006800F4E060B0F5407F03D18E
:1011400004274FF0000805E04FF4A06000F020F8FD
:101150000227B846C7F1040005FA00F4C8F10401FB
:101160000F20C8403040044324010848C45403F011
:101170001F01012088405911890001F1E021C1F8C7
:101180000001BDE8F08100000CED00E000E400E0AB
:1011900002490143024A1160704700000000FA054D
:1011A0000CED00E0184B5968184B1940164BDA6AE1
:1011B00022F000520C2820D2DFE800F006070809D0
:1011C0001F0C1F0D1516171800BF00BF00BF41EA06
:1011D000803113E000BF20F004004FF0805343EA59
:1011E000803319430AE000BF00BF00BF20F00C00AD
:1011F00041EA803142F0005200E000BF00BF024BE4
:101200005960DA627047000000100240FF3FFFEFB4
:101210002DE9F04F8CB0074600200A904AA090E8D4
:10122000004CC068CDE905BECDF810A007900FF2C4
:101230001C1ADAE9000ACDE9020A0FF2101ADAE9FB
:10124000000ACDE9000A44484068C0F381000B90D1
:101250000B9820B1012804D002283FD103E03F4A77
:101260003EE03E4A3CE03C48406800F4803CBCF52F
:10127000803F12D13848C06A00F08048B8F1000FB2
:1012800001D1364C00E0364C3348406800F4003958
:10129000B9F5003F02D1334C00E0324C2E48406893
:1012A000C0F383412C48406800F0006008B141F071
:1012B00010012948406800F0804008B141F0200149
:1012C0000F2901D2891C06E00F2903D33E2901D83A
:1012D000491C00E03F2104FB01F201E01F4A00BF6E
:1012E00000BF1D484068C0F3031504A8465D22FAFC
:1012F00006F319484068C0F3022502A8465D23FAA8
:1013000006F0099014484068C0F3C2251DF8056036
:1013100023FA06F0089037B1012F06D0022F06D02D
:10132000032F0AD106E00A9208E00A9306E0099822
:101330000A9003E008980A9000E000BF00BF0A98F6
:101340000CB0BDE8F08F00000000000000000000BD
:1013500001020304060708090010024000127A0087
:10136000006CDC0200093D00064A02EB901109689E
:1013700000F01F0301229A401143024B03EB90122D
:101380001160704700100240064A02EB9011096894
:1013900000F01F0301229A409143024B03EB90128D
:1013A0001160704700100240064A02EB9011096874
:1013B00000F01F0301229A401143024B03EB9012ED
:1013C000116070470010024010B5FC200D490872F2
:1013D00003210C484172062181720021C1720A4822
:1013E00001780848017305210830FFF735FB0446F2
:1013F000211204484173847307200249C880FEF714
:10140000F5FF10BD080100201A0000200020002177
:101410003F4A126842F480323D4B1A6000BF401CC4
:101420003B4A126802F4003119B94FF6FF7290423C
:10143000F5D1374A126802F400320AB900BFFEE75C
:10144000334AD26942F08052314BDA61314A126834
:1014500042F440422F4B1A602D4A52682C4B5A607E
:101460001A4652685A601A46526842F480625A60BC
:101470001A46526822F440325A601A46526842F4C0
:1014800040325A601A465268234B1A40204B5A6029
:101490001A465268214B1A431D4B5A601A4612686D
:1014A00042F080721A6000BF194A126802F000729E
:1014B000002AF9D0174A126842F48032154B1A609C
:1014C00000BF144A526802F48032002AF9D0114A4F
:1014D000126842F400320F4B1A6000BF0D4A526886
:1014E00002F40032002AF9D0094A526822F00302BD
:1014F000074B5A601A46526842F002025A6000BF17
:10150000034A526802F00802002AF9D0704700002E
:101510000010024000700040FFFFC3B70000340815
:1015200010B5FFF773FF10BD10B5124800684FF4F7
:101530007A71B0FBF1F4601EB0F1807F01D301201D
:101540000FE0601E4FF0E02148610F214FF0FF30A7
:10155000FEF790FF00204FF0E0218861072008612E
:10156000002008B100BFFEE70021481EFEF782FF01
:1015700010BD00000C0000201FB54FF4E060FFF725
:10158000F3FE4FF0804000F019FA42F6DF60ADF84C
:1015900000000020ADF80200ADF8040042F20F7028
:1015A00002900020ADF806008DF80C0069464FF05F
:1015B000804000F079FA012200211C20FFF786FD0F
:1015C0000121880700F0BCFA4FF0804000F08CF851
:1015D0004FF0804000F060FA1FBD00007FB5054667
:1015E0000C4640F20470FFF7BFFE104800F0E6F929
:1015F000A8B2ADF8000002940020ADF80200ADF8EA
:101600000400ADF806008DF80C006946074800F0AC
:101610004BFA012211463620FFF758FD01210348FD
:1016200000F08EFA014800F037FA7FBD001000404C
:1016300000B587B0FFF794FC40F20370FFF794FE0B
:10164000274800F0BBF97720ADF800000020ADF886
:101650000200ADF804004FF4FA7002900020ADF8DB
:1016600006008DF80C0069461E4800F01DFA0120A6
:10167000ADF810000020ADF81200ADF81400ADF880
:101680001600ADF81800ADF81A0004AA012114489C
:1016900000F030F8FA220121114800F04EF96022E2
:1016A00001210F4800F01CF9002201210C4800F034
:1016B00057F9602202210A4800F012F900220221A3
:1016C000074800F04DF90121054800F04CFA0448A4
:1016D00000F00AF8024800F0DFF907B000BD000092
:1016E000000C004000040040016841F080010160EE
:1016F0007047000010B531B101293FD002297DD0DB
:1017000003297CD1BFE0036A23F0010303628369EC
:1017100023F003038361036A148823430362036A8B
:1017200023F002030362036A9488234303626A4B33
:10173000984202D0694B98421FD1036A23F00403F8
:101740000362036A548823430362036A23F0080395
:101750000362036AD48823430362436823F48073DB
:1017600043604368148923434360436823F4007350
:1017700043604368548923434360ABE0036A23F02A
:1017800010030362836923F440738361036A14883E
:1017900043EA04130362036A23F020030362036A2B
:1017A000948843EA041303624B4B984202D04B4B9C
:1017B000984226D1036A23F040030362036A5488E7
:1017C00043EA04130362036A23F080030362036A9B
:1017D000D48843EA04130362436823F480634360BC
:1017E0004368148943EA84034360436823F4006335
:1017F00043604368548943EA840301E002E068E0FF
:10180000436067E0036A23F480730362C36923F0D3
:101810000303C361036A148843EA04230362036A6F
:1018200023F400730362036A948843EA0423036287
:10183000294B984202D0294B984223D1036A23F4C2
:1018400080630362036A548843EA04230362036AE1
:1018500023F400630362036AD48843EA0423036227
:10186000436823F4805343604368148943EA0413B4
:101870004360436823F4005343604368548943EA58
:101880000413436026E0036A23F480530362C369B0
:1018900023F44073C361036A148843EA0433036288
:1018A000036A23F400530362036A948843EA04330F
:1018B0000362094B984202D0084B984208D1436812
:1018C00023F4804343604368148943EA84134360EC
:1018D00000E000BF00BF10BD002C014000340140FB
:1018E00031B101290CD0022913D0032922D118E0EB
:1018F000836923F0700383618369134383611AE072
:10190000836923F4E0438361836943EA02238361AB
:1019100011E0C36923F07003C361C3691343C3615A
:1019200009E0C36923F4E043C361C36943EA0223C6
:10193000C36100E000BF00BF704731B1012906D08C
:10194000022906D0032908D105E0426306E082633C
:1019500004E0C26302E0026400E000BF00BF704721
:1019600031B101290CD0022913D0032922D118E06A
:10197000836923F0080383618369134383611AE059
:10198000836923F400638361836943EA02238361EB
:1019900011E0C36923F00803C361C3691343C36142
:1019A00009E0C36923F40063C361C36943EA022306
:1019B000C36100E000BF00BF7047000010B50446DF
:1019C0003349601A8C4244D00CDCB4F1804F1CD0F7
:1019D0003048204410B3B0F5806F28D0B0F5006FC8
:1019E00052D12DE0B0F5806F3CD0B0F58E3F03D0E2
:1019F000B0F5923F48D13EE040F20B30FFF7D4FC07
:101A000040F20B30FFF7C0FC3FE04FF48060FFF77F
:101A1000CBFC4FF48060FFF7B7FC36E040F20140AA
:101A2000FFF7C2FC40F20140FFF7AEFC2DE040F2B0
:101A30000240FFF7B9FC40F20240FFF7A5FC24E0AA
:101A400040F20340FFF7B0FC40F20340FFF79CFC7C
:101A50001BE040F20440FFF7A7FC40F20440FFF710
:101A600093FC12E040F20540FFF79EFC40F2054077
:101A7000FFF78AFC09E040F20D30FFF795FC40F2D9
:101A80000D30FFF781FC00E000BF00BF10BD00007B
:101A90000010004000FCFFBF016841F0010101603F
:101AA0007047CA43026170470A8882621D4A9042A9
:101AB0000ED0B0F1804F0BD01B4A904208D01B4A89
:101AC000904205D01A4A904202D01A4A90420BD155
:101AD000026822F07002026002684B881A430260BA
:101AE00002688B881A4302608A68C262124A904276
:101AF0000AD0124A904207D0026822F44072026073
:101B00000268CB881A430260064A904202D0094A12
:101B1000904201D10A7B0263426942F001024261B4
:101B200070470000002C0140000400400008004005
:101B3000000C004000340140001000400014004040
:101B4000C2680A43C2607047CA43026170470246D6
:101B5000D06800EA01031069084010B10BB1012000
:101B600070470020FCE7012904D1426C42F4004296
:101B7000426403E0426C22F4004242647047000079
:101B800010B504462146054800F0B3F800BF072110
:101B9000024800F000F90028F9D010BD00480040CC
:101BA00070B505460E46002403E0285DFFF7E8FF08
:101BB000641CB442F9DB70BD10B5044640F202600B
:101BC000FFF7D2FB40F20E60FFF7CEFB4FF400733D
:101BD000032218211E48FFF765F94FF480630322A2
:101BE00004211B48FFF75EF91A4800F087F82146E8
:101BF000184800F031F80021164800F011F90021D2
:101C0000144800F02DF90021124800F019F90421C0
:101C1000104800F00DF908210E4800F019F940F2C3
:101C200005310C4800F0C6F8002211462520FFF7C8
:101C30004DFA084800F0AAF840F20260FFF794FB62
:101C40004FF48073032210210148FFF72BF910BDD8
:101C500000080140003801402DE9F04704460D46D8
:101C60000027B846B94600261D49601A8C421CD090
:101C700006DC1C48204470B1B0F5806F1FD10FE026
:101C8000B0F5806F16D0B0F56C4F18D10320FFF778
:101C9000BFFA074614E00220FFF7BAFA07460FE042
:101CA0000220FFF7B5FA07460AE00220FFF7B0FA74
:101CB000074605E00220FFF7ABFA074600E000BF49
:101CC00000BF07EB5500B0FBF5F64FF6F07006EAE3
:101CD000000806F00F0948EA0900A060BDE8F08797
:101CE000004C004000BCFFBF01464868C0F308003C
:101CF0007047C1F3080242607047000010B5044607
:101D00002049601A8C4228D006DC1F48204490B13C
:101D1000B0F5806F33D117E0B0F5806F26D0B0F505
:101D20006C4F2CD140F20E30FFF73EFB40F20E30EC
:101D3000FFF72AFB24E040F21140FFF735FB40F2A9
:101D40001140FFF721FB1BE040F21240FFF72CFB94
:101D500040F21240FFF718FB12E040F21340FFF789
:101D600023FB40F21340FFF70FFB09E040F2144061
:101D7000FFF71AFB40F21440FFF706FB00E000BF3C
:101D800000BF10BD004C004000BCFFBFC16841F463
:101D90000051C160704710B5024602EB9110006817
:101DA00001F01F040123A340184008B1012010BD19
:101DB0000020FCE710B500EB9112126801F01F043F
:101DC0000123A3401A4300EB91131A6010BD10B514
:101DD00000EB91521268C1F304440123A3409A43DB
:101DE00000EB91531A6010BD70B502460023002429
:101DF000C1F38910105801F01F060125B54000EA13
:101E0000050302EB91500068C1F304460125B5407B
:101E100000EA050414B10BB1012070BD0020FCE7FD
:101E2000C26822F4C062C260C2680A43C2607047DE
:101E30000A460021C16821F004011143C1607047C6
:101E4000026922F44052026102690A43026170474A
:101E50000A460021C16821F008011143C1607047A2
:101E6000C26822F48052C260C2680A43C2607047EE
:101E700000C1814001C0804101C0804100C181405A
:101E800001C0804100C1814000C1814001C080414A
:101E900001C0804100C1814000C1814001C080413A
:101EA00000C1814001C0804101C0804100C181402A
:101EB00001C0804100C1814000C1814001C080411A
:101EC00000C1814001C0804101C0804100C181400A
:101ED00000C1814001C0804101C0804100C18140FA
:101EE00001C0804100C1814000C1814001C08041EA
:101EF00001C0804100C1814000C1814001C08041DA
:101F000000C1814001C0804101C0804100C18140C9
:101F100000C1814001C0804101C0804100C18140B9
:101F200001C0804100C1814000C1814001C08041A9
:101F300000C1814001C0804101C0804100C1814099
:101F400001C0804100C1814000C1814001C0804189
:101F500001C0804100C1814000C1814001C0804179
:101F600000C1814001C0804101C0804100C1814069
:101F700000C0C101C30302C2C60607C705C5C40429
:101F8000CC0C0DCD0FCFCE0E0ACACB0BC90908C899
:101F9000D81819D91BDBDA1A1EDEDF1FDD1D1CDC89
:101FA00014D4D515D71716D6D21213D311D1D010F9
:101FB000F03031F133F3F23236F6F737F53534F4E9
:101FC0003CFCFD3DFF3F3EFEFA3A3BFB39F9F83859
:101FD00028E8E929EB2B2AEAEE2E2FEF2DEDEC2C49
:101FE000E42425E527E7E62622E2E323E12120E0B9
:101FF000A06061A163A3A26266A6A767A56564A4A9
:102000006CACAD6DAF6F6EAEAA6A6BAB69A9A86818
:1020100078B8B979BB7B7ABABE7E7FBF7DBDBC7C08
:10202000B47475B577B7B67672B2B373B17170B078
:102030005090915193535292965657975595945468
:102040009C5C5D9D5F9F9E5E5A9A9B5B99595898D8
:10205000884849894B8B8A4A4E8E8F4F8D4D4C8CC8
:102060004484854587474686824243834181804038
:1020700090200008000000202C0000001807000835
:10208000BC2000082C000020FC07000028070008E6
:10209000000000000000000000000000000E270704
:1020A000000000000000000000000100000000002F
:0C20B00000000000000000000000000024
:0400000508000131BD
:00000001FF
