:020000040800F2
:10000000980E002095010008990100089B01000846
:100010009D0100089F010008A101000800000000E8
:10002000000000000000000000000000A301000824
:10003000A501000800000000A7010008A9010008B0
:10004000AB010008AB010008AB010008AB010008E0
:10005000AB010008AB010008AB010008AB010008D0
:10006000AB010008AB010008AB010008AB010008C0
:10007000AB010008AB010008AB010008AB010008B0
:10008000AB010008AB010008AB010008AB010008A0
:10009000AB010008AB010008AB010008AB01000890
:1000A000AB010008AB010008AB010008AB01000880
:1000B00055090008B5090008AB010008AB010008AC
:1000C000AB010008AB010008AB010008AB01000860
:1000D000AB010008AB010008AB010008AB01000850
:1000E000AB010008AB010008AB01000800F002F80A
:1000F00000F03AF80AA090E8000C82448344AAF188
:100100000107DA4501D100F02FF8AFF2090EBAE885
:100110000F0013F0010F18BFFB1A43F0010318473B
:100120006816000088160000103A24BF78C878C10D
:10013000FAD8520724BF30C830C144BF04680C60ED
:10014000704700000023002400250026103A28BF35
:1001500078C1FBD8520728BF30C148BF0B60704739
:100160001FB51FBD10B510BD01F02FF81146FFF7E8
:10017000F7FF00F02BF801F04DF803B4FFF7F2FFA2
:1001800003BC01F055F8000030BF72B662B680F3D0
:100190000888704708480047FEE7FEE7FEE7FEE7ED
:1001A000FEE7FEE7FEE7FEE7FEE7FEE70348044959
:1001B000044A054B70470000ED0000089808002035
:1001C000980E0020980A0020980A0020092000F0CC
:1001D00095F9482000F03EF841F61F4142F20F70B9
:1001E00000F0F9FB012000F01BFC4FF416514820F1
:1001F00000F0E6F900F0C2FE40F27121042000F0A8
:10020000CBFF1DE00F480078B0B100200D49087009
:100210000D480078401C0C4908700C480068C04329
:100220000B49C1F8A401084800780A2804D100F05D
:10023000E6FE00200449087000F0E6FE00F0BAFF78
:10024000E0E700000400002026000020A4812142F5
:10025000008021424FF0E021096921F004014FF0B4
:10026000E0221161C21700EB5272C2F3C702234BA6
:100270001A701946097801EB4102C2EBC1114FF621
:10028000FF7202EAC1011E4A1180704701461B4AF3
:1002900012784A434FF0E0235A6100229A6101220A
:1002A0001A6100BF4FF0E022106900F001021AB19C
:1002B00000F48032002AF5D000224FF0E0231A61CA
:1002C0009A61704701460E4A12884A434FF0E02374
:1002D0005A6100229A6101221A6100BF4FF0E022A8
:1002E000106900F001021AB100F48032002AF5D042
:1002F00000224FF0E0231A619A617047000000204D
:1003000002000020A34A0A400243A34B1A60704730
:100310000146072323EA010212029F4B1B1D1868A6
:100320004FF6FF0318409D4B184310439A4B1B1D7B
:10033000186070472DE9F0410746884614461D466F
:100340002846FFF7E5FFC5F1040007FA00F60F2085
:10035000284100EA0800064306F00F06E21704EB06
:10036000D2625211920002F1E022D2F8002121461D
:10037000E31704EBD3635B11A4EB431C012303FAE3
:100380000CF31A432046E31704EBD3635B119B0085
:1003900003F1E023C3F800218148005D40EA061024
:1003A0007F490855BDE8F08170B504460B46CE176D
:1003B00001EB9676C6F38700CE1701EB9676B61062
:1003C000A1EB8606B606350E764B9B6943F001031A
:1003D000744EB3614FEAB63353F820300F26AE4067
:1003E000B343714E46F82030334653F8203004FAB8
:1003F00005F61E436C4B43F8206002F0010333B155
:100400006A4B1B6801268E403343684E336002F00E
:10041000020343B1654B1B1F1E6801238B401E4323
:10042000624B1B1F1E6070BD00B500205D49086156
:10043000C8601420486100208861C86108460068CF
:1004400040F0010008600846406859490840554995
:100450004860084600685749084052490860084605
:10046000006820F4802008600846406820F4FE0000
:1004700048600020886000214FF00060FFF742FFD5
:1004800000BD10B544480830006840F004004249FF
:10049000083108604348C06940F080504149C86154
:1004A0004548406840F48070434948600846006809
:1004B00040F0040008600846006840F00200086050
:1004C000FFF762FE10BD3548001D3349091D086065
:1004D000704701464906334A926942F00102314BA6
:1004E0009A61314A083A526822F0E0622E4B083B8A
:1004F0005A601A4652680A435A60704730B504463B
:100500000025FFF791FF2748006840F48030254917
:10051000086000BF23480068400C0028FAD04FF460
:10052000806020494860A01EC4B20846406840EA86
:10053000844048600846406840F4003048600846FF
:10054000406840F4803048601C48006840F0320049
:100550001A4908601348006840F08070114908602B
:1005600000BF10480068400E0028FAD00D484068CF
:1005700040F002000B49486005E00A484068C0F3BB
:10058000870505F00305022DF7D10120FFF7A1FF34
:1005900030BD000080FFFF1F08ED00E00000FA05FD
:1005A00000E400E000100240080001400C0401409B
:1005B0000000FFF8FFFFF6FE007000400020024040
:1005C0002DE9F05F05460E46300100F07DFF8146C3
:1005D000D84905FB01F000F077FF8246494600F05C
:1005E00091FE0746384600F04FFF84B2204600F0E7
:1005F0006BFF8346394601F047F882464FF083414E
:1006000000F076FF814600F03FFF80464FF6FF7016
:1006100000EA041404EB080084B2C748806940F083
:100620000400C54988610846806940F480408861BB
:10063000C248006820F47F60C0490860084600682E
:1006400040F40B600860BC48C06840F48040BA4980
:10065000C8600846C06820F48040C860B84804807C
:10066000001D008842F20C010843B549091D0880AD
:100670000846008840F4807008800846008840F0F2
:10068000200008800223252200210846FFF752FEA1
:10069000BDE8F09F2DE9F05F05460E46300100F001
:1006A00013FF8146A34905FB01F000F00DFF8246D0
:1006B000494600F027FE0746384600F0E5FE84B2C2
:1006C000204600F001FF8346394600F0DDFF8246F8
:1006D0004FF0834100F00CFF814600F0D5FE8046CC
:1006E0004FF6FF7000EA041404EB080084B292484D
:1006F000806940F00400904988610846C06940F470
:100700000030C8618D48001F006820F47F408B498D
:10071000091F08600846006840F40B4008608648DE
:10072000006940F40030844908610846006920F4FB
:100730000030086183480480001D008842F20C01EB
:1007400008438049091D08800846008840F48070ED
:1007500008800846008840F02000088002232622F6
:1007600019460120FFF7E6FDBDE8F09F2DE9F05F97
:1007700005460E46300100F0A7FE81466D4905FB97
:1007800001F000F0A1FE8246494600F0BBFD07469D
:10079000384600F079FE84B2204600F095FE83468C
:1007A000394600F071FF82464FF0834100F0A0FE11
:1007B000814600F069FE80464FF6FF7000EA04149F
:1007C00004EB080084B25C48806940F008005A4994
:1007D00088610846C06940F48020C8615A480068B2
:1007E00020F47F40584908600846006840F40B40F8
:1007F00008605148006940F480204F49086108466C
:10080000006920F48020086150480480001D0088A1
:1008100042F20C0108434D49091D08800846008832
:1008200040F4807008800846008840F0200008806E
:100830000123272219461846FFF77CFDBDE8F09FEB
:100840003F49091F088000BF3D490839098801F068
:1008500040010029F8D03A490839098801F04001DF
:10086000374A083A1180704700B5034603E013F891
:10087000010BFFF7E5FF18780028F8D100BD3149DA
:10088000091F088000BF2F490839098801F040017D
:100890000029F8D02B490839098801F04001294A7C
:1008A000083A1180704700B5034603E013F8010BC6
:1008B000FFF7E5FF18780028F8D100BD2349091F8C
:1008C000088000BF21490839098801F0400100294A
:1008D000F8D01E490839098801F040011B4A083A3E
:1008E0001180704700B5034603E013F8010BFFF7D2
:1008F000E5FF18780028F8D100BD7047704714490B
:10090000888000BF1249098801F040010029F9D010
:100910000F49098801F040010D4A1180704700B568
:10092000034603E013F8010BFFF7E9FF18780028EE
:10093000F8D100BD40420F00001002400408014001
:100940000838014008440040040C014008480040B9
:10095000005000404FF08040008A20F001004FF02E
:1009600080410882704770B505460C463648C0691C
:1009700040F001003449C861880485850485808978
:1009800040F00100890488810846008820F01000AA
:1009900008800846008840F001000880084600886A
:1009A00040F00400088002231C2219460120FFF7B2
:1009B000C1FC70BD2548008800F0010020B124482A
:1009C0000078401C224908702048008820F001006F
:1009D0001E490880704770B505460C461A48C06924
:1009E00040F002001849C86118481C300580001FFB
:1009F00004801648001F008840F001001349091FB9
:100A0000088012481038008820F001000F49103982
:100A1000088002231D2219460320FFF78BFC70BDBE
:100A200040B90A491039098821F00101074A103AF2
:100A3000118007E005491039098841F00101034A96
:100A4000103A11807047000000100240100400406E
:100A50000400002010B5014600224F48814208D30F
:100A6000B1FBF0F03030C4B21046531CDAB24B4B3D
:100A70001C544B4881420CD3B1FBF0F00A23B0FB6D
:100A8000F3F403FB140030301346541CE2B2434C21
:100A9000E054444881420CD3B1FBF0F00A23B0FB90
:100AA000F3F403FB140030301346541CE2B23B4C09
:100AB000E0543D4881420CD3B1FBF0F00A23B0FB77
:100AC000F3F403FB140030301346541CE2B2334CF1
:100AD000E054364881420CD3B1FBF0F00A23B0FB5E
:100AE000F3F403FB140030301346541CE2B22B4CD9
:100AF000E05442F2107081420CD3B1FBF0F00A23B3
:100B0000B0FBF3F403FB140030301346541CE2B284
:100B1000224CE054B1F57A7F0ED34FF47A70B1FBDA
:100B2000F0F00A23B0FBF3F403FB1400303013465B
:100B3000541CE2B2194CE05464290DD36420B1FB7B
:100B4000F0F00A23B0FBF3F403FB1400303013463B
:100B5000541CE2B2114CE0540A290DD30A20B1FB17
:100B6000F0F00A23B0FBF3F403FB1400303013461B
:100B7000541CE2B2094CE0540A20B1FBF0F300FB34
:100B8000131030301346541CE2B2044CE0540020E1
:100B900023469854184610BD00CA9A3B28000020EE
:100BA00000E1F5058096980040420F00A086010004
:100BB000E848E9494860E94848607047E648006904
:100BC00040F08000E44908617047E348C16801F0E3
:100BD000010008B10120704701F0040008B10220B3
:100BE000F9E701F0100008B10320F4E70020F2E774
:100BF00070B5044600BFFFF7E8FF0546012D00D0A1
:100C000006E00120FFF742FB601E84B2002CF2D107
:100C100000BF04B9FF25284670BD70B50546002405
:100C200045F6FF70FFF7E4FF0446C4B9CA480069FF
:100C300040F00200C849086108464561006940F07B
:100C40004000086145F6FF70FFF7D2FF0446012C13
:100C500005D0C148006920F00200BF490861204664
:100C600070BD70B505460E46FF20FFF7C1FF044674
:100C700094B9B948006940F00100B74908612E8075
:100C8000FF20FFF7B5FF0446012C05D0B2480069EC
:100C900020F00100B0490861204670BD0146088877
:100CA00070472DE9F04105460E461746002407E03F
:100CB00036F814102846FFF7D4FFAD1C601C84B230
:100CC000BC42F5DBBDE8F08130B503460C46154665
:100CD000002207E01846FFF7E1FF24F812009B1CF2
:100CE000501C82B2AA42F5DB30BD2DE9F05F804690
:100CF0008A461746B8F1006F02D39948804501D360
:100D0000BDE8F09FFFF754FFA8F1006B4FEADB2529
:100D1000CBF34909C9F58064A74200DC3C464EE0AC
:100D20004FF0006101EBC5204A148E49FFF7CCFF5C
:100D300000260BE009EB06008A4931F810004FF657
:100D4000FF71884200D003E0701C86B2A642F1DB3E
:100D500000BFA6421BDA4FF0006101EBC520FFF790
:100D60005CFF002608E03AF8160006EB09017D4A10
:100D700022F81100701C86B2A642F4DB4FF000612D
:100D800001EBC5204A147749FFF78BFF04E02246A8
:100D900051464046FFF785FFA74200D110E06D1C89
:100DA0004FF000090AEB440A08EB4408381B87B2ED
:100DB000B7F5806F02DD4FF4806400E03C46AFE79A
:100DC00000BFFFF7FBFE00BF9AE708B56648008842
:100DD00080B2ADF8000064480068000CADF8020075
:100DE000022269466148FFF780FF08BD08B56048E8
:100DF000008880B2ADF800005D480068000CADF8D6
:100E000002000222694659481030FFF76EFF08BD04
:100E100008B55848008880B2ADF800005548006811
:100E2000000CADF802000222694650482030FFF75E
:100E30005CFF08BD08B55048008880B2ADF80000DE
:100E40004D480068000CADF8020002226946474890
:100E50003030FFF74AFF08BD18B502226946434803
:100E6000FFF732FFBDF802403F480460BDF80000C4
:100E70003D49098840EA01403B49086018BD18B562
:100E80000222694639481030FFF71EFFBDF80240C4
:100E900037480460BDF800003549098840EA014040
:100EA0003349086018BD18B5022269462F48203022
:100EB000FFF70AFFBDF802402E480460BDF80000AD
:100EC0002C49098840EA01402A49086018BD18B534
:100ED0000222694625483030FFF7F6FEBDF8024091
:100EE00025480460BDF800002349098840EA014014
:100EF0002149086018BD10B5FFF7AEFFFFF7BFFF2F
:100F0000FFF7D1FFFFF7E3FF17480068401C20B947
:100F1000002015490860FFF758FF15480068401C7D
:100F200020B9002012490860FFF760FF11480068EF
:100F3000401C20B900200F490860FFF769FF0E48E8
:100F40000068401C20B900200B490860FFF772FFC1
:100F500010BD00002301674500200240AB89EFCDA2
:100F600000000808340000200C00002020000108C8
:100F700010000020140000201800002010B56B485D
:100F8000806940F00800694988616948006820F07C
:100F9000F000674908600846006840F030000860CB
:100FA0006248806940F00800604988616048001F1D
:100FB0000068C0F30B005E49091F0860084600681E
:100FC0005C4908435A49091F086001205A490860D2
:100FD0005A48D0F810015A4908705848D0F81401FE
:100FE000584908705548D0F81801574908705348B7
:100FF000D0F81C0155490870FFF77DFF10BD10B5F2
:1010000053A0FFF731FC10BD10B54B489438006871
:10101000514908704948D0F81401504908704748B0
:10102000D0F818014E4908704448D0F81C014D49C9
:10103000087049480078B8B941480078012813D1B0
:1010400049480068401C48490860FFF7BEFE47A0B9
:10105000FFF70AFC44480068FFF7FCFC0446FFF772
:1010600003FC3CA0FFF700FC3C480078B8B93548C9
:101070000078012813D13F480068401C3D490860B2
:10108000FFF7B4FE3CA0FFF7EFFB3A480068FFF71C
:10109000E1FC0446FFF7E8FB2EA0FFF7E5FB304834
:1010A0000078B8B928480078012813D1344800687E
:1010B000401C33490860FFF7ABFE32A0FFF7D4FBBA
:1010C0002F480068FFF7C6FC0446FFF7CDFB21A0C0
:1010D000FFF7CAFB23480078B8B91C4800780128FC
:1010E00013D12A480068401C28490860FFF7A2FE77
:1010F00027A0FFF7B9FB25480068FFF7ABFC0446C3
:10110000FFF7B2FB13A0FFF7AFFB134800780C49C1
:101110000870124800780B490870114800780A4995
:101120000870104800780949087010BD001002408E
:10113000040C014000808888A48121420080214263
:101140001D0000201E0000201F00002020000020A5
:101150004E3030312A000000220000202300002001
:1011600024000020250000200C0000204E303032EA
:101170003A000000100000204E3030333A000000EA
:10118000140000204E3030343A00000018000020D7
:101190004E3030353A00000045F25552084B1A6087
:1011A0001A46506091604AF6AA221A604CF6CC4268
:1011B0001A6070474AF6AA2001490860704700008B
:1011C00000300040704770477047754600F02CF8BB
:1011D000AE4605006946534620F00700854618B024
:1011E00020B5FEF7E3FFBDE820404FF000064FF0CA
:1011F00000074FF000084FF0000B21F00701AC464C
:10120000ACE8C009ACE8C009ACE8C009ACE8C0096A
:101210008D46704710B50446AFF300802046BDE808
:101220001040FEF7AABF00000048704734080020B5
:1012300001491820ABBEFEE72600020070470000FF
:1012400090EA010F48BF81F0004100F12E82421A5E
:101250003CBF801A89184FEAD0524FF07F4C1CEAED
:10126000410FA2EBD15318BF9CEA026F00F03B8004
:101270004FF0004C4CEA00204CEA012121FA03FC1B
:1012800010EB0C0C1ED202F1FF325FEA1C2040EB87
:10129000C25038BF70471CF07F0F4FEA400C18BF98
:1012A000BCF17F4F38BF7047C3F12003994008BF9E
:1012B00020F00100BCF17F4F38BF7047A0F1C04063
:1012C00000F0DDB94FEA3C00000A40EBC25028BFF5
:1012D0001CF0FF0F4FEA400CE6D018BFBCF17F4F67
:1012E00038BF7047EAE79CEA026F05D010EA5C0F4E
:1012F00008BF00F00040704710B500F07AF900BF59
:1013000064FBBE3E4FF47F0C1CEAD0121EBF1CEAE9
:10131000D11392EA0C0F93EA0C0F00F0858090EA4B
:10132000010F48BF42F4807240F4000C41F4000009
:101330002CF07F4120F07F4000B58142A2EB0302F8
:101340000FF2081CACEB504EC0F100009EF800E01C
:101350004FEA4E0E00FB0EFC38BF49004FEA2C1C32
:1013600002F5FA020CFB0EF34FEACE1E4FEA112CE7
:101370004FEAC1210EEB635E42EB22420EFB0CFCF6
:101380004FEA1C5300FB03114FEA112C4FEA0131C5
:101390000EFB0CFC4FEADC4C00FB0C11C14228BFD9
:1013A00009184CEB03335DF804EB10EB410143EB00
:1013B000C250B2F57C0F38BF704729D512F0F00F3C
:1013C0001CBF00F1C04000F00040704700818283E4
:1013D0008485868788898B8C8D8E8F919293959644
:1013E00097999A9C9D9FA0A2A3A5A7A8AAACAEB0CE
:1013F000B2B3B5B7B9BCBEC0C2C5C7C9CCCED1D4D3
:10140000D7D9DCDFE2E6E9ECF0F3F7FAFE00000002
:101410004FEA400C0CF1807CBCF17E4F28BF704736
:10142000B0F1C04000F02BB990EA010F0CEAD113E3
:1014300048BF42F48072624538BF634507D213F457
:101440007F0F16D080EA010000F00040704710B511
:1014500000F0CFF8097EFC3E00F005B880EA0100FC
:1014600000F00040704780EA010000F0004000F00A
:1014700006B912F47F0F04BF0248704780EA0100EA
:1014800000F0FDB80000C07FC10DD1F19E0206DB67
:101490004FEA002343F0004323FA02F07047004272
:1014A00007D54FEA4001B1F1FE4F02D24FF00000E4
:1014B000704710B500F09DF84992248000207047D5
:1014C0006FEA200070470000B0FA80F310FA03F2D0
:1014D000C3F19D030AD0D90501EB1220530638BF92
:1014E000704700F1010008BF20F0010070470000C4
:1014F0004FF47F0C1CEAD0121EBF1CEAD11392EAF3
:101500000C0F93EA0C0F00F0478090EA010F48BFE0
:1015100042F480724FF0004C4CEA00204CEA01216A
:1015200002EB0302A0FB0113A2F50002002918BF81
:1015300043F001035B0028BF4FEA330342EB224232
:101540005FEA132C4CEBC2502EBFBCEB436FB2F5DD
:101550007C0F70474FEA036CBCF1004F08BF20F0CE
:101560000100B2F57C0F38BF70470BD582F0FF0247
:1015700012F5803FC8BF704700F1C040D8BF00F0EF
:101580000040704700F5000C5FEA4C0C48BF704704
:10159000B0F1C04000F073B890EA010F0CEAD1132B
:1015A00048BF42F48072624538BF634504D280EA86
:1015B000010000F00040704710B500F01AF800BFBD
:1015C0008900013E00F007B800F009B85FEA410C5D
:1015D0005FEA1C6C08D080EA010000F050B85FEAB6
:1015E000400C5FEA1C6CF6D14FF00040A0F5800083
:1015F00070470EF1020E2EF0030E5EF8044B2442EB
:1016000004D44FEA4102B2F17F4F11D84FEA4003B0
:10161000B3F17F4F0CD80ED14FEAD07CB2F17F4F9F
:101620000CEB4C0C0CF1020C08BF4CEBD17C04E031
:101630004FF0080C01E04FEAD17C0CEB4C0324FA8C
:1016400003F404F00704B4F1040C06D20EEB840C8E
:10165000BDE810404CF0010C6047DFE80CF00708D3
:1016600002024FF00040A0F5800010BD0846420085
:1016700018BFD2F1807288BF00F0004010BDFF217A
:1016800041EAD050C005704780F0004090EA010F59
:101690007FF5DDAD81F0004100F007B890EA010F61
:1016A00048BF81F000413FF5D2AD421A04D882F024
:1016B0000042A0EB020011444FEAD0524FF07F4CA1
:1016C0001CEA410FA2EBD15318BF9CEA026F4AD02B
:1016D0004FF0004C4CEA00204CEA012121FA03FCB7
:1016E000B0EB0C0C0FD412F0FE0F36D05FEA4C00BA
:1016F0001DD5001240EBC25038BF70471CF03F0FA1
:1017000018BF70470BE0A2F101025FEA1C2040EB1A
:10171000C25038BF70471CF07F0F18BF7047C3F12D
:101720002003994014BF401E20F00100704780083C
:101730004FEA122308BF7047B0FA80FCA2EB0C02FC
:10174000CCF1280C60FA0CF093EA122F04BF00EBE6
:10175000C25070474FEAC3707047130A5FEADC104B
:1017600008BF7047F6E79CEA026F04D010EA5C0FEE
:1017700008BF0020704710B5FFF73BFF40DFF63E83
:1017800081F0004070470000A8170008000000200A
:101790002800000028010008D017000828000020B9
:1017A000700E00004401000800000000000000006E
:1017B0000000000000000000000000000000000029
:1017C0000000000000000000000000000000000019
:04000005080000ED02
:00000001FF
