:020000040800F2
:100000002809002045010008010600088B040008AB
:10001000C1040008C50300088111000800000000A9
:10002000000000000000000000000000B50900080A
:10003000C903000800000000D506000829100008C8
:100040005F0100085F0100085F0100085F01000810
:100050005F0100085F0100085F0100085F01000800
:100060005F0100085F0100085F0100085F010008F0
:100070005F0100085F0100085F0100085F010008E0
:100080005F0100085F0100085F0100085F010008D0
:100090005F0100085F0100085F0100085F010008C0
:1000A0005F0100085F0100085F0100085F010008B0
:1000B000A11000085F0100085F0100085F0100084F
:1000C0005F0100085F0100085F0100085F01000890
:1000D0005F010008351100085F0100085F0100089A
:1000E0005F0100085F0100085F0100085F01000870
:1000F0005F0100085F0100085F0100085F01000860
:100100005F0100085F0100085F0100085F0100084F
:100110005F0100085F010008011100085F0100088D
:100120005F0100085F0100085F0100085F0100082F
:10013000DFF80CD000F01AF900480047E119000878
:10014000280900200648804706480047FEE7FEE7EA
:10015000FEE7FEE7FEE7FEE7FEE7FEE7FEE7FEE777
:1001600031100008310100082DE9F04D81EA030447
:1001700004F0004B21F0004514464FF0000A23F034
:10018000004150EA050220D054EA01021DD0C5F317
:100190000A570246C5F31303C1F31300C1F30A560D
:1001A00040F4801543F48013A7EB0608101BD646D5
:1001B00008F2FD3873EB050002D308F1010801E0F5
:1001C00092185B41B8F1000F03DA00200146BDE848
:1001D000F08D00204FF48011064684460EE0171B78
:1001E00073EB050705D3121B63EB050306434CEACB
:1001F000010C49084FEA300092185B4150EA0107B0
:10020000EDD152EA030012D082EA040083EA05012C
:10021000084305D0101BAB4106D20122002306E0A3
:1002200000224FF0004302E06FF0010253101AEB7E
:1002300006004CEB085110EB0A0041EB0B01BDE846
:10024000F04D00F036B80EB540F233410291002176
:10025000CDE900110A460B4600F03AF803B000BDA4
:10026000C1F30A5210B5C1F3130140F2FF3341F458
:1002700080119A4201DA002010BD40F233439A42C5
:10028000A2F2334203DC524200F003F810BD90406A
:1002900010BD202A04DB203A21FA02F00021704729
:1002A00021FA02F3D040C2F12002914008431946DE
:1002B000704710B5141E73F1000408DA401C41F1B8
:1002C000000192185B411A4301D120F0010010BDDA
:1002D0002DE9F04D92469B4611B1B1FA81F202E050
:1002E000B0FA80F22032904600F052F804460F46F1
:1002F00040EA0A0041EA0B0153465A46084313D02C
:10030000114653EA010019D0C8F140025046FFF7E8
:10031000C0FF05460E4650465946424600F038F8A2
:10032000084305D0012004E020463946BDE8F08DA1
:100330000020054346EAE0762C4337430A986305DC
:10034000E40AA0EB08000022FD0A44EA47540A3000
:1003500002D500200146E9E7010510196941DDE9F0
:10036000084500196941BDE8F04DA2E7064C074D6C
:1003700006E0E06840F0010394E807009847103475
:10038000AC42F6D3FFF7D8FE782A0008982A000876
:10039000202A04DB203A00FA02F100207047914045
:1003A000C2F1200320FA03F3194390407047000084
:1003B00010B54FF40061024801F09CFA10BD000036
:1003C000000C014000BFFEE77047F0B54FF47A73B0
:1003D00000260446A4FB032701FB037300FB063140
:1003E000104647E000BF00BF00BF00BF00BF00BF16
:1003F00000BF00BF00BF00BF00BF00BF00BF00BF05
:1004000000BF00BF00BF00BF00BF00BF00BF00BFF4
:1004100000BF00BF00BF00BF00BF00BF00BF00BFE4
:1004200000BF00BF00BF00BF00BF00BF00BF00BFD4
:1004300000BF00BF00BF00BF00BF00BF00BF00BFC4
:1004400000BF00BF00BF00BF00BF00BF00BF00BFB4
:1004500000BF00BF00BF00BF00BF00BF00BF00BFA4
:1004600000BF00BF00BF00BF00BF00BF00BF00BF94
:1004700000BF00BF0A460346401E61F1000100258F
:100480006B406A401343ADD1F0BD00BFFEE70000F2
:1004900010B51021014801F02DFA10BD000C0140EB
:1004A00010B52021014801F0C5F910BD000C014034
:1004B00010B52021014801F0BBF910BD000C01402E
:1004C00000BFFEE710B51148C0781049897840EAAE
:1004D000012424B90D4840790D4908800CE0012C15
:1004E00004D10A4840790B49088005E0022C03D169
:1004F000064840790849088007480288054801886D
:100500000348008800F03EFE10BD00000A040020F1
:10051000460000204800002044000020002006E0A3
:10052000002213490A5413490A54411C88B2FA287C
:10053000F6DB002004E000210F4A1154411C88B270
:100540000828F8DB00210A4A083A117051705180DE
:100550009180D180A2F80211064A921F1170517049
:100560005180918082F8001182F8011170470000DB
:100570000C0200200E0300204A00002010B506489F
:100580008179083000F0BCF80020044981F80001AE
:1005900081F8010110BD00000402002008030020C2
:1005A00010B5154890F8000100B910BD124890F838
:1005B0000101022800DCF8E70F4890F80101032848
:1005C00018DB0E480078FC280ED10C484078032830
:1005D00002D0062806D102E001F06CFD03E0FFF72F
:1005E00071FF00E000BF00BF0020034981F8000157
:1005F00081F8010100BFD8E7080300200A040020A9
:100600007047000010B54FF48061024801F010F906
:1006100010BD0000000C014010B54FF4806102488D
:1006200001F008F910BD0000000C014010B50028D1
:1006300007DA0A07140E054A00F00F031B1FD454F3
:1006400003E00A07130E024A135410BD18ED00E030
:1006500000E400E010B50446022C29D119480078C6
:10066000401C1849087008460078012808D116482F
:1006700000781649087000220521144800F0A2F8FD
:100680001048007802280BD1114800780F490870F3
:10069000002205210D4800F095F800200949087056
:1006A0000848007802280CDD00200649087008E0A0
:1006B000054800780549087000220521034800F02C
:1006C00081F810BD420000204600002018050020DF
:1006D000480000207047000010B54FF480710248B8
:1006E00001F0A6F810BD00000008014010B54FF45D
:1006F0008071024801F09EF810BD00000008014022
:1007000070B504460D46FFF7F1FF0BE000BF07216F
:100710000C4801F0DEFF0028F9D014F8011B09484D
:1007200001F085FF281EA5F10101CDB2EED100BF79
:100730000621044801F0CDFF0028F9D0FFF7CCFFD7
:1007400070BD00000038014010B50446204600F09E
:1007500090F910BD70B504460D461646324629463E
:10076000204600F0ADF970BD10B500F090F910BD55
:1007700010B500F0DDF9002000F092FB012000F040
:1007800038FB0021084600F097FA0421002000F011
:10079000B9FB00231A464FF6FF71084600F09AFA9B
:1007A00010BD10B5044601F095FB01F089FB002354
:1007B0001A4640F20221084600F08CFA002000F0B0
:1007C00059FB10BD70B505460C46164601F08CFB72
:1007D00001F06CFB4FF4C8700021FFF7F6FD002319
:1007E0001A4640F20121084600F074FA0748C47323
:1007F00000F0C9FA32462146284600F051FA4FF47B
:10080000C8700021FFF7E1FD70BD0000C8010020A5
:1008100010B50446204600F0F3FA10BD10B50446AA
:1008200014B1012C01D000BF10E0012000F0CAFA81
:100830000748407806490978884206D0044800787D
:1008400003494870487800F005F800BF00BF10BDAC
:100850002400002010B50446012000F0B3FA012C5A
:100860000AD134214FF4E86000F0B5FB442140F296
:10087000417000F0B0FB09E014214FF4E86000F093
:10088000AAFB242140F2417000F0A5FB10BD00003E
:100890002DE9F05F0E461C46DDF844B00AAD95E840
:1008A000A007002000F010FB002000F03BFA012020
:1008B000204981F82800084680F838501E48015D1C
:1008C0001C4880F8391080F83A701CB90B2D05D0FF
:1008D0000C2D03D0012C06D10C2D04D1012115487B
:1008E00080F83B1003E00021124880F83B10012003
:1008F000104908700846A0F80C8080F80E900F4848
:1009000001780C48C17380F810A080F811B000F095
:1009100017F80120FFF782FF0648283000F009FA97
:10092000044800F030FA0221304600F0EBFABDE84E
:10093000F09F0000C8010020B02700082800002018
:1009400010B5002000F0ACFA10BD000010B5082171
:10095000014800F06FFF10BD000C014010B50821E8
:10096000014800F065FF10BD000C014010B500F01B
:1009700009FD4FF4C06001F06DFB01210B4800F050
:10098000C1FF40F2036001F065FB28230322102120
:10099000074800F051FF40F2036001F05BFB1023B9
:1009A00003224821024800F047FF10BD000230003A
:1009B000000C01407047000038B5044620488442CE
:1009C00006D9E1208DF80000E9208DF8010030E023
:1009D0001C48844206D9D7208DF80000D8208DF815
:1009E000010026E01848844206D9C1208DF8000095
:1009F000C5208DF801001CE01448844206D97520FA
:100A00008DF8000081208DF8010012E0104884422A
:100A100006D96B208DF800006F208DF8010008E0EA
:100A20000C48844205D337208DF8000041208DF812
:100A3000010002226946982000F0B0FA38BD00009B
:100A400000E9A43580F8A9328044E52D000B6B1B2A
:100A500040FC54198058840C10B500F025F818B1EA
:100A600000F022F8062801D100F06CFA00F063FAD9
:100A700010BD38B50446200A8DF80000E0B28DF8AC
:100A8000010002226946104600F088FA38BD08B518
:100A900002226946122000F0A6F89DF801009DF898
:100AA000001040EA012008BD0148007870470000AE
:100AB0003400002001480078704700003500002015
:100AC000F8B505460C4616460020009069462046BB
:100AD00000F00DF82078B04201DD0120F8BD227849
:100AE00029469DF8000000F05CF80020F6E738B5D4
:100AF00004460D4602226946132000F074F8FFF701
:100B0000D9FF01280DD140F2047000F08BF80121CB
:100B1000B1EBE01F05D140F2027000F083F82070C5
:100B200002E09DF8000020709DF80100287038BD9B
:100B300010B500F00BF800F0A4F800F031F800F068
:100B400001FA002000F0ACF910BD000010B540F231
:100B5000026001F07FFA4FF40043032210210E4897
:100B600000F06AFE40F2036001F074FA4FF4505353
:100B700003221021094800F05FFE40F2036001F0FB
:100B800069FA4FF4006303224821044800F054FE40
:100B9000FFF7ECFE10BD000000080140000C014012
:100BA00070472DE9F04107460D461646FFF754FF02
:100BB00001F072F91E2000F019FC384600F016FC16
:100BC000002000F013FC002405E0002000F00EFCE3
:100BD0002855601C84B2B442F7DB01F053F900F0F1
:100BE000AAF9BDE8F0812DE9F04107460D46164609
:100BF000FFF732FF01F050F9384600F0F7FB002014
:100C000000F0F4FB002405E0002000F0EFFB285585
:100C1000601C84B2B442F7DB01F034F900F08BF9C8
:100C2000BDE8F08138B5044601226946204600F04F
:100C300003F89DF8000038BD2DE9F04104460E464A
:100C40001746FFF709FF01F027F91D2000F0CEFB42
:100C5000200A00F0CBFBE0B200F0C8FB002000F05F
:100C6000C5FB002505E0002000F0C0FB7055681CA6
:100C700085B2BD42F7DB01F005F900F05CF9BDE893
:100C8000F08110B50A2000F087FBFFF7BBFC1420B1
:100C900000F082FBFFF7C0FC0A2000F07DFB10BDD6
:100CA00070B505460E4614463146284600F098F8C1
:100CB000204600F011F970BD38B505460C468DF898
:100CC00000508DF80140022269468F2000F066F93D
:100CD00038BD00002DE9FC4104460D4616461F466E
:100CE00008A103C9CDE90001E0B28DF80100E0B22E
:100CF0008DF8030008226946104600F04FF9BDE860
:100D0000FC810000020102010000000010B5002279
:100D10001146C12000F042F903200149087010BDBE
:100D20003400002001B501226946A02000F036F908
:100D300008BD38B50446042500200090207C8DF8BD
:100D40000000607C8DF80100A07C8DF80200E07C42
:100D50008DF803002A4669468B2000F01FF938BD44
:100D6000F8B504460D4616461F468DF800408DF82E
:100D700001508DF802608DF80370042269469520B9
:100D800000F00CF9F8BD7CB5044606250020009063
:100D90000190A089000A8DF80000207B8DF80100E9
:100DA000A07B8DF80200E07B8DF80300207C8DF89D
:100DB0000400607C8DF805002A4669468C2000F00E
:100DC000EDF87CBD01B59DF80000044908700122D2
:100DD00069468A2000F0E2F808BD000035000020D6
:100DE00070B504460D462A462146002000F0B8F8AA
:100DF00070BD01B501226946962000F0CFF808BD0C
:100E000030B52DED048B81B00546002416480078DE
:100E100028B92846FFF7D0FD01201349087028465D
:100E2000FFF711FA41EC190B9FED100B53EC102B4F
:100E3000FFF79AF941EC180BFFF712FA0446200E5F
:100E40008DF80000200C8DF80100200A8DF80200BA
:100E5000E0B28DF8030004226946862000F09EF877
:100E600001B0BDEC048B30BD3C0000200000000050
:100E70008084EE3F38B50446052008490870200CF0
:100E80008DF80000200A8DF80100E0B28DF8020014
:100E900003226946822000F081F838BD340000202A
:100EA00001B501226946802000F078F89DF8000025
:100EB00018B901200349087002E0022001490870B6
:100EC00008BD00003400002001B5012269469F20C2
:100ED00000F064F808BD000038B504460420084955
:100EE0000870200C8DF80000200A8DF80100E0B297
:100EF0008DF8020003226946832000F04FF838BDC8
:100F00003400002038B505460C4601230022072195
:100F10000420FFF725FF382140F6E70000F05BF8DA
:100F2000E8B28DF800008DF80140022269468E205B
:100F300000F034F838BD10B500BFFFF739FA0028CB
:100F4000FBD110BD10B500F0A7FFC02000F04EFA95
:100F5000002000F04BFA00F095FFFFF7ECFF10BD0A
:100F60002DE9F04107460D461646FFF775FD00F0E6
:100F700093FF0E2000F03AFA384600F037FA0024CA
:100F800004E0285D00F032FA601C84B2B442F8DB61
:100F900000F078FFFFF7CFFFBDE8F0812DE9F041C9
:100FA00005460E461746FFF757FD00F075FF284629
:100FB00000F01CFA002404E0305D00F017FA601C19
:100FC00084B2BC42F8DB00F05DFF842D01D0FFF756
:100FD000B2FFBDE8F08113B50446012201A9204605
:100FE00000F001F81CBD2DE9F04104460E461746FD
:100FF000FFF732FD00F050FF0D2000F0F7F9200A56
:1010000000F0F4F9E0B200F0F1F9002504E0705DC1
:1010100000F0ECF9681C85B2BD42F8DB00F032FF4D
:10102000FFF789FFBDE8F08110B500F0BFF910BDF2
:1010300008B51848006840F4700016490860164862
:10104000006840F00100144908600846406840F01C
:10105000800048600020009002E00098401C009052
:1010600044F6206100988842F7D300200A4948607E
:10107000C8620846006809490840074908604FF4FB
:101080001F0088600846006820F48020086001F096
:10109000CDF808BD88ED00E000100240FFFFF6FE2D
:1010A00010B50121880701F0C2F910480088401CE2
:1010B0000E4908800E480088401C0D4908800D48E4
:1010C0000088401C0B4908800B480088401C0A49D6
:1010D000088006480088082807DB08480078401C7C
:1010E0000649087000200149088010BD5400002006
:1010F00016000020180000201A00002052000020D6
:1011000010B50121094801F0E8F970B10121074843
:1011100001F0E0F9064890F8010130B1044890F878
:101120000101401C024981F8010110BD001000407E
:101130000803002010B50E490E4801F0F3FA01280B
:1011400015D10B490B4801F0E0FA0A4801F06AFAA0
:10115000094991F80011094A5054074890F80001D4
:10116000401C054981F80001012081F8010110BDF2
:101170000503050000380140080300200A04002090
:1011800000BFFEE77CB506460C461546ADF800608C
:10119000ADF80240ADF8045003226946014800F062
:1011A000C3FA7CBD0000010802E008C8121F08C194
:1011B000002AFAD170477047002001E001C1121FD8
:1011C000002AFBD1704700B5FFF7A8F900BD000069
:1011D00070B502460C46FF25FF2309E012F8010B0B
:1011E00080EA05010648405C80EA03050548435C47
:1011F000201EA4F10106B4B2F0D143EA052070BD6F
:10120000782800087829000890B921B1012905D073
:1012100002290BD106E0114B1A6008E00F4B1B1D91
:101220001A6004E00D4B08331A6000E000BF13E0C1
:1012300021B1012906D002290CD107E0074B0C335C
:101240001A6008E0054B10331A6004E0034B1433B6
:101250001A6000E000BF00BF704700000874004043
:1012600010B540F21D4000F015FF40F21D4000F0A7
:1012700001FF10BD30B90749096841F00101054A75
:10128000116005E00349096841F48031014A1160A9
:10129000704700000074004010B540F2026000F09A
:1012A000D9FE40F21D7000F0D5FE3023032200214C
:1012B000144800F0C1FAFFF7D3FF002000F036F821
:1012C0000021084600F044F8002000F01DF801203D
:1012D00000F02CF80021012000F03AF8012000F085
:1012E00013F80020FFF7C6FF002211461046FFF753
:1012F0008BFF0120FFF7BEFF002211460120FFF700
:1013000083FF10BD0008014030B90749096841F06A
:101310000201054A116005E00349096841F4003102
:10132000014A1160704700000074004030B907495D
:10133000096821F00401054A116005E003490968C4
:1013400021F48021014A11607047000000740040C0
:1013500050B90B4A126822F0C002094B1A601A46B3
:1013600012680A431A600AE0054A126822F4400231
:10137000034B1A601A46126842EA01421A6070472B
:10138000007400400348406820F020000149486094
:1013900070470000002004E00349086000BF0249D4
:1013A00009680029FBD1704720000020044800682C
:1013B00020B103480068401E0149086070470000E2
:1013C00020000020074A1268074BB2FBF3F24243A9
:1013D0000523B2FBF3F100BF0A1EA1F10101FBD10D
:1013E000704700001C00002040420F0070B504460A
:1013F00000251AE004F0800010B1FFF751F801E079
:10140000FFF756F86006040E4120FFF7DBFFFFF7F9
:101410009DFAFFF73DF808B144F001044120FFF7C1
:10142000D1FFFFF79BFA681CC5B2082DE2DB20460E
:1014300070BD00B50346012200BF00F00BF8024664
:101440005B1E012A01D1002BF7D1012A00D1042211
:10145000104600BD00200A49C96801F0010109B128
:1014600001200CE00649C96801F0100109B1032010
:1014700005E00349C96801F0040101B10220704789
:101480000020024000B50346012200BF00F00CF826
:1014900002465B1E012A01D1002BF7D1012A00D19F
:1014A0000422104600BD000000200A49C96C01F06A
:1014B000010109B101200CE00649C96C01F01001DD
:1014C00009B1032005E00349C96C01F0040101B131
:1014D0000220704700200240064A02EB9011096882
:1014E00000F01F0301229A401143024B03EB9012BC
:1014F000116070470020024070B504460D4600267A
:101500002A480088B0F5007F35D92948844219D28D
:101510004FF47020FFF78DFF0646002E43D125487B
:10152000006940F001002349086125804FF47020D4
:10153000FFF77FFF06461F48006920F001001D49A4
:10154000086130E04FF47020FFF79CFF064656BB61
:101550001848006D40F001001649086525804FF4D9
:101560007020FFF78FFF06461248006D20F0010043
:101570001049086517E04FF47020FFF75AFF064640
:101580008EB90C48006940F001000A4908612580C5
:101590004FF47020FFF74DFF06460648006920F023
:1015A000010004490861304670BD0000E0F7FF1FEC
:1015B000FFFF0708002002400848006940F0800053
:1015C0000649086106480088B0F5007F04D908463E
:1015D000006D40F080000865704700000020024068
:1015E000E0F7FF1F30B5054636480088B0F5007FAC
:1015F00048D9354885421ED24FF47020FFF719FFB5
:101600000446002C5BD13148006940F002002F49AC
:10161000086108464561006940F0400008614FF4E8
:101620007020FFF706FF04462848006920F00200FA
:101630002649086143E04FF47020FFF723FF04467A
:10164000002C3CD12148006D40F002001F49086584
:1016500008464565C06900F0020008B108464561CA
:101660001A48006D40F04000184908654FF470209A
:10167000FFF708FF04461548006D20F002001349EB
:1016800008651CE04FF47020FFF7D3FE0446B4B9A0
:101690000E48006940F002000C49086108464561A7
:1016A000006940F0400008614FF47020FFF7C1FE70
:1016B00004460648006920F00200044908612046FB
:1016C00030BD0000E0F7FF1FFFFF070800200240C9
:1016D0000146088870470146088870470146088817
:1016E000704700000C48006900F0800020B10B48F2
:1016F000094948600A4848600A480088B0F5007FF8
:1017000009D90548006D00F0800020B10348024966
:10171000486403484864704700200240230167453D
:10172000AB89EFCDE0F7FF1F2DE9F04706468A466B
:1017300015464FF00009FFF7D5FF40F20730FFF7DD
:10174000CBFE41F20730FFF7C7FE34462FB206EB5F
:101750004500364988421ED2C6F30A0058B907E050
:101760002046FFF73FFF04F50064A7F5806007B24D
:10177000002FF5DC45E007E02046FFF733FF04F5D6
:101780000064A7F5806007B2002FF5DC06EB45008A
:10179000A042F1D935E02548864214D204E0204623
:1017A000FFF720FF04F5006420488442F7D3044685
:1017B00004E02046FFF716FF04F5805406EB4500D1
:1017C000A042F6D21DE0C6F30B0058B902E0204655
:1017D000FFF708FF002FFADC04F58054A7F500603E
:1017E00007B20EE007E02046FFF7FCFE04F5805448
:1017F000A7F5006007B2002FF5DC06EB4500A0421C
:10180000F1D9B0464FF000090AE03AF81910404605
:10181000FFF772FE08F1020809F101001FFA80F9D2
:10182000A945F2DBFFF7C8FEBDE8F0870000080815
:101830004161704701617047F0B5044616460025C6
:10184000002201F00F0501F0100747B1042E05D169
:1018500045F00305E76B1F43E76300E035430020D5
:101860001EE0012787401F40C7B122684FEA800C65
:101870000F2707FA0CF7BA43870005FA07F73A4330
:10188000282904D1012787401F40676105E04829C6
:1018900003D1012787401F4027612260471CB8B24F
:1018A0000828DED3082022E0012787401F40E7B147
:1018B0006268A0F108074FEA870C0F2707FA0CF7B8
:1018C000BA43A0F10807BF0005FA07F73A432829F1
:1018D00004D1012787401F40676105E0482903D1F3
:1018E000012787401F4027616260471CB8B210285B
:1018F000DAD3F0BD02469068084008B10120704775
:101900000020FCE7F0B50A46002300240021002552
:1019100000F00046B6F1004F02D11D4EF16901E022
:101920001B4E7168C0F3034583B200F44016B6F550
:10193000401F08D121F0E061154E766826F0E06680
:10194000134F7E6012E000F48016B6F5801F06D1BA
:10195000032606FA05F4A14341F0E06106E0460DD6
:10196000360103FA06F6B14341F0E06122B1460DBB
:10197000360103FA06F6314300F00046B6F1004F97
:1019800002D1034EF16101E0014E7160F0BD000033
:101990000000014010B540F2036000F05BFB4FF423
:1019A0000073032210210348FFF746FF00F00EF8F2
:1019B00010BD0000000C014010B54FF4007102484A
:1019C000FFF736FF10BD0000000C014010B54FF4CA
:1019D00000710248FFF72EFF10BD0000000C01400F
:1019E0008AB04FF4A06000F043FA00F023FC4FF4FB
:1019F000965000F07FFDFFF7CDFFFFF74DFC632110
:101A000040F6B73000F070FC00F03CFCFFF7DBFB69
:101A1000FFF7B8FC4FF4C06000F01CFB0121CF4879
:101A2000FFF770FFFEF7A4FEFEF78AFF40F6B8301E
:101A3000002105910691CDE9071001200C22CDE986
:101A40000102CDE903100B2002230A461621009063
:101A50000120FEF71DFFC248FEF7DAFE0020FEF768
:101A6000A0FEC048FFF73AFEBF490880BD48801C71
:101A7000FFF72EFEBD490880BA48001DFFF72BFE78
:101A8000BB490880B8480088FF2805D10A20B6491C
:101A900008800120B7490870B4480088FF2805D1A4
:101AA0000B20B24908800120B2490870B048008874
:101AB000FF2804D10120AE490880AE490870AD4826
:101AC000007801280AD1AA480288A8480188A648B7
:101AD0000088FFF757FB0020A6490870A24800784D
:101AE000A5490870002048708870C8702A200871C5
:101AF00033E1FEF739FEA14908700846007800F08E
:101B00000200022870D14FF6FF70FEF71DFE002084
:101B1000FEF747FE0A229A499A48FEF71BFE9848AC
:101B20000078002860D092480088022879D1954832
:101B300000788D490988884205D0924800788B4901
:101B400009888842DED100208F490880FFF73EFFD8
:101B50003220FFF721FCFFF72FFF4FF49670FFF7BD
:101B60001BFCFFF733FF3220FFF716FCFFF724FFC3
:101B700084488078854908708248C07848708148D8
:101B8000007988707F484079C8707E480079804924
:101B900008807C484079097840EA01207C49088027
:101BA000784880787B4908807648C078097840EA90
:101BB000012078490880764800880988884214DD29
:101BC0000020754908807248008874490880002008
:101BD000FFF750FB7148028800210846FFF714FB0D
:101BE00004216A48FEF78CFD6EE069480088694967
:101BF0000988884268DA00206949088065480088B9
:101C0000684908800120FFF735FB664802880021FB
:101C10000120FFF7F9FA04215C48FEF771FD53E05B
:101C2000FFE7584800785049098888424CD1002085
:101C3000554908805849088059490880FFF7C6FE71
:101C40003220FFF7A9FBFFF7B7FE4FF49670FFF7BE
:101C5000A3FBFFF7BBFE3220FFF79EFBFFF7ACFEB6
:101C6000484800794A49088046484079097840EA5E
:101C70000120474908804348807846490880414808
:101C8000C078097840EA012042490880404800882D
:101C9000424908800020FFF7EDFA40480288002101
:101CA0000846FFF7B1FA3B4800883E49088001200A
:101CB000FFF7E0FA3B48028800210120FFF7A4FA71
:101CC00004213248FEF71CFD2F480088B0F5966FBE
:101CD0000FD10020FFF7CEFA002211461046FFF781
:101CE00093FA0120FFF7C6FA002211460120FFF700
:101CF0008BFA29480088B0F5966F07D10020FFF7CE
:101D0000B9FA002211461046FFF77EFA24480088EF
:101D1000B0F5966F07D10120FFF7ACFA002211460B
:101D20000120FFF771FA20480078A0B1FEF7EEFF1E
:101D30000F490878FEF78EFCFEF7E8FF0020FEF75B
:101D400030FDFFF743FE3220FFF726FBFFF734FE9E
:101D5000002015490870FEF723FCCAE60002300097
:101D6000400ECF1900000108460000204800002066
:101D7000440000200C000020180500200A0000206C
:101D80000B000020BC0000201600002005000020F1
:101D90000E0000201000002018000020120000207B
:101DA0001A00002014000020520000202DE9F0410C
:101DB00003460D46164600240027A0462A48006820
:101DC00000F4E060B0F5E06F03D100BF4FF004080D
:101DD00030E02548006800F4E060B0F5C06F03D142
:101DE00001274FF0030825E01F48006800F4E06079
:101DF000B0F5A06F02D10227B8461BE01A48006870
:101E000000F4E060B0F5806F03D103274FF00108C4
:101E100010E01548006800F4E060B0F5407F03D1A1
:101E200004274FF0000805E04FF4A06000F020F810
:101E30000227B846C7F1040005FA00F4C8F104010E
:101E40000F20C8403040044324010848C45403F024
:101E50001F01012088405911890001F1E021C1F8DA
:101E60000001BDE8F08100000CED00E000E400E0BE
:101E700002490143024A1160704700000000FA0560
:101E80000CED00E010B54FF400410248FFF7D2FC22
:101E900010BD00000008014010B54FF40041024899
:101EA000FFF7C6FC10BD00000008014010B54FF45C
:101EB00000510248FFF7BCFC10BD0000000C0140BF
:101EC00010B54FF400510248FFF7B4FC10BD0000FC
:101ED000000C014010B54FF480510248FFF7A8FCF8
:101EE00010BD0000000C014010B54FF480510248B5
:101EF000FFF7A0FC10BD0000000C01402DE9F04FE1
:101F00008CB0074600200A904AA090E8004CC068B8
:101F1000CDE905BECDF810A007900FF21C1ADAE942
:101F2000000ACDE9020A0FF2101ADAE9000ACDE937
:101F3000000A44484068C0F381000B900B9820B120
:101F4000012804D002283FD103E03F4A3EE03E4A48
:101F50003CE03C48406800F4803CBCF5803F12D136
:101F60003848C06A00F08048B8F1000F01D1364C03
:101F700000E0364C3348406800F40039B9F5003FC2
:101F800002D1334C00E0324C2E484068C0F383410C
:101F90002C48406800F0006008B141F01001294869
:101FA000406800F0804008B141F020010F2901D2C3
:101FB000891C06E00F2903D33E2901D8491C00E003
:101FC0003F2104FB01F201E01F4A00BF00BF1D4892
:101FD0004068C0F3031504A8465D22FA06F31948C9
:101FE0004068C0F3022502A8465D23FA06F0099076
:101FF00014484068C0F3C2251DF8056023FA06F0B6
:10200000089037B1012F06D0022F06D0032F0AD136
:1020100006E00A9208E00A9306E009980A9003E0B5
:1020200008980A9000E000BF00BF0A980CB0BDE815
:10203000F08F000000000000000000000102030417
:10204000060708090010024000127A00006CDC024A
:1020500000093D00064A02EB9011096800F01F03D9
:1020600001229A401143024B03EB9012116070471A
:1020700000100240064A02EB9011096800F01F03AD
:1020800001229A409143024B03EB9012116070477A
:1020900000100240064A02EB9011096800F01F038D
:1020A00001229A401143024B03EB901211607047DA
:1020B0000010024010B5FC20134908720321124899
:1020C0004172062181720021C172104801780E48C8
:1020D0000173002141730E4801780B488173002180
:1020E000C1730C4801780848017409210830FFF7D2
:1020F0006FF8044621120448417484740B2002498D
:10210000C880FEF73BFA10BD040200204600002004
:102110004800002044000020002000213F4A1268AF
:1021200042F480323D4B1A6000BF401C3B4A1268AB
:1021300002F4003119B94FF6FF729042F5D1374AD7
:10214000126802F400320AB900BFFEE7334AD269CE
:1021500042F08052314BDA61314A126842F4404217
:102160002F4B1A602D4A52682C4B5A601A465268FF
:102170005A601A46526842F480625A601A4652689F
:1021800022F440325A601A46526842F440325A6091
:102190001A465268234B1A40204B5A601A4652681E
:1021A000214B1A431D4B5A601A46126842F0807246
:1021B0001A6000BF194A126802F00072002AF9D0B2
:1021C000174A126842F48032154B1A6000BF144A55
:1021D000526802F48032002AF9D0114A126842F49F
:1021E00000320F4B1A6000BF0D4A526802F40032F1
:1021F000002AF9D0094A526822F00302074B5A60BC
:102200001A46526842F002025A6000BF034A5268FE
:1022100002F00802002AF9D07047000000100240C6
:1022200000700040FFFFC3B70000340810B5FFF78F
:1022300073FF10BD10B5124800684FF47A71B0FBFF
:10224000F1F4601EB0F1807F01D301200FE0601E29
:102250004FF0E02148610F214FF0FF30FEF7E6F923
:1022600000204FF0E021886107200861002008B1BC
:1022700000BFFEE70021481EFEF7D8F910BD0000A0
:102280001C0000201FB54FF4E060FFF7E3FE4FF0A5
:10229000804000F059F842F6DF60ADF80000002001
:1022A000ADF80200ADF8040042F20F700290002079
:1022B000ADF806008DF80C0069464FF0804000F044
:1022C000B9F8012200211C20FFF770FD01218807C9
:1022D00000F0FCF84FF0804000F030F84FF0804004
:1022E00000F0A0F81FBD00007FB505460C4640F287
:1022F0000470FFF7AFFE104800F026F8A8B2ADF862
:10230000000002940020ADF80200ADF80400ADF822
:1023100006008DF80C006946074800F08BF8012292
:1023200011463620FFF742FD0121034800F0CEF8A8
:10233000014800F077F87FBD00100040016841F0CF
:10234000800101607047000010B504463349601AEF
:102350008C4244D00CDCB4F1804F1CD03048204477
:1023600010B3B0F5806F28D0B0F5006F52D12DE0DA
:10237000B0F5806F3CD0B0F58E3F03D0B0F5923F02
:1023800048D13EE040F20B30FFF784FE40F20B30C4
:10239000FFF770FE3FE04FF48060FFF77BFE4FF4E5
:1023A0008060FFF767FE36E040F20140FFF772FE03
:1023B00040F20140FFF75EFE2DE040F20240FFF7E1
:1023C00069FE40F20240FFF755FE24E040F2034070
:1023D000FFF760FE40F20340FFF74CFE1BE040F2C7
:1023E0000440FFF757FE40F20440FFF743FE12E0BF
:1023F00040F20540FFF74EFE40F20540FFF73AFE7F
:1024000009E040F20D30FFF745FE40F20D30FFF7D6
:1024100031FE00E000BF00BF10BD00000010004012
:1024200000FCFFBF016841F0010101607047CA4331
:10243000026170470A8882621D4A90420ED0B0F154
:10244000804F0BD01B4A904208D01B4A904205D0C7
:102450001A4A904202D01A4A90420BD1026822F0E6
:102460007002026002684B881A43026002688B881F
:102470001A4302608A68C262124A90420AD0124A23
:10248000904207D0026822F4407202600268CB8852
:102490001A430260064A904202D0094A904201D192
:1024A0000A7B0263426942F0010242617047000008
:1024B000002C01400004004000080040000C0040D7
:1024C000003401400010004000140040C2680A437C
:1024D000C2607047CA43026170470246D06800EA92
:1024E00001031069084010B10BB1012070470020B2
:1024F000FCE7000010B5044640F20260FFF7AAFDB9
:1025000040F20E60FFF7A6FD4FF40073032218217E
:102510001E48FFF791F94FF48063032204211B4802
:10252000FFF78AF91A4800F087F82146184800F0AA
:1025300031F80021164800F011F90021144800F08C
:102540002DF90021124800F019F90421104800F07B
:102550000DF908210E4800F019F940F205310C4838
:1025600000F0C6F8002211462520FFF71FFC08489E
:1025700000F0AAF840F20260FFF76CFD4FF48073A0
:10258000032210210148FFF757F910BD0008014050
:10259000003801402DE9F04704460D460027B846B3
:1025A000B94600261D49601A8C421CD006DC1C4826
:1025B000204470B1B0F5806F1FD10FE0B0F5806F8F
:1025C00016D0B0F56C4F18D10320FFF797FC0746E3
:1025D00014E00220FFF792FC07460FE00220FFF70D
:1025E0008DFC07460AE00220FFF788FC074605E05D
:1025F0000220FFF783FC074600E000BF00BF07EBA7
:102600005500B0FBF5F64FF6F07006EA000806F04C
:102610000F0948EA0900A060BDE8F087004C0040BF
:1026200000BCFFBF01464868C0F308007047C1F313
:10263000080242607047000010B504462049601A45
:102640008C4228D006DC1F48204490B1B0F5806F42
:1026500033D117E0B0F5806F26D0B0F56C4F2CD198
:1026600040F20E30FFF716FD40F20E30FFF702FD8C
:1026700024E040F21140FFF70DFD40F21140FFF75A
:10268000F9FC1BE040F21240FFF704FD40F212405B
:10269000FFF7F0FC12E040F21340FFF7FBFC40F2C2
:1026A0001340FFF7E7FC09E040F21440FFF7F2FCAB
:1026B00040F21440FFF7DEFC00E000BF00BF10BD99
:1026C000004C004000BCFFBFC16841F40051C16034
:1026D000704710B5024602EB9110006801F01F042C
:1026E0000123A340184008B1012010BD0020FCE7E1
:1026F00010B500EB9112126801F01F040123A340F2
:102700001A4300EB91131A6010BD10B500EB915203
:102710001268C1F304440123A3409A4300EB915390
:102720001A6010BD70B5024600230024C1F3891061
:10273000105801F01F060125B54000EA050302EB21
:1027400091500068C1F304460125B54000EA050434
:1027500014B10BB1012070BD0020FCE7C26822F467
:10276000C062C260C2680A43C26070470A46002164
:10277000C16821F004011143C1607047026922F46D
:102780004052026102690A43026170470A46002111
:10279000C16821F008011143C1607047C26822F48A
:1027A0008052C260C2680A43C260704700000000E5
:1027B0000405060000000000FCA9F1D24D62404073
:1027C000FCA9F1D24D623040FCA9F1D24D6220400B
:1027D000FCA9F1D24D621040FCA9F1D24D6200403B
:1027E000FCA9F1D24D62F03FFCA9F1D24D62E03F6D
:1027F000FCA9F1D24D62D03FFCA9F1D24D6230402C
:10280000FCA9F1D24D622040FCA9F1D24D621040EA
:10281000FCA9F1D24D620040FCA9F1D24D62F03F1B
:10282000FCA9F1D24D62E03FFCA9F1D24D62D03F4C
:10283000FCA9F1D24D62C03FFCA9F1D24D6220400B
:10284000FCA9F1D24D621040FCA9F1D24D620040CA
:10285000FCA9F1D24D62F03FFCA9F1D24D62E03FFC
:10286000FCA9F1D24D62D03FFCA9F1D24D62C03F2C
:10287000FCA9F1D24D62B03F00C1814001C080414E
:1028800001C0804100C1814001C0804100C1814040
:1028900000C1814001C0804101C0804100C1814030
:1028A00000C1814001C0804100C1814001C0804120
:1028B00001C0804100C1814001C0804100C1814010
:1028C00000C1814001C0804100C1814001C0804100
:1028D00001C0804100C1814000C1814001C08041F0
:1028E00001C0804100C1814001C0804100C18140E0
:1028F00000C1814001C0804101C0804100C18140D0
:1029000000C1814001C0804100C1814001C08041BF
:1029100001C0804100C1814000C1814001C08041AF
:1029200001C0804100C1814001C0804100C181409F
:1029300000C1814001C0804100C1814001C080418F
:1029400001C0804100C1814001C0804100C181407F
:1029500000C1814001C0804101C0804100C181406F
:1029600000C1814001C0804100C1814001C080415F
:1029700001C0804100C1814000C0C101C30302C247
:10298000C60607C705C5C404CC0C0DCD0FCFCE0EAF
:102990000ACACB0BC90908C8D81819D91BDBDA1A1F
:1029A0001EDEDF1FDD1D1CDC14D4D515D71716D68F
:1029B000D21213D311D1D010F03031F133F3F232FF
:1029C00036F6F737F53534F43CFCFD3DFF3F3EFE6F
:1029D000FA3A3BFB39F9F83828E8E929EB2B2AEADF
:1029E000EE2E2FEF2DEDEC2CE42425E527E7E6264F
:1029F00022E2E323E12120E0A06061A163A3A262BF
:102A000066A6A767A56564A46CACAD6DAF6F6EAE2E
:102A1000AA6A6BAB69A9A86878B8B979BB7B7ABA9E
:102A2000BE7E7FBF7DBDBC7CB47475B577B7B6760E
:102A300072B2B373B17170B050909151935352927E
:102A400096565797559594549C5C5D9D5F9F9E5EEE
:102A50005A9A9B5B99595898884849894B8B8A4A5E
:102A60004E8E8F4F8D4D4C8C4484854587474686CE
:102A70008242438341818040982A00080000002060
:102A800058000000A8110008F02A00085800002093
:102A9000D0080000B811000800000000000000008D
:102AA0000000000000000000000000000000000026
:102AB00000000000000E27070000000000000000DA
:102AC000FF00000000000000000000000000000007
:102AD00000000000000000000000000001000000F5
:102AE00000000000000000000000000000000000E6
:0400000508000131BD
:00000001FF
