:020000040800F2
:1000000018080020450100089B0100089301000822
:10001000970100088D01000885030008000000001A
:10002000000000000000000000000000C701000800
:100030009101000800000000C5010008C901000886
:100040005F0100085F0100085F0100085F01000810
:100050005F0100085F0100085F0100085F01000800
:100060005F0100085F0100085F0100085F010008F0
:100070005F0100085F0100085F0100085F010008E0
:100080005F0100085F0100085F0100085F010008D0
:100090005F0100085F0100085F0100085F010008C0
:1000A0005F0100085F0100085F0100085F010008B0
:1000B000210200085F0100085F0100085F010008DD
:1000C0005F0100085F0100085F0100085F01000890
:1000D0005F0100088D0200085F010008D9020008D6
:1000E0005F0100085F0100085F0100085F01000870
:1000F0005F0100085F0100085F0100085F01000860
:100100005F0100085F0100085F0100085F0100084F
:100110005F0100085F010008590200085F01000844
:100120005F0100085F0100085F0100085F0100082F
:10013000DFF80CD000F018F800480047A1040008D0
:10014000180800200648804706480047FEE7FEE7FB
:10015000FEE7FEE7FEE7FEE7FEE7FEE7FEE7FEE777
:10016000D101000831010008064C074D06E0E068A7
:1001700040F0010394E8070098471034AC42F6D3EE
:10018000FFF7DAFFE40600080407000800BFFEE7F7
:10019000704700BFFEE700BFFEE7704710B50028BC
:1001A00007DA0A07140E054A00F00F031B1FD45488
:1001B00003E00A07130E024A135410BD18ED00E0C5
:1001C00000E400E07047704710B500F0F7F810BD8C
:1001D00010B51048006840F470000E4908600E48E1
:1001E000006840F001000C49086000204860C862C7
:1001F0000846006809490840074908604FF41F0095
:1002000088600846006820F48020086000F0FCF94F
:1002100010BD000088ED00E000100240FFFFF6FE78
:1002200010B50121880700F01BFA09480088401C1E
:100230000749088008460088082807DB0548007839
:10024000401C0449087000200149088010BD0000CE
:10025000160000201400002010B50121094800F00C
:1002600007FA70B10121074800F0FEF9064890F83E
:10027000010130B1044890F80101401C024981F8A5
:10028000010110BD00100040F801002010B50E491A
:100290000E4800F00BFA012815D10B490B4800F06D
:1002A000F8F90A4800F0F0F9094991F80011094AF3
:1002B0005054074890F80001401C054981F800019E
:1002C000012081F8010110BD05030500003801403F
:1002D000F8010020FA02002010B500242349244828
:1002E00000F0E4F9002840D0214800F0CDF9C4B274
:1002F000204801780078401C1E4A10701E48445463
:1003000040780A2804D11D49087001201A49487014
:1003100019484078032804D118490870012016496B
:100320004870164800780A280ED1134880790930A1
:1003300010490978884207D10A2011490870002025
:100340000C4908700D4908700C48007803280CD13E
:1003500008480078082808D10020064908700320C2
:100360000749087000200549087010BD0503050005
:100370000048004000000020180000200400002079
:100380000300002000BFFEE702E008C8121F08C1FA
:10039000002AFAD170477047002001E001C1121F06
:1003A000002AFBD1704700000349086000BF0249E2
:1003B00009680029FBD170470C0000200448006840
:1003C00020B103480068401E0149086070470000E2
:1003D0000C00002001617047F0B50C461646002560
:1003E000002204F00F0504F0100747B1042E05D1D8
:1003F00045F00305C76B1F43C76300E03543002189
:1004000018E001278F401F4097B102684FEA810C26
:100410000F2707FA0CF7BA438F0005FA07F73A439C
:10042000282C01D1436102E0482C00D10361026015
:100430004F1CB9B20829E4D308211CE001278F40E2
:100440001F40B7B14268A1F108074FEA870C0F2798
:1004500007FA0CF7BA43A1F10807BF0005FA07F73E
:100460003A43282C01D1436102E0482C00D10361BA
:1004700042604F1CB9B21029E0D3F0BD10B540F274
:10048000026000F029F80223032210210348FFF73D
:10049000A3FF02210148FFF79DFF10BD00080140A6
:1004A0000024012500F0B4F8FFF7E8FF12E028204F
:1004B000FFF77AFF012D03D104F10A0004B202E034
:1004C000A4F10A0004B2B4F5FA7F00DD0025002C87
:1004D00000DC0125EBE70000064A02EB90110968F9
:1004E00000F01F0301229A401143024B03EB9012CC
:1004F0001160704700100240002000213E4A12683F
:1005000042F480323C4B1A6000BF401C3A4A1268E9
:1005100002F4003111B9B0F5006FF6D1364A126815
:1005200002F400320AB900BFFEE7334AD26942F052
:100530008052314BDA61314A126842F440422F4B0B
:100540001A602D4A52682C4B5A601A4652685A60FB
:100550001A46526842F480625A601A46526822F47F
:1005600040325A601A46526842F440325A601A4683
:100570005268234B1A40204B5A601A465268214B4E
:100580001A431D4B5A601A46126842F080721A6074
:1005900000BF194A126802F00072002AF9D0174A07
:1005A000126842F48032154B1A6000BF134A526839
:1005B00002F48032002AF9D0104A126842F4003264
:1005C0000E4B1A6000BF0D4A526802F40032002A36
:1005D000F9D0094A526822F00302074B5A601A46C2
:1005E000526842F002025A6000BF034A526802F0A9
:1005F0000802002AF9D07047001002400070004045
:10060000FFFFC3B70000340810B5FFF775FF10BD3A
:1006100010B5124800684FF47A71B0FBF1F4601E17
:10062000B0F1807F01D301200FE0601E4FF0E02188
:1006300048610F214FF0FF30FFF7B0FD00204FF071
:10064000E021886107200861002008B100BFFEE7B3
:100650000021481EFFF7A2FD10BD00001000002081
:1006600002698A430261704702698A4302617047E6
:100670000246D06800EA01031069084010B10BB1CE
:10068000012070470020FCE701464868C0F30800DD
:10069000704710B500EB91521268C1F30444012376
:1006A000A3409A4300EB91531A6010BD70B5024607
:1006B00000230024C1F38910105801F01F06012502
:1006C000B54000EA050302EB91500068C1F304460F
:1006D0000125B54000EA050414B10BB1012070BD3D
:1006E0000020FCE7040700080000002018000000BC
:1006F000880300081C0700081800002000080000FC
:100700009803000800000000000000000000000046
:0C07100000000000000E270700000000A1
:0400000508000131BD
:00000001FF
