:020000040800F2
:1000000048040020490100089906000891060008EC
:1000100095060008AB030008850B000800000000EF
:1000200000000000000000000000000019080008A7
:10003000AF030008000000002107000805090008C0
:100040006301000863010008630100086301000800
:1000500063010008630100086301000863010008F0
:1000600063010008630100086301000863010008E0
:1000700063010008630100086301000863010008D0
:1000800063010008630100086301000863010008C0
:1000900063010008630100086301000863010008B0
:1000A00063010008630100086301000863010008A0
:1000B0006301000863010008630100086301000890
:1000C0006301000863010008630100086301000880
:1000D0006301000869090008630100086301000862
:1000E0006301000863010008630100086301000860
:1000F0006301000863010008630100086301000850
:10010000630100086301000863010008630100083F
:10011000630100086301000863010008630100082F
:10012000630100086301000863010008630100081F
:10013000DFF810D000F008F900480047A90B0008CC
:10014000AFF3008048040020064880470648004777
:10015000FEE7FEE7FEE7FEE7FEE7FEE7FEE7FEE777
:10016000FEE7FEE709090008310100082DE9F0412A
:100170000024061B254671F1000605DA012400273C
:10018000D0EB070067EB0101161E73F1000605DADC
:100190000027D2EB0702012567EB030300F06BF8A1
:1001A00086460E4617469C46AC4204D00025D0EB4E
:1001B000050E65EB010624B10020D2EB000760EBD1
:1001C000030C704631463A466346BDE8F08130B4D0
:1001D00080EA010202F0004530F0004221F00040C8
:1001E00013D090B1C30DD40DC2F31601C0F31600A5
:1001F000E41A41F4000140F400027D34914201D33D
:10020000641C00E04900002C02DA30BC002070477A
:100210004FF400000023914201D3891A03434008A0
:100220004FEA4101F7D151B1914202D14FF0004163
:1002300005E002D24FF0010101E06FF0010103EB94
:10024000C450284430BC00F047B8F0B4CA17CB0FF4
:1002500050405140C61841F100054FEAC372314683
:1002600028004FF0960303D0B623F0BC00F03DB851
:1002700030460021F9E72DE9F05F0546002092465F
:100280009B4688460646814640241BE02846414658
:100290004746224600F079F853465A46C01A914123
:1002A00010D311461846224600F060F82D1A67EB6D
:1002B00001084F4622460120002100F057F817EBB5
:1002C00000094E41201EA4F10104DFDC48463146FE
:1002D0002A464346BDE8F09F0029A8BF7047401C4E
:1002E000490008BF20F00100704710B4B0FA80FC4C
:1002F00000FA0CF050EA010404BF10BC704749B189
:10030000CCF1200421FA04F411FA0CF118BF0121F8
:1003100021430843A3EB0C01CB1D4FEA00614FEAD8
:10032000102042BF002010BC704700EBC3501044A7
:100330000029A4BF10BC7047401C490008BF20F032
:10034000010010BC70470000064C074D06E0E06855
:1003500040F0010394E8070098471034AC42F6D30C
:10036000FFF7EAFE000D0008200D0008202A04DB3C
:10037000203A00FA02F1002070479140C2F12003B8
:1003800020FA03F3194390407047202A04DB203AF7
:1003900021FA02F00021704721FA02F3D040C2F1A5
:1003A0002002914008431946704700BFFEE770479E
:1003B00010B500F041F800F003F800F051F810BD5E
:1003C00010B50121052000F0ADF90121880300F0EE
:1003D000A9F90121014800F013F910BD0002300015
:1003E00001466FF07F424FF0E0235A6100229A618C
:1003F00005221A6111E000224FF0E0239A610D4AB4
:1004000012684FF47A73B2FBF3F2C2F1807000BF4E
:100410004FF0E02292698242FAD80A1EA1F101014E
:10042000E9D14FF0E022126922F001024FF0E023FF
:100430001A6170470C00002008B54FF4407000F0BE
:1004400065F901208DF8030000208DF802008DF879
:10045000010025208DF80000684600F01FF908BD56
:1004600000B585B04FF40070ADF8100003208DF892
:10047000120018208DF8130004A9194800F034F870
:100480004FF48060ADF8100004208DF8130004A92B
:10049000134800F029F84FF4164000900020ADF802
:1004A0000400ADF80600ADF80800ADF80C000C2013
:1004B000ADF80A0069460B4800F0F8FA012240F254
:1004C0002551084800F0CDFA012240F224410548A8
:1004D00000F0C7FA0121034800F08DFA05B000BD15
:1004E00000080140003801402DE9F0410246002596
:1004F0000026002000230024002791F803C00CF000
:100500000F0591F803C00CF0100CBCF1000F03D0E4
:1005100091F802C04CEA050591F800C0BCF1000F4B
:1005200031D0146800202BE04FF0010C0CFA00F3DE
:10053000B1F800C00CEA03069E4220D183004FF0C0
:100540000F0C0CFA03F7BC4305FA03FC4CEA040455
:1005500091F803C0BCF1280F06D14FF0010C0CFA42
:1005600000FCC2F814C00AE091F803C0BCF1480FC7
:1005700005D14FF0010C0CFA00FCC2F810C0401C71
:100580000828D1D31460B1F800C0BCF1FF0F34DDEE
:10059000546800202EE000F1080C4FF0010808FA22
:1005A0000CF3B1F800C00CEA03069E4221D183008F
:1005B0004FF00F0C0CFA03F7BC4305FA03FC4CEAAE
:1005C000040491F803C0BCF1280F05D100F1080C18
:1005D00008FA0CF8C2F8148091F803C0BCF1480F77
:1005E00007D100F1080C4FF0010808FA0CF8C2F826
:1005F0001080401C0828CED35460BDE8F081000074
:10060000F0B50A46002300240021002500F0004632
:10061000B6F1004F02D11D4EF16901E01B4E716829
:10062000C0F3034583B200F44016B6F5401F08D16D
:1006300021F07061154E766826F07066134F7E606B
:1006400012E000F48016B6F5801F06D1032606FAE4
:1006500005F4A14341F0706106E0460D360103FA4E
:1006600006F6B14341F0706122B1460D360103FA3E
:1006700006F6314300F00046B6F1004F02D1034EBA
:10068000F16101E0014E7160F0BD00000000014029
:1006900000BFFEE700BFFEE77047000070B5002115
:1006A00000230F22C47804B3154C246804F4E064DA
:1006B000C4F5E064210AC1F10403CA40447804FA95
:1006C00003F184781440214309010E4C0678A155AA
:1006D000047804F01F050124AC4005786D11AD00CD
:1006E00005F1E025C5F8004109E0047804F01F0594
:1006F0000124AC40044D0678761145F8264070BDC3
:100700000CED00E000E400E080E100E0024901437C
:10071000024A1160704700000000FA050CED00E08D
:100720007047000029B1064A92690243044B9A615E
:1007300004E0034A92698243014B9A6170470000CA
:100740000010024030B500210022002400232D4D6E
:100750006D6805F00C0121B1042905D0082923D1C9
:1007600005E0294D056022E0274D05601FE0254D7D
:100770006D6805F47012234D6D6805F48034022510
:1007800005EB92421CB9214D554305600BE01D4D10
:100790006D6805F400351DB11C4D5543056002E040
:1007A000194D5543056002E0174D056000BF00BFBD
:1007B000144D6D6805F0F0010909154D6B5C056875
:1007C000DD4045600F4D6D6805F4E061090A104D8C
:1007D0006B5C4568DD4085600A4D6D6805F46051CD
:1007E000C90A0B4D6B5C4568DD40C560054D6D6801
:1007F00005F44041890B074D6B5CC568B5FBF3F50B
:10080000056130BD0010024000127A0000093D0071
:100810002000002030000020704710B500F002F8E2
:1008200010BD00000CB50020019000903348006816
:1008300040F480303149086000BF3048006800F45F
:10084000003000900198401C0190009818B9019860
:10085000B0F5A06FF1D12948006800F4003010B164
:100860000120009001E0002000900098012843D171
:100870002348006840F010002149086008460068DD
:1008800020F0030008600846006840F0020008609D
:100890001A48406819494860084640684860084658
:1008A000406840F4806048600846406820F47C104E
:1008B00048600846406840F4E81048600846006810
:1008C00040F08070086000BF0C48006800F00070C5
:1008D0000028F9D00948406820F003000749486023
:1008E0000846406840F00200486000BF0348406886
:1008F00000F00C000828F9D10CBD000000100240E7
:10090000002002407047000010B51348006840F016
:1009100001001149086008464068104908400E4926
:100920004860084600680E4908400B4908600846C0
:10093000006820F4802008600846406820F4FE002B
:1009400048604FF41F008860FFF767FF4FF00060BA
:100950000449086010BD0000001002400000FFF8CC
:10096000FFFFF6FE08ED00E010B540F225511648F5
:1009700000F04DF8C8B11548008814280CDA124868
:10098000001D00881249114A128888540F480088B7
:10099000401C0E49088002E000200C49088040F20B
:1009A0002551094800F018F80DE040F224410648AE
:1009B00000F02DF838B1044800880348001D008875
:1009C00001200449087010BD0038014008000020D3
:1009D000340000200A00002010B50022002340F659
:1009E0006A14A14200D100BF0A1201249440A3B2AC
:1009F000DC43048010BD21B1828942F4005282811F
:100A000004E082894DF6FF731A408281704770B509
:100A10000246002400230025002040F66A16B14259
:100A200000D100BFC1F3421501F01F03012606FAF1
:100A300003F3012D02D19689334006E0022D02D145
:100A4000168A334001E0968A33400C12012606FADA
:100A500004F41688344013B10CB1012000E00020EA
:100A600070BDF0B50346002400260025002040F6A6
:100A70006A17B94200D100BF1846C1F3421401F011
:100A80001F06012707FA06F5012C01D10C3004E0FE
:100A9000022C01D1103000E014301AB107682F4346
:100AA000076002E00768AF430760F0BD2DE9F0473B
:100AB00086B005460E460024A24600BFA146002788
:100AC000B08900B100BF2F462C8A4CF6FF7004405D
:100AD000F08804432C82AC894EF6F3100440B088B1
:100AE00031890843718908430443AC81AC8A4FF6CD
:100AF000FF400440B0890443AC8201A8FFF722FE06
:100B00001F48874202D1DDF810A001E0DDF80CA0FB
:100B1000A88900F4004040B10AEBCA0000EB0A10BB
:100B200031684900B0FBF1F807E00AEBCA0000EBBE
:100B30000A1031688900B0FBF1F86420B8FBF0F0CE
:100B400004012009642101FB1089A88900F40040F8
:100B500040B1322000EBC900B0FBF1F000F007001B
:100B6000044308E0322000EB09106421B0FBF1F0EF
:100B700000F00F0004432C8106B0BDE8F0870000B0
:100B80000038014000BFFEE702E008C8121F08C19C
:100B9000002AFAD170477047002001E001C1121FFE
:100BA000002AFBD1704700000EB500200090019094
:100BB00002900024FFF7FCFB4FF49660FFF710FC57
:100BC00078E001208DF80000FD208DF80100122052
:100BD0008DF80200FF208DF8030040208DF80400FE
:100BE00000208DF805000C208DF8060080208DF87F
:100BF00007006B208DF80800002405E01DF80400B4
:100C000000F066F8601C84B2092CF7DB00202A494A
:100C1000088000BF294800780028FBD00020274921
:100C2000087001208DF8000036208DF801006B203F
:100C30008DF80200002405E01DF8040000F048F8DB
:100C4000601C84B2032CF7DB00201B49088000BF26
:100C50001A4800780028FBD0194800789DF8001049
:100C6000884224D11648407800061549897840EA20
:100C700001401349C97840EA012011490979084324
:100C80001049086008460068E12180FB01700146B8
:100C90004FF4805200233846FFF768FA0546FFF705
:100CA000D4FA81460849FFF792FA08490860002003
:100CB0000249087085E70000080000200A000020B3
:100CC000340000200000002000002041040000202B
:100CD0000021C0F30802094B1A8006E04A1C91B2B9
:100CE00041F27072914200DD7047044A121F12886F
:100CF00002F08002002AF1D000BFF5E7043801407D
:100D0000200D00080000002034000000880B0008BF
:100D1000540D00083400002014040000980B000853
:100D200000000000000000000000000000A24A04D3
:100D3000000000000000000001020304060708098B
:100D40000000000001020304010203040607080971
:040D5000020406088B
:0400000508000131BD
:00000001FF
