:020000040800F2
:1000000058090020490100080D0600085B0400089B
:100010005F040008550400081D09000800000000E6
:10002000000000000000000000000000AD06000815
:10003000590400080000000039060008AF06000857
:100040006301000863010008630100086301000800
:1000500063010008630100086301000863010008F0
:1000600063010008630100086301000863010008E0
:1000700063010008630100086301000863010008D0
:1000800063010008630100086301000863010008C0
:1000900063010008630100086301000863010008B0
:1000A00063010008630100086301000863010008A0
:1000B0006301000863010008630100086301000890
:1000C0006301000863010008630100086301000880
:1000D00063010008C1070008630100080D0800085B
:1000E0006301000863010008630100086301000860
:1000F0006301000863010008630100086301000850
:100100006301000863010008290700086301000873
:1001100063010008630100088D07000863010008FF
:10012000630100086301000863010008630100081F
:10013000DFF810D000F07CF90048004755120008A5
:10014000AFF3008058090020064880470648004762
:10015000FEE7FEE7FEE7FEE7FEE7FEE7FEE7FEE777
:10016000FEE7FEE7B9060008310100082DE9FE4F61
:10017000804681EA0300C00F0C46009021F0004148
:1001800023F00045B8EB0200A94105D240462146C4
:1001900090461C460B46024623F00040104347D0D1
:1001A000270DC7F30A00C3F30A510290401A0190C9
:1001B00040286BDAC3F3130040F4801B009892468A
:1001C00020B10023D2EB030A63EB0B0B01985946D5
:1001D000C0F14002504600F09CF806460D465046DD
:1001E0005946019A00F0B4F810EB08006141002470
:1001F00087EA115284EAE7731A4340D0009A62B347
:10020000019A012A4FEA075215DC001B61EB02013B
:100210004FF0004202EA0752CDE90042001C41F5CE
:10022000801132462B4600F0B4F803B0BDE8F08FE1
:1002300040462146F9E7001B61EB0201001C41F535
:10024000801300185B412018A2F5001747EB03014B
:1002500040EAD570B6196D4111E06D084FEA3606D7
:1002600045EAC0754FEA0752001B61EB0201001C12
:1002700041F5801149084FEA3000001951413246DA
:100280002B4603B0BDE8F04F00F074B8009801228F
:1002900040000023D0EB020263EBE073009821469C
:1002A0004FEAE074B8EB000061EB0401E9E783F08A
:1002B00000435BE781F0004158E7C1F30A5210B5F3
:1002C000C1F3130140F2FF3341F480119A4201DA85
:1002D000002010BD40F233439A42A2F2334203DCC5
:1002E000524200F025F810BD904010BD00F00042D1
:1002F00030F000400AD0C10D01F56071C0F3160066
:1003000042EA0151C20840071143704700200146EC
:100310007047202A04DB203A00FA02F100207047DF
:100320009140C2F1200320FA03F319439040704733
:10033000202A04DB203A21FA02F00021704721FA3A
:1003400002F3D040C2F120029140084319467047A1
:10035000202A06DBCB17203A41FA02F043EAE07389
:1003600006E041FA02F3D040C2F120029140084376
:100370001946704710B5141E73F1000408DA401CCA
:1003800041F1000192185B411A4301D120F00100B4
:1003900010BD2DE9F04D92469B4611B1B1FA81F2A4
:1003A00002E0B0FA80F220329046FFF7B2FF044636
:1003B0000F4640EA0A0041EA0B0153465A460843F9
:1003C00013D0114653EA010019D0C8F1400250463B
:1003D000FFF7AEFF05460E46504659464246FFF728
:1003E00098FF084305D0012004E020463946BDE8C7
:1003F000F08D0020054346EAE0762C4337430A9807
:100400006305E40AA0EB08000022FD0A44EA475411
:100410000A3002D500200146E9E7010510196941BB
:10042000DDE9084500196941BDE8F04DA2E700008B
:10043000064C074D06E0E06840F0010394E8070031
:1004400098471034AC42F6D3FFF776FE60250008DB
:100450008025000800BFFEE7704700BFFEE700BF31
:10046000FEE7000010B50120144908700320487011
:1004700004208870124800880012C8701048007864
:10048000087110480088001248710E480078887181
:1004900007210A4800F0D2FB0B4908800846008873
:1004A00000120649C87108480078087209210348FB
:1004B00001F0A8FD00200549087010BD22020020AF
:1004C00026000020280000202A0000202300002011
:1004D00010B51148C0781049897840EA012424B940
:1004E0000D4840790D4908800CE0012C04D10A48E0
:1004F00040790B49088005E0022C03D10648407979
:100500000849088007480288054801880348008890
:1005100000F006FA10BD00003C040020400000205E
:10052000420000203E000020002006E00022134987
:100530000A5413490A54411C88B2FA28F6DB0020F9
:1005400004E000210F4A1154411C88B20828F8DB4E
:1005500000210A4A083A1170517051809180D1806F
:10056000A2F80211064A921F1170517051809180B9
:1005700082F8001182F80111704700003E0200204D
:10058000400300204400002010B50648817908305F
:1005900000F068F80020044981F8000181F80101A9
:1005A00010BD0000360200203A03002010B51548A7
:1005B00090F8000100B910BD124890F8010102281E
:1005C00000DCF8E70F4890F80101032818DB0E481B
:1005D0000078FC280ED10C484078032802D0062869
:1005E00006D102E001F07CF903E0FFF771FF00E0C3
:1005F00000BF00BF0020034981F8000181F801011C
:1006000000BFD8E73A0300203C04002070470000F8
:1006100010B5002807DA0A07140E054A00F00F0388
:100620001B1FD45403E00A07130E024A135410BDD3
:1006300018ED00E000E400E07047000010B54FF452
:100640008071024800F036FD10BD00000008014036
:1006500010B54FF48071024800F02EFD10BD00006F
:100660000008014070B504460D46FFF7F1FF0BE0AE
:1006700000BF07210C4801F006FE0028F9D014F84D
:10068000011B094801F0ADFD281EA5F10101CDB205
:10069000EED100BF0621044801F0F5FD0028F9D095
:1006A000FFF7CCFF70BD000000380140704710B567
:1006B00000F0F4FA10BD000008B51848006840F4D6
:1006C0007000164908601648006840F0010014499F
:1006D00008600846406840F08000486000200090B4
:1006E00002E00098401C009044F620610098884287
:1006F000F7D300200A494860C862084600680949E3
:100700000840074908604FF41F00886008460068E9
:1007100020F48020086001F09FF908BD88ED00E01A
:1007200000100240FFFFF6FE10B50121114801F054
:10073000F6FB11480088401C0F4908800F480088CC
:10074000401C0E4908800E480088401C0C49088057
:100750000C480088401C0B49088007480088022884
:1007600007DB09480078401C07490870002002494F
:10077000088010BD000C00404E0000201C0000202E
:100780001E000020200000204C00002010B5012198
:10079000094801F01AFC70B10121074801F012FC70
:1007A000064890F8010130B1044890F80101401C5E
:1007B000024981F8010110BD001000403A030020F9
:1007C00010B50E490E4801F087FD012815D10B49DF
:1007D0000B4801F074FD0A4801F0FEFC094991F84C
:1007E0000011094A5054074890F80001401C05497F
:1007F00081F80001012081F8010110BD0503050009
:10080000003801403A0300203C04002010B53C4968
:100810003C4801F061FD012870D13949394801F0A7
:100820004EFD384801F0D8FC3749384A12788854D0
:1008300008460078012804D134480078401C334928
:10084000087032480078012858DD2F484078032886
:1008500026D12F480088012822D12C48007808286A
:100860004CDB0721284800F0E9F92A49088026488E
:10087000C0790988B0EB212F09D12348007A254996
:100880000978884203D103202349087002E0002040
:100890002149087000201F4908801C4908702DE07C
:1008A00019484078062826D119480088022822D104
:1008B00016480078082821DB0721134800F0BEF90C
:1008C000144908801048C0790988B0EB212F09D15C
:1008D0000D48007A0F490978884203D106200E4955
:1008E000087002E000200C490870002009490880C7
:1008F0000649087002E000200449087010BD00009D
:100900000503050000480040BE0100202200002031
:100910003E000020020000202300002000BFFEE770
:100920007CB506460C461546ADF80060ADF80240B1
:10093000ADF8045003226946014800F037FB7CBD46
:100940000000010802E008C8121F08C1002AFAD1FD
:1009500070477047002001E001C1121F002AFBD13F
:100960007047816841F00801816000BF816801F033
:1009700008010029FAD1816841F00401816000BFBB
:10098000816801F004010029FAD1704730B50129CE
:1009900002D002291AD10CE0C36A23F47003C362A7
:1009A000C36A541E4FF4700505EA04542343C3621E
:1009B0000DE0836B23F440138363836B541E4FF469
:1009C000401505EA04542343836300E000BF00BFE1
:1009D00030BD000010B504460123224600210B481B
:1009E00000F0BFF80121094800F015F900BF02210D
:1009F000064800F084F80028F9D00221034800F0EE
:100A00007AF8024800F003F910BD0000002401400C
:100A100010B500F099F800F079F8002000F086F8A1
:100A200000210E4800F01CF8012211460B48FFF788
:100A3000ADFF4FF460220121084800F044F8012284
:100A40001146064800F020F8044800F014F8012090
:100A500000F01AF90148FFF784FF10BD002401409F
:100A600021B1826842F40062826003E0826822F46D
:100A7000006282607047816801F0010119B98168E4
:100A800041F001018160704772B101F001031BB1B7
:100A9000836843F48013836001F0020393B1836899
:100AA00043F4004383600DE001F001031BB1836850
:100AB00023F48013836001F002031BB1836823F4E5
:100AC000004383607047012902D0022910D107E05A
:100AD000836823F46023836083681343836008E0A2
:100AE000836823F4E043836083681343836000E0FA
:100AF00000BF00BF704702688A4302607047024629
:100B0000002013680B4003B10120704710B540234B
:100B100001220021044800F0D1FA802301220021A3
:100B2000014800F0CBFA10BD0008014005490968F2
:100B300021F47021034A11601146096801431160D4
:100B4000704700000424014010B540F2026000F03C
:100B500097FE40F2096000F093FE022000F0AEFD27
:100B600010BDF0B51D4606290CD2436B01EB810781
:100B70001F26BE40B34301EB810602FA06F633435B
:100B8000436322E00C290ED2036B8E1F06EB86070F
:100B90001F26BE40B3438E1F06EB860602FA06F6FA
:100BA0003343036311E010290FD2C36AA1F10C068D
:100BB00006EB86071F26BE40B343A1F10C0606EBE9
:100BC000860602FA06F63343C3620A2A0CD2046987
:100BD00002EB42070726BE40B44302EB420605FA89
:100BE00006F63443046111E0122A0FD2C468A2F160
:100BF0000A0606EB46070726BE40B443A2F10A06E2
:100C000006EB460605FA06F63443C460F0BD01461D
:100C1000C86C80B2704701F001021AB1826842F4D8
:100C20008002826001F002021AB1826842F400126E
:100C30008260704700B5FFF777FC00BD70B50246D3
:100C40000C46FF25FF2309E012F8010B80EA05019D
:100C50000648405C80EA03050548435C201EA4F179
:100C60000106B4B2F0D143EA052070BD602300084C
:100C7000602400080348406820F0200001494860D3
:100C800070470000002004E00349086000BF0249EB
:100C900009680029FBD1704734000020044800682F
:100CA00020B103480068401E0149086070470000F9
:100CB0003400002000B50346012200BF00F00CF80C
:100CC00002465B1E012A01D1002BF7D1012A00D177
:100CD0000422104600BD000000200A49C96801F046
:100CE000010109B101200CE00649C96801F01001B9
:100CF00009B1032005E00349C96801F0040101B10D
:100D0000022070470020024000B50346012200BFC8
:100D100000F00CF802465B1E012A01D1002BF7D12E
:100D2000012A00D10422104600BD000000200A491B
:100D3000C96C01F0010109B101200CE00649C96C40
:100D400001F0100109B1032005E00349C96C01F06D
:100D5000040101B10220704700200240064A02EB64
:100D60009011096800F01F0301229A401143024BC1
:100D700003EB9012116070470020024070B50446EA
:100D80000D4600262A480088B0F5007F35D929484D
:100D9000844219D24FF47020FFF78CFF0646002ED4
:100DA00043D12548006940F00100234908612580AE
:100DB0004FF47020FFF77EFF06461F48006920F0C1
:100DC00001001D49086130E04FF47020FFF79CFFDF
:100DD000064656BB1848006D40F0010016490865EC
:100DE00025804FF47020FFF78FFF06461248006DF4
:100DF00020F001001049086517E04FF47020FFF75C
:100E000059FF06468EB90C48006940F001000A49B6
:100E1000086125804FF47020FFF74CFF0646064816
:100E2000006920F0010004490861304670BD0000EF
:100E3000E0F7FF1FFFFF0708002002400848006995
:100E400040F080000649086106480088B0F5007F40
:100E500004D90846006D40F0800008657047000026
:100E600000200240E0F7FF1F30B5054636480088F5
:100E7000B0F5007F48D9354885421ED24FF4702026
:100E8000FFF718FF0446002C5BD13148006940F0A1
:100E900002002F49086108464561006940F04000A2
:100EA00008614FF47020FFF705FF044628480069E9
:100EB00020F002002649086143E04FF47020FFF75C
:100EC00023FF0446002C3CD12148006D40F0020075
:100ED0001F49086508464565C06900F0020008B171
:100EE000084645611A48006D40F040001849086501
:100EF0004FF47020FFF708FF04461548006D20F0FE
:100F00000200134908651CE04FF47020FFF7D2FE81
:100F10000446B4B90E48006940F002000C4908616B
:100F200008464561006940F0400008614FF47020B8
:100F3000FFF7C0FE04460648006920F0020004499D
:100F40000861204630BD0000E0F7FF1FFFFF0708E3
:100F50000020024001460888704701460888704713
:100F600001460888704700000C48006900F08000C6
:100F700020B10B48094948600A4848600A4800887F
:100F8000B0F5007F09D90548006D00F0800020B160
:100F900003480249486403484864704700200240FF
:100FA00023016745AB89EFCDE0F7FF1F2DE9F0473F
:100FB00006468A4615464FF00009FFF7D5FF40F276
:100FC0000730FFF7CBFE41F20730FFF7C7FE34468C
:100FD0002FB206EB4500364988421ED2C6F30A00FE
:100FE00058B907E02046FFF73FFF04F50064A7F576
:100FF000806007B2002FF5DC45E007E02046FFF7F0
:1010000033FF04F50064A7F5806007B2002FF5DC1C
:1010100006EB4500A042F1D935E02548864214D2BE
:1010200004E02046FFF720FF04F5006420488442D6
:10103000F7D3044604E02046FFF716FF04F580547A
:1010400006EB4500A042F6D21DE0C6F30B0058B9EE
:1010500002E02046FFF708FF002FFADC04F5805479
:10106000A7F5006007B20EE007E02046FFF7FCFEA0
:1010700004F58054A7F5006007B2002FF5DC06EBFD
:101080004500A042F1D9B0464FF000090AE03AF815
:1010900019104046FFF772FE08F1020809F101003D
:1010A0001FFA80F9A945F2DBFFF7C8FEBDE8F0871B
:1010B000000008084161704701617047F0B50446BF
:1010C00016460025002201F00F0501F0100747B178
:1010D000042E05D145F00305E76B1F43E76300E0ED
:1010E000354300201EE0012787401F40C7B122681A
:1010F0004FEA800C0F2707FA0CF7BA43870005FA6E
:1011000007F73A43282904D1012787401F40676128
:1011100005E0482903D1012787401F40276122604D
:10112000471CB8B20828DED3082022E001278740F8
:101130001F40E7B16268A0F108074FEA870C0F274C
:1011400007FA0CF7BA43A0F10807BF0005FA07F742
:101150003A43282904D1012787401F40676105E0F1
:10116000482903D1012787401F4027616260471C3F
:10117000B8B21028DAD3F0BDF0B50A460023002437
:101180000021002500F00046B6F1004F02D11D4EAF
:10119000F16901E01B4E7168C0F3034583B200F4AE
:1011A0004016B6F5401F08D121F0E061154E766873
:1011B00026F0E066134F7E6012E000F48016B6F56C
:1011C000801F06D1032606FA05F4A14341F0E06131
:1011D00006E0460D360103FA06F6B14341F0E06140
:1011E00022B1460D360103FA06F6314300F00046FF
:1011F000B6F1004F02D1034EF16101E0014E716082
:10120000F0BD00000000014010B540F2036000F0A6
:1012100037FB4FF40073032210210348FFF74EFF02
:1012200000F00EF810BD0000000C014010B54FF4A6
:1012300000710248FFF73EFF10BD0000000C0140A6
:1012400010B54FF400710248FFF736FF10BD0000E3
:10125000000C01402DED048B4FF4A06000F0AAF9C2
:1012600000F0FEFB4FF4965000F0D8FE4FF46140C2
:1012700000F024FFFFF7C8FF632140F6B73000F00D
:1012800047FC00F015FCFFF7D5FCFFF7F3FC4FF42B
:10129000C06000F0F5FA01218148FFF76DFFFFF70C
:1012A000B7FB8048FFF75CFE7F4908807D48801CC3
:1012B000FFF750FE7D4908807A48001DFFF74DFE7C
:1012C0007B490880784800884FF6FF71884205D135
:1012D0000A20754908800120764908707348008803
:1012E0004FF6FF71884205D10B207049088001201C
:1012F000704908706E4800884FF6FF71884205D12A
:1013000002206B49088001206A490870694800780A
:1013100001280AD16648028864480188624800882A
:10132000FFF7FEFA002063490870492062490870FF
:10133000442048703A2088705B480078C8702A20A2
:10134000087100F041F900F057F9A8E0022058496F
:1013500008805A480078012841DB084600880128A7
:101360002FD10620FFF736FB00EE100AB8EE400A38
:10137000DFED530A80EE201A9FED520A21EE000A9B
:10138000BCEEC00A10EE100A4F4908800720FFF794
:1013900021FB00EE100AB8EE400ADFED490A80EEAC
:1013A000201A9FED480A21EE000ABCEEC00A10EE9A
:1013B000100A4649088046480078032801D1FFF703
:1013C00051F84448007808B9FFF73AFF41480078DF
:1013D000012801D1FFF72AFF002038490870FFF7E4
:1013E000E5F833480088022859D1394800780628A2
:1013F00055D139484179007901EB00203249088004
:101400003548C178807801EB002030490880FFF72B
:1014100029F82D48008800EE100AB8EE400ADFEDEA
:101420002F0A20EE200A10EE101A0846FEF75EFF83
:1014300041EC190B9FED2A0B53EC102BFEF796FE97
:1014400041EC180BFEF739FF274908801F48008838
:1014500000EE100AB8EE400ADFED200A20EE200A66
:1014600010EE101A0846FEF741FF41EC190B9FEDF4
:101470001C0B53EC102BFEF779FE41EC180BFEF71A
:101480001CFF1A490880184802880121880700F0CB
:1014900092FC164802880221480700F08CFC55E7B0
:1014A000000230000000010840000020420000203F
:1014B0003E000020120000204A0500204C000020C1
:1014C0000000804500409C462600002028000020A7
:1014D0002300002025000020BE01002009F9A0BD46
:1014E0000000000000469F402C0000202E0000203D
:1014F0002DE9F04103460D46164600240027A0467C
:101500002A48006800F4E060B0F5E06F03D100BF46
:101510004FF0040830E02548006800F4E060B0F5C2
:10152000C06F03D101274FF0030825E01F48006872
:1015300000F4E060B0F5A06F02D10227B8461BE0CE
:101540001A48006800F4E060B0F5806F03D103270B
:101550004FF0010810E01548006800F4E060B0F5B5
:10156000407F03D104274FF0000805E04FF4A0604E
:1015700000F020F80227B846C7F1040005FA00F48D
:10158000C8F104010F20C84030400443240108483A
:10159000C45403F01F01012088405911890001F152
:1015A000E021C1F80001BDE8F08100000CED00E091
:1015B00000E400E002490143024A11607047000064
:1015C0000000FA050CED00E010B540F2026000F0FA
:1015D00057F94FF4C06000F053F902230322182199
:1015E0000448FFF76BFD0423032218210148FFF78D
:1015F00065FD10BD0008014000B587B04FF4E06004
:1016000000F03EF94FF0804000F016FC7720ADF876
:1016100000000020ADF80200ADF8040040F2CF70E9
:1016200002900020ADF806008DF80C0069464FF0DE
:10163000804000F077FC0120ADF810000020ADF8EC
:101640001200ADF81400ADF81600ADF81800ADF8B2
:101650001A0004AA0121880700F08AFA04AA0221CC
:10166000480700F085FA40F28F120121880700F048
:10167000A2FB60220121880700F070FB00220121FB
:10168000880700F0ABFB40F2DB520221480700F074
:1016900092FB60220221480700F060FB0022022139
:1016A000480700F09BFB4FF0804000F05BFA4FF0E2
:1016B000804000F02FFC07B000BD0000184B5968B7
:1016C000184B1940164BDA6A22F000520C2820D22F
:1016D000DFE800F0060708091F0C1F0D1516171884
:1016E00000BF00BF00BF41EA803113E000BF20F01F
:1016F00004004FF0805343EA803319430AE000BFEF
:1017000000BF00BF20F00C0041EA803142F00052DF
:1017100000E000BF00BF024B5960DA627047000072
:1017200000100240FF3FFFEF2DE9F04F8CB007465D
:1017300000200A904AA090E8004CC068CDE905BEA0
:10174000CDF810A007900FF21C1ADAE9000ACDE9D3
:10175000020A0FF2101ADAE9000ACDE9000A444839
:101760004068C0F381000B900B9820B1012804D091
:1017700002283FD103E03F4A3EE03E4A3CE03C487D
:10178000406800F4803CBCF5803F12D13848C06A04
:1017900000F08048B8F1000F01D1364C00E0364C23
:1017A0003348406800F40039B9F5003F02D1334CAA
:1017B00000E0324C2E484068C0F383412C4840681A
:1017C00000F0006008B141F010012948406800F0C5
:1017D000804008B141F020010F2901D2891C06E0A8
:1017E0000F2903D33E2901D8491C00E03F2104FB07
:1017F00001F201E01F4A00BF00BF1D484068C0F36E
:10180000031504A8465D22FA06F319484068C0F3A0
:10181000022502A8465D23FA06F0099014484068A4
:10182000C0F3C2251DF8056023FA06F0089037B111
:10183000012F06D0022F06D0032F0AD106E00A920C
:1018400008E00A9306E009980A9003E008980A90D5
:1018500000E000BF00BF0A980CB0BDE8F08F0000A8
:101860000000000000000000010203040607080950
:101870000010024000127A00006CDC0200093D00FA
:10188000064A02EB9011096800F01F0301229A40FA
:101890001143024B03EB901211607047001002409D
:1018A000064A02EB9011096800F01F0301229A40DA
:1018B0009143024B03EB90121160704700100240FD
:1018C000064A02EB9011096800F01F0301229A40BA
:1018D0001143024B03EB901211607047001002405D
:1018E00010B5FC20134908720321124841720621E9
:1018F00081720021C172104801780E4801730021E5
:1019000041730E4801780B4881730021C1730C4864
:1019100001780848017409210830FFF78FF904465F
:1019200021120448417484740B200249C880FEF7D8
:101930002BFE10BD36020020400000204200002097
:101940003E000020002000213F4A126842F480320D
:101950003D4B1A6000BF401C3B4A126802F4003144
:1019600019B94FF6FF729042F5D1374A126802F466
:1019700000320AB900BFFEE7334AD26942F0805212
:10198000314BDA61314A126842F440422F4B1A60FF
:101990002D4A52682C4B5A601A4652685A601A46B1
:1019A000526842F480625A601A46526822F4403209
:1019B0005A601A46526842F440325A601A465268D7
:1019C000234B1A40204B5A601A465268214B1A4347
:1019D0001D4B5A601A46126842F080721A6000BFAE
:1019E000194A126802F00072002AF9D0174A1268E8
:1019F00042F48032154B1A6000BF144A526802F458
:101A00008032002AF9D0114A126842F400320F4B9A
:101A10001A6000BF0D4A526802F40032002AF9D061
:101A2000094A526822F00302074B5A601A4652686C
:101A300042F002025A6000BF034A526802F00802F4
:101A4000002AF9D0704700000010024000700040EA
:101A5000FFFFC3B70000340810B5FFF773FF10BDD8
:101A600010B5124800684FF47A71B0FBF1F4601EB3
:101A7000B0F1807F01D301200FE0601E4FF0E02124
:101A800048610F214FF0FF30FEF7C2FD00204FF0FC
:101A9000E021886107200861002008B100BFFEE74F
:101AA0000021481EFEF7B4FD10BD000030000020EC
:101AB0001FB540F20370FFF7E3FE144800F0BCF9D5
:101AC00042F6DF60ADF800000020ADF80200ADF88E
:101AD000040042F20F7002900020ADF806008DF86D
:101AE0000C006946094800F01DFA0122002132204D
:101AF000FFF7FEFC0121054800F060FA034800F002
:101B000031F8024800F006FA1FBD0000000C00404A
:101B10007FB505460C4640F20470FFF7B1FE104851
:101B200000F08AF9A8B2ADF8000002940020ADF8E8
:101B30000200ADF80400ADF806008DF80C0069460F
:101B4000074800F0EFF9012211463620FFF7D0FCDC
:101B50000121034800F032FA014800F0DBF97FBDB3
:101B600000100040016841F08001016070470000F2
:101B700010B531B101293FD002297DD003297CD194
:101B8000BFE0036A23F001030362836923F00303C8
:101B90008361036A148823430362036A23F0020308
:101BA0000362036A9488234303626A4B984202D01B
:101BB000694B98421FD1036A23F004030362036A4E
:101BC000548823430362036A23F008030362036A11
:101BD000D48823430362436823F4807343604368DB
:101BE000148923434360436823F4007343604368CC
:101BF000548923434360ABE0036A23F0100303627C
:101C0000836923F440738361036A148843EA0413ED
:101C10000362036A23F020030362036A948843EAA1
:101C2000041303624B4B984202D04B4B984226D18F
:101C3000036A23F040030362036A548843EA0413EF
:101C40000362036A23F080030362036AD48843EAD1
:101C500004130362436823F4806343604368148978
:101C600043EA84034360436823F4006343604368AA
:101C7000548943EA840301E002E068E0436067E0DE
:101C8000036A23F480730362C36923F00303C3610F
:101C9000036A148843EA04230362036A23F400738B
:101CA0000362036A948843EA04230362294B98423F
:101CB00002D0294B984223D1036A23F48063036244
:101CC000036A548843EA04230362036A23F400632B
:101CD0000362036AD48843EA04230362436823F45B
:101CE000805343604368148943EA041343604368A4
:101CF00023F4005343604368548943EA0413436068
:101D000026E0036A23F480530362C36923F440731B
:101D1000C361036A148843EA04330362036A23F449
:101D200000530362036A948843EA04330362094B55
:101D3000984202D0084B984208D1436823F480436C
:101D400043604368148943EA8413436000E000BFA2
:101D500000BF10BD002C01400034014031B1012909
:101D60000CD0022913D0032922D118E0836923F073
:101D7000700383618369134383611AE0836923F4E9
:101D8000E0438361836943EA0223836111E0C3690D
:101D900023F07003C361C3691343C36109E0C369DE
:101DA00023F4E043C361C36943EA0223C36100E053
:101DB00000BF00BF704731B1012906D0022906D00B
:101DC000032908D105E0426306E0826304E0C263B0
:101DD00002E0026400E000BF00BF704731B101299A
:101DE0000CD0022913D0032922D118E0836923F0F3
:101DF000080383618369134383611AE0836923F4D1
:101E000000638361836943EA0223836111E0C3694C
:101E100023F00803C361C3691343C36109E0C369C5
:101E200023F40063C361C36943EA0223C36100E092
:101E300000BF00BF7047000010B504463349601A68
:101E40008C4244D00CDCB4F1804F1CD0304820448C
:101E500010B3B0F5806F28D0B0F5006F52D12DE0EF
:101E6000B0F5806F3CD0B0F58E3F03D0B0F5923F17
:101E700048D13EE040F20B30FFF722FD40F20B303C
:101E8000FFF70EFD3FE04FF48060FFF719FD4FF4C0
:101E90008060FFF705FD36E040F20140FFF710FDDE
:101EA00040F20140FFF7FCFC2DE040F20240FFF75A
:101EB00007FD40F20240FFF7F3FC24E040F203404C
:101EC000FFF7FEFC40F20340FFF7EAFC1BE040F2A4
:101ED0000440FFF7F5FC40F20440FFF7E1FC12E09C
:101EE00040F20540FFF7ECFC40F20540FFF7D8FC5C
:101EF00009E040F20D30FFF7E3FC40F20D30FFF750
:101F0000CFFC00E000BF00BF10BD0000001000408B
:101F100000FCFFBF016841F0010101607047CA4346
:101F2000026170470A8882621D4A90420ED0B0F169
:101F3000804F0BD01B4A904208D01B4A904205D0DC
:101F40001A4A904202D01A4A90420BD1026822F0FB
:101F50007002026002684B881A43026002688B8834
:101F60001A4302608A68C262124A90420AD0124A38
:101F7000904207D0026822F4407202600268CB8867
:101F80001A430260064A904202D0094A904201D1A7
:101F90000A7B0263426942F001024261704700001D
:101FA000002C01400004004000080040000C0040EC
:101FB000003401400010004000140040C2680A4391
:101FC000C2607047CA43026170470246D06800EAA7
:101FD00001031069084010B10BB1012070470020C7
:101FE000FCE7000010B504462146054800F0F9F86A
:101FF00000BF0721024800F046F90028F9D010BDC3
:102000000048004070B505460E46002403E0285DF8
:10201000FFF7E8FF641CB442F9DB70BD10B504465D
:1020200040F20260FFF72CFC40F20E60FFF728FC44
:102030004FF40073032218211E48FFF73FF84FF4B6
:102040008063032204211B48FFF738F81A4800F088
:10205000CDF82146184800F077F80021164800F026
:1020600057F90021144800F073F90021124800F0DC
:102070005FF90421104800F053F908210E4800F0E0
:102080005FF940F205310C4800F00CF900221146CE
:102090002520FFF72DFA084800F0F0F840F2026022
:1020A000FFF7EEFB4FF48073032210210148FFF786
:1020B00005F810BD000801400038014010B5044685
:1020C00040F20360FFF7DCFB40F21270FFF7D8FB31
:1020D0004FF48063032218211948FEF7EFFF4FF4F5
:1020E0000063032204211648FEF7E8FF154800F0BC
:1020F0007DF82146134800F027F80021114800F030
:1021000007F900210F4800F023F900210D4800F0E5
:102110000FF904210B4800F003F90821094800F0E9
:102120000FF940F20531074800F0BCF800221146D3
:102130002720FFF7DDF9034800F0A0F810BD0000EC
:10214000000C0140004800402DE9F04704460D46D0
:102150000027B846B94600261D49601A8C421CD09B
:1021600006DC1C48204470B1B0F5806F1FD10FE031
:10217000B0F5806F16D0B0F56C4F18D10320FFF783
:10218000D3FA074614E00220FFF7CEFA07460FE025
:102190000220FFF7C9FA07460AE00220FFF7C4FA57
:1021A000074605E00220FFF7BFFA074600E000BF40
:1021B00000BF07EB5500B0FBF5F64FF6F07006EAEE
:1021C000000806F00F0948EA0900A060BDE8F087A2
:1021D000004C004000BCFFBF01464868C0F3080047
:1021E0007047C1F3080242607047000010B5044612
:1021F0002049601A8C4228D006DC1F48204490B148
:10220000B0F5806F33D117E0B0F5806F26D0B0F510
:102210006C4F2CD140F20E30FFF752FB40F20E30E3
:10222000FFF73EFB24E040F21140FFF749FB40F28C
:102230001140FFF735FB1BE040F21240FFF740FB77
:1022400040F21240FFF72CFB12E040F21340FFF780
:1022500037FB40F21340FFF723FB09E040F2144044
:10226000FFF72EFB40F21440FFF71AFB00E000BF1F
:1022700000BF10BD004C004000BCFFBFC16841F46E
:102280000051C160704710B5024602EB9110006822
:1022900001F01F040123A340184008B1012010BD24
:1022A0000020FCE710B500EB9112126801F01F044A
:1022B0000123A3401A4300EB91131A6010BD10B51F
:1022C00000EB91521268C1F304440123A3409A43E6
:1022D00000EB91531A6010BD70B502460023002434
:1022E000C1F38910105801F01F060125B54000EA1E
:1022F000050302EB91500068C1F304460125B54087
:1023000000EA050414B10BB1012070BD0020FCE708
:10231000C26822F4C062C260C2680A43C2607047E9
:102320000A460021C16821F004011143C1607047D1
:10233000026922F44052026102690A430261704755
:102340000A460021C16821F008011143C1607047AD
:10235000C26822F48052C260C2680A43C2607047F9
:1023600000C1814001C0804101C0804100C1814065
:1023700001C0804100C1814000C1814001C0804155
:1023800001C0804100C1814000C1814001C0804145
:1023900000C1814001C0804101C0804100C1814035
:1023A00001C0804100C1814000C1814001C0804125
:1023B00000C1814001C0804101C0804100C1814015
:1023C00000C1814001C0804101C0804100C1814005
:1023D00001C0804100C1814000C1814001C08041F5
:1023E00001C0804100C1814000C1814001C08041E5
:1023F00000C1814001C0804101C0804100C18140D5
:1024000000C1814001C0804101C0804100C18140C4
:1024100001C0804100C1814000C1814001C08041B4
:1024200000C1814001C0804101C0804100C18140A4
:1024300001C0804100C1814000C1814001C0804194
:1024400001C0804100C1814000C1814001C0804184
:1024500000C1814001C0804101C0804100C1814074
:1024600000C0C101C30302C2C60607C705C5C40434
:10247000CC0C0DCD0FCFCE0E0ACACB0BC90908C8A4
:10248000D81819D91BDBDA1A1EDEDF1FDD1D1CDC94
:1024900014D4D515D71716D6D21213D311D1D01004
:1024A000F03031F133F3F23236F6F737F53534F4F4
:1024B0003CFCFD3DFF3F3EFEFA3A3BFB39F9F83864
:1024C00028E8E929EB2B2AEAEE2E2FEF2DEDEC2C54
:1024D000E42425E527E7E62622E2E323E12120E0C4
:1024E000A06061A163A3A26266A6A767A56564A4B4
:1024F0006CACAD6DAF6F6EAEAA6A6BAB69A9A86824
:1025000078B8B979BB7B7ABABE7E7FBF7DBDBC7C13
:10251000B47475B577B7B67672B2B373B17170B083
:102520005090915193535292965657975595945473
:102530009C5C5D9D5F9F9E5E5A9A9B5B99595898E3
:10254000884849894B8B8A4A4E8E8F4F8D4D4C8CD3
:102550004484854587474686824243834181804043
:1025600080250008000000205000000044090008F9
:10257000D025000850000020080900005409000878
:10258000000000000006060606060606060606000F
:10259000000000000000000000000000000000003B
:1025A000000000000000000000000000000000002B
:1025B000000E2707000000000000000000000100DE
:1025C000000000000000000000000000000000000B
:0400000508000131BD
:00000001FF
