:020000040800F2
:100000001804002045010008570300084F030008AA
:10001000530300088D010008CD0400080000000013
:100020000000000000000000000000007D03000848
:10003000910100080000000059030008690400084D
:100040005F0100085F0100085F0100085F01000810
:100050005F0100085F0100085F0100085F01000800
:100060005F0100085F0100085F0100085F010008F0
:100070005F0100085F0100085F0100085F010008E0
:100080005F0100085F0100085F0100085F010008D0
:100090005F0100085F0100085F0100085F010008C0
:1000A0005F0100085F0100085F0100085F010008B0
:1000B0005F0100085F0100085F0100085F010008A0
:1000C0005F0100085F0100085F0100085F01000890
:1000D0005F0100085F0100085F0100085F01000880
:1000E0005F0100085F0100085F0100085F01000870
:1000F0005F0100085F0100085F0100085F01000860
:100100005F0100085F0100085F0100085F0100084F
:100110005F0100085F0100085F0100085F0100083F
:100120005F0100085F0100085F0100085F0100082F
:10013000DFF80CD000F018F800480047F104000880
:10014000180400200648804706480047FEE7FEE7FF
:10015000FEE7FEE7FEE7FEE7FEE7FEE7FEE7FEE777
:100160006D04000831010008064C074D06E0E06808
:1001700040F0010394E8070098471034AC42F6D3EE
:10018000FFF7DAFF7C0500089C05000800BFFEE7CA
:10019000704710B500F003F800F034F810BD10B54A
:1001A0000121042000F0DAF810BD000001466FF0D4
:1001B0007F424FF0E0235A6100229A6105221A61C2
:1001C00011E000224FF0E0239A610D4A12684FF4CB
:1001D0007A73B2FBF3F2C2F1807000BF4FF0E022FD
:1001E00092698242FAD80A1EA1F10101E9D14FF0C9
:1001F000E022126922F001024FF0E0231A617047F9
:100200000000002008B5E020ADF8000010208DF8B7
:10021000030003208DF802006946044800F008F846
:10022000E021024800F08FF808BD000000080140FE
:100230002DE9F0410246002500260020002300247D
:10024000002791F803C00CF00F0591F803C00CF0E3
:10025000100CBCF1000F03D091F802C04CEA050568
:1002600091F800C0BCF1000F31D0146800202BE0E1
:100270004FF0010C0CFA00F3B1F800C00CEA0306D1
:100280009E4220D183004FF00F0C0CFA03F7BC43C1
:1002900005FA03FC4CEA040491F803C0BCF1280FF2
:1002A00006D14FF0010C0CFA00FCC2F814C00AE0B1
:1002B00091F803C0BCF1480F05D14FF0010C0CFAC6
:1002C00000FCC2F810C0401C0828D1D31460B1F85B
:1002D00000C0BCF1FF0F34DD546800202EE000F1B7
:1002E000080C4FF0010808FA0CF3B1F800C00CEA52
:1002F00003069E4221D183004FF00F0C0CFA03F746
:10030000BC4305FA03FC4CEA040491F803C0BCF1B9
:10031000280F05D100F1080C08FA0CF8C2F8148077
:1003200091F803C0BCF1480F07D100F1080C4FF061
:10033000010808FA0CF8C2F81080401C0828CED337
:100340005460BDE8F081416170470161704700BFB2
:10035000FEE700BFFEE770477047000029B1064A7C
:1003600092690243044B9A6104E0034A9269824312
:10037000014B9A617047000000100240704710B5B1
:1003800000F002F810BD00000CB5002001900090B4
:100390003348006840F480303149086000BF30487D
:1003A000006800F4003000900198401C0190009813
:1003B00018B90198B0F5A06FF1D12948006800F490
:1003C000003010B10120009001E000200090009862
:1003D000012843D12348006840F0100021490860FB
:1003E0000846006820F0030008600846006840F0F6
:1003F000020008601A484068194948600846406889
:1004000048600846406840F480604860084640689C
:1004100020F47C1048600846406840F4E8104860CA
:100420000846006840F08070086000BF0C48006813
:1004300000F000700028F9D00948406820F003005F
:10044000074948600846406840F00200486000BF25
:100450000348406800F00C000828F9D10CBD0000EA
:1004600000100240002002407047000010B5134801
:10047000006840F0010011490860084640681049D2
:1004800008400E494860084600680E4908400B497C
:1004900008600846006820F480200860084640682C
:1004A00020F4FE0048604FF41F008860FFF767FFEC
:1004B0004FF000600449086010BD000000100240C9
:1004C0000000FFF8FFFFF6FE08ED00E000BFFEE7CA
:1004D00002E008C8121F08C1002AFAD1704770470D
:1004E000002001E001C1121F002AFBD1704700006B
:1004F0000EB50020029001900090FFF74AFE4FF4E5
:100500009660FFF753FE35E04FF44860019000BF5E
:100510000198411E01910028FAD11748006880F027
:100520004000154908609DF8000018B10298401E6F
:10053000029002E00298401C02900298B0F5C85F59
:100540000BDB4FF47A70FFF731FE80210A480C383C
:10055000FFF7FBFE012000900CE0029850B94FF429
:100560007A70FFF723FE802103480C38FFF7EBFE7B
:1005700000200090C8E700000C0801409C0500081E
:100580000000002014000000D0040008B00500089E
:100590001400002004040000E004000800A24A0443
:1005A0000000000000000000010203040607080923
:0400000508000131BD
:00000001FF
