:020000040800F2
:100000003012002095010008990100089B010008AA
:100010009D0100089F010008A101000800000000E8
:10002000000000000000000000000000A301000824
:10003000A501000800000000A7010008A9010008B0
:10004000AB010008AB010008AB010008AB010008E0
:10005000AB010008AB010008AB010008AB010008D0
:10006000AB010008AB010008AB010008AB010008C0
:10007000AB010008AB010008AB010008AB010008B0
:10008000AB010008AB010008AB010008AB010008A0
:10009000AB010008AB010008AB010008AB01000890
:1000A000AB010008AB010008AB010008AB01000880
:1000B000FD0B00087F0C0008AB010008AB01000835
:1000C000AB010008AB010008AB010008AB01000860
:1000D000AB010008750E0008AB010008AB01000879
:1000E000AB010008AB010008AB01000800F002F80A
:1000F00000F03AF80AA090E8000C82448344AAF188
:100100000107DA4501D100F02FF8AFF2090EBAE885
:100110000F0013F0010F18BFFB1A43F0010318473B
:100120003830000058300000103A24BF78C878C139
:10013000FAD8520724BF30C830C144BF04680C60ED
:10014000704700000023002400250026103A28BF35
:1001500078C1FBD8520728BF30C148BF0B60704739
:100160001FB51FBD10B510BD02F0C6F91146FFF74F
:10017000F7FF00F02BF802F0E4F903B4FFF7F2FF09
:1001800003BC02F0EBF9000030BF72B662B680F338
:100190000888704708480047FEE7FEE7FEE7FEE7ED
:1001A000FEE7FEE7FEE7FEE7FEE7FEE70348044959
:1001B000044A054B70470000ED000008300C002099
:1001C00030120020300E0020300E00208AB00A24A9
:1001D000092000F01DFA482000F0C6F800F07AFA75
:1001E00000F0C7FD41F61F4142F20F7000F058FDCC
:1001F000012000F07AFD01F01DFA01F00DFB40F640
:10020000B830002105910691CDE9071001200C229C
:10021000CDE90102CDE903100B2002230A46162185
:100220000090012001F0FDFA434801F06CFA002033
:1002300001F077FB01F047F97CE001F0F5FB3F4965
:1002400008700846007800F0020002282ED14FF610
:10025000FF7001F0FFFB002001F063FB0A22384928
:10026000384801F054FB36480078F8B13548C0787A
:1002700035490988884219D1012034490870344928
:100280000860322000F0A8F800203249C1F8A4012B
:100290004FF4967000F0A0F801202D49086032203C
:1002A00000F09AF800202B49C1F8A4012A480078F0
:1002B00010B30020284908704FF4FA71022000F0B2
:1002C000B7FA264908804FF4FA71012000F0B0FA1D
:1002D000234908801C480078224948701F4800883C
:1002E000001288701D480078C8701D4800880012F0
:1002F00008711B480078487100F036FE13480078FA
:10030000012817D101F069FE00222146154801F0AD
:10031000DCFA01F062FE002001F003FB01200C4931
:100320000860322000F058F800200A49C1F8A40102
:100330000649087081E70000400ECF190100002037
:10034000000000206C0000201C00002002000020A3
:10035000A4812142008021421200002036000020AA
:10036000380000208A0300204FF0E021096921F0C5
:1003700004014FF0E0221161C21700EB5272C2F388
:10038000C702234B1A701946097801EB4102C2EBF0
:10039000C1114FF6FF7202EAC1011E4A1180704777
:1003A00001461B4A12784A434FF0E0235A6100226B
:1003B0009A6101221A6100BF4FF0E022106900F03B
:1003C00001021AB100F48032002AF5D000224FF069
:1003D000E0231A619A61704701460E4A12884A4327
:1003E0004FF0E0235A6100229A6101221A6100BF96
:1003F0004FF0E022106900F001021AB100F48032DF
:10040000002AF5D000224FF0E0231A619A6170476C
:100410000E00002010000020A34A0A400243A34B14
:100420001A6070470146072323EA010212029F4B1C
:100430001B1D18684FF6FF0318409D4B18431043CF
:100440009A4B1B1D186070472DE9F04107468846FE
:1004500014461D462846FFF7E5FFC5F1040007FADC
:1004600000F60F20284100EA0800064306F00F06B8
:10047000E21704EBD2625211920002F1E022D2F8AC
:1004800000212146E31704EBD3635B11A4EB431C6B
:10049000012303FA0CF31A432046E31704EBD3635A
:1004A0005B119B0003F1E023C3F800218148005D4C
:1004B00040EA06107F490855BDE8F08170B5044652
:1004C0000B46CE1701EB9676C6F38700CE1701EBED
:1004D0009676B610A1EB8606B606350E764B9B696E
:1004E00043F00103744EB3614FEAB63353F8203042
:1004F0000F26AE40B343714E46F82030334653F8D2
:10050000203004FA05F61E436C4B43F8206002F0DD
:10051000010333B16A4B1B6801268E403343684E9A
:10052000336002F0020343B1654B1B1F1E680123B9
:100530008B401E43624B1B1F1E6070BD00B5002028
:100540005D490861C8601420486100208861C86165
:100550000846006840F001000860084640685949B4
:1005600008405549486008460068574908405249C4
:1005700008600846006820F480200860084640684B
:1005800020F4FE0048600020886000214FF00060E9
:10059000FFF742FF00BD10B544480830006840F046
:1005A00004004249083108604348C06940F0805067
:1005B0004149C8614548406840F4807043494860FB
:1005C0000846006840F0040008600846006840F0F3
:1005D00002000860FFF7D8FD10BD3548001D334903
:1005E000091D0860704701464906334A926942F086
:1005F0000102314B9A61314A083A526822F0E062B6
:100600002E4B083B5A601A4652680A435A6070479C
:1006100030B504460025FFF791FF2748006840F4F5
:1006200080302549086000BF23480068400C00283E
:10063000FAD04FF4806020494860A01EC4B208463A
:10064000406840EA844048600846406840F4003012
:1006500048600846406840F4803048601C480068A4
:1006600040F032001A4908601348006840F080707A
:100670001149086000BF10480068400E0028FAD0F9
:100680000D48406840F002000B49486005E00A4808
:100690004068C0F3870505F00305022DF7D101205E
:1006A000FFF7A1FF30BD000080FFFF1F08ED00E055
:1006B0000000FA0500E400E00010024008000140DC
:1006C0000C0401400000FFF8FFFFF6FE0070004040
:1006D000002002406248806940F00400604988615F
:1006E0006048006820F47F605E4908605C4880696B
:1006F00040F400705A4988610846C06840F40070B0
:10070000C8600846C06820F40070C86008464068A9
:1007100020F4404048600846406840F4004048608B
:1007200051480068514908404F4908600846006830
:1007300008600846006820F480700860081D0068A2
:1007400020F00200091D08600846006820F46020BF
:1007500008600846006840F46020086008460068A9
:1007600040F4801008600846006820F400600860CB
:100770003D482830006820F470003B49283108606B
:1007800008460068086038480C30006820F03800DF
:1007900035490C3108600846006840F038000860B0
:1007A0003148001D006840F001002F49091D086014
:1007B0000846006840F00800086000BF2A48001D95
:1007C000006800F008000028F8D12748001D0068E4
:1007D00040F004002449091D086000BF2248001DA4
:1007E000006800F004000028F8D1704701461E4858
:1007F0003030006820F01F001B4A30321060104675
:100800000068084310601848001D006840F480002C
:10081000154A121D106000BF1348001F006800F049
:1008200002000028F8D010484830006880B27047B5
:100830002DE9F04107460C460025002608E0384621
:10084000FFF7D4FF05440120FFF7C6FD701C86B2F8
:10085000A642F4DBB5FBF4F5A8B2BDE8F0810000D8
:10086000001002400008014004240140FFFFF00096
:100870002DE9F05F05460E46300102F0A7F98146EA
:10088000D64905FB01F002F0A1F98246494602F083
:10089000BBF80746384602F079F984B2204602F0E8
:1008A00095F98346394602F071FA82464FF083414A
:1008B00002F0A0F9814602F069F980464FF6FF7018
:1008C00000EA041404EB080084B2C548806940F0D3
:1008D0000400C34988610846806940F4804088610B
:1008E000C048006820F47F60BE4908600846006880
:1008F00040F40B600860BA48C06840F48040B849D2
:10090000C8600846C06820F48040C860B6480480CB
:10091000001D008842F20C010843B349091D0880FC
:100920000846008840F4807008800846008840F03F
:10093000200008800223252200210846FFF784FDBD
:10094000BDE8F09F2DE9F05F05460E46300102F04C
:100950003DF98146A14905FB01F002F037F98246D5
:10096000494602F051F80746384602F00FF984B2C2
:10097000204602F02BF98346394602F007FA8246F8
:100980004FF0834102F036F9814602F0FFF88046CD
:100990004FF6FF7000EA041404EB080084B290489C
:1009A000806940F004008E4988610846C06940F4BF
:1009B0000030C8618B48001F006820F47F408949DF
:1009C000091F08600846006840F40B40086084482E
:1009D000006940F40030824908610846006920F44B
:1009E0000030086181480480001D008842F20C013B
:1009F00008437E49091D08800846008840F480703D
:100A000008800846008840F0200008800223262243
:100A100019460120FFF718FDBDE8F09F2DE9F05FB2
:100A200005460E46300102F0D1F881466B4905FBC0
:100A300001F002F0CBF88246494601F0E5FF074697
:100A4000384602F0A3F884B2204602F0BFF883468D
:100A5000394602F09BF982464FF0834102F0CAF812
:100A6000814602F093F880464FF6FF7000EA0414C6
:100A700004EB080084B25A48806940F008005849E5
:100A800088610846C06940F48020C8615848006801
:100A900020F47F40564908600846006840F40B4047
:100AA00008604F48006940F480204D4908610846BD
:100AB000006920F4802008614E480480001D0088F1
:100AC00042F20C0108434B49091D08800846008882
:100AD00040F4807008800846008840F020000880BC
:100AE0000123272219461846FFF7AEFCBDE8F09F08
:100AF00010B5044600F0BAF93B48001F048000BF5F
:100B000039480838008800F040000028F8D000F08C
:100B1000A9F910BD10B5044603E014F8010BFFF766
:100B2000E7FF20780028F8D110BD10B5044600F08A
:100B30009DF92E48001F048000BF2C48083800880B
:100B400000F040000028F8D000F08CF910BD10B57E
:100B5000044603E014F8010BFFF7E7FF20780028B4
:100B6000F8D110BD2349091F088000BF2149083969
:100B7000098801F040010029F8D01E490839098888
:100B800001F040011B4A083A1180704700B5034646
:100B900003E013F8010BFFF7E5FF18780028F8D100
:100BA00000BD704770471449888000BF124909880A
:100BB00001F040010029F9D00F49098801F04001F6
:100BC0000D4A1180704700B5034603E013F8010B8E
:100BD000FFF7E9FF18780028F8D100BD40420F0068
:100BE0000010024004080140083801400844004059
:100BF000040C014008480040005000404FF0804085
:100C0000008A00F0010050B1414890F8010130B174
:100C10003F4890F80101401C3D4981F801014FF027
:100C20008040008A20F001004FF080410882704728
:100C300070B505460C463748C06940F0010035499B
:100C4000C861880485850485808940F00100890495
:100C500088810846008820F0100008800846008837
:100C600040F0010008800846008840F00400088039
:100C700002231C2219460120FFF7E6FB70BD26481F
:100C8000008800F0010020B124480078401C23496E
:100C900008702148008820F001001F490880704733
:100CA00070B505460C461B48C06940F00200194962
:100CB000C86119481C300580001F04801648001FB9
:100CC000008840F001001449091F088012481038BC
:100CD000008820F0010010491039088002231D22ED
:100CE00019460320FFF7B0FB70BD40B90A4910391F
:100CF000098821F00101084A103A118007E00649ED
:100D00001039098841F00101034A103A11807047F7
:100D10007A01002000100240100400401200002060
:100D2000002006E00022A8490A54A8490A54411CA0
:100D300088B2FA28F6DB002004E00021A44A11540E
:100D4000411C88B20828F8DB00219F4A083A11703C
:100D5000517051809180D180A2F802119B4A921F5C
:100D6000117051705180918082F8001182F8011148
:100D7000704710B54FF416514820FFF779FD95489C
:100D8000806940F00400934988619348006820F02E
:100D90000F00914908600846006840F003000860B1
:100DA00041F61F416320FFF743FFFFF7B9FF10BD76
:100DB0008648801FC079062801D1FF207047002097
:100DC000FCE78248801FC079032801D1FF207047CB
:100DD0000020FCE77D48801FC079102801D1FF204A
:100DE00070470020FCE710B5024601237B4C2360CE
:100DF00000200CE000BF7A4B1B8803F04003002B5F
:100E0000F9D0135C764C241D2380431CD8B2884251
:100E1000F0DB00BF724B1B8803F04003002BF9D0BE
:100E200000236E4C236010BD00B5674808388179F7
:100E30000830FFF7D8FF00206449891F81F80001BE
:100E400081F8010100BD00B55F480838817908309C
:100E5000FFF7C9FF00205D49891F81F8000181F873
:100E6000010100BD00205D490860704701205B4919
:100E7000086070475A49098801F02001F9B15849C2
:100E8000091D0988C8B25149891F91F80011FA2932
:100E900015DA4E49891F91F80021891D8854891F50
:100EA00091F800114F4A50540121484A921F82F88C
:100EB0000111114691F80011491C82F80011704788
:100EC00070B502460C46FF25FF2309E012F8010B1E
:100ED00080EA05014448405C80EA03054348435CDE
:100EE000201EA4F10106B4B2F0D143EA052070BD82
:100EF00070B53C48C0783B49897840EA01254DB936
:100F0000384840793749097940EA0124204600F001
:100F1000F9FA00E000BF00BF70BD10B5FC202A49FF
:100F20000839087203212848083841720221817269
:100F30002F480088011224480838C1722C480178D3
:100F400021480838017305210830FFF7B9FF04462E
:100F500021121D4808384173847307201A49083943
:100F6000C880FFF761FF10BD10B51848801F90F8CA
:100F7000000100B910BD1548801F90F8010102283A
:100F800000DCF7E71148801F90F80101032819DB06
:100F900014480078FC280ED112484078032802D06B
:100FA000062806D102E0FFF7B8FF03E0FFF7A0FF35
:100FB00000E000BF00BF00200449891F81F8000144
:100FC00081F8010100BFD5E77E00002080010020EC
:100FD000140000200010024004080140A00121423A
:100FE000003801407C0200208A2E00088A2F000869
:100FF0001C000020F548F6494860F64848607047F4
:10100000F348006940F08000F14908617047F048FA
:10101000C16801F0010008B10120704701F004002F
:1010200008B10220F9E701F0100008B10320F4E74D
:101030000020F2E770B5044600BFFFF7E8FF054661
:10104000012D00D006E00120FFF7AAF9601E84B24E
:10105000002CF2D100BF04B9FF25284670BD70B541
:101060000546002445F6FF70FFF7E4FF0446C4B9C7
:10107000D748006940F00200D5490861084645613B
:10108000006940F04000086145F6FF70FFF7D2FFAD
:101090000446012C05D0CE48006920F00200CC495E
:1010A0000861204670BD70B505460E46FF20FFF76B
:1010B000C1FF044694B9C648006940F00100C44924
:1010C00008612E80FF20FFF7B5FF0446012C05D0F4
:1010D000BF48006920F00100BD490861204670BD8D
:1010E0000146088870472DE9F04105460E4617462F
:1010F000002407E036F814102846FFF7D4FFAD1C93
:10110000601C84B2BC42F5DBBDE8F08130B503461B
:101110000C461546002207E01846FFF7E1FF24F8C9
:1011200012009B1C501C82B2AA42F5DB30BD2DE997
:10113000F05F80468A461746B8F1006F02D3A64892
:10114000804501D3BDE8F09FFFF754FFA8F1006B85
:101150004FEADB25CBF34909C9F58064A74200DCDF
:101160003C464EE04FF0006101EBC5204A149B491C
:10117000FFF7CCFF00260BE009EB0600974931F89A
:1011800010004FF6FF71884200D003E0701C86B259
:10119000A642F1DB00BFA6421BDA4FF0006101EB73
:1011A000C520FFF75CFF002608E03AF8160006EBC2
:1011B00009018A4A22F81100701C86B2A642F4DBAB
:1011C0004FF0006101EBC5204A148449FFF78BFF03
:1011D00004E0224651464046FFF785FFA74200D172
:1011E00010E06D1C4FF000090AEB440A08EB4408BC
:1011F000381B87B2B7F5806F02DD4FF4806400E0E2
:101200003C46AFE700BFFFF7FBFE00BF9AE713B510
:101210000446012201A92046FFF789FF1CBD08B53D
:10122000012269466E48FFF771FFBDF800004FF6D6
:10123000FF71884203D0BDF800006A49088008BDEC
:1012400008B5012269466648801CFFF75FFFBDF8BC
:1012500000006549088008BD08B50122694660485C
:10126000001DFFF753FFBDF800006049088008BD6E
:1012700008B5012269465A48801DFFF747FFBDF8AF
:1012800000005B49088008BD08B501226946544842
:101290000830FFF73BFFBDF800005649088008BD45
:1012A00008B5012269464E480A30FFF72FFFBDF806
:1012B00000005149088008BD08B501226946484828
:1012C0000C30FFF723FFBDF800004C49088008BD33
:1012D00008B50122694642480E30FFF717FFBDF8F6
:1012E00000004749088008BD08B5012269463C480E
:1012F0001030FFF70BFFBDF800004249088008BD21
:1013000008B50122694636481230FFF7FFFEBDF8E6
:1013100000003D49088008BD08B5012269463048F3
:101320001430FFF7F3FEBDF800003849088008BD0F
:1013300008B5012269462A481630FFF7E7FEBDF8D6
:1013400000003349088008BD08B5012269462448D9
:101350001830FFF7DBFEBDF800002E49088008BDFD
:1013600008B5204800880090012269461C48FFF714
:10137000DEFE08BD08B51C480088009001226946C1
:101380001748801CFFF7D3FE08BD08B51748008832
:101390000090012269461248001DFFF7C8FE08BDF3
:1013A00008B5134800880090012269460C48801D4A
:1013B000FFF7BDFE08BD08B50E4800880090012269
:1013C000694607480830FFF7B2FE08BD23016745AC
:1013D00000200240AB89EFCD0000080894030020F4
:1013E000000001081C0000201E000020200000203A
:1013F00022000020240000202600002028000020D9
:101400002A0000202C0000202E00002030000020A8
:10141000320000203400002008B52F4800880090DA
:10142000012269462D48FFF782FE08BD08B52C4809
:1014300000880090012269462848801CFFF777FE4B
:1014400008BD08B527480088009001226946234856
:10145000001DFFF76CFE08BD08B52348008800900A
:10146000012269461D48801DFFF761FE08BD08B5D1
:101470001E48008800900122694618480830FFF78E
:1014800056FE08BD08B51A4800880090012269463A
:1014900012480A30FFF74BFE08BD08B51548008812
:1014A0000090012269460D480C30FFF740FE08BD50
:1014B00008B51148008800900122694607480E309F
:1014C000FFF735FE08BD00B5FFF7A9FE0B48007811
:1014D0000B49087000BD0000260000200A0001082A
:1014E000280000202A0000202C0000202E000020D0
:1014F0003000002032000020340000201C000020BA
:101500008A03002010B50446164804800078164966
:101510000870FFF725FF10BD10B50446134804807E
:10152000007811494870FFF725FF10BD10B504463B
:10153000E0B20F490880084600780B490870FFF7B1
:1015400024FF10BD10B504460A480480FFF728FFA9
:1015500010BD7047704770477047704770477047BD
:10156000704770471C0000208A0300201E000020E6
:1015700020000020220000202548806940F004005F
:10158000234988612348006880B2224908600846E0
:101590000068214908431F4908607047704770B5CB
:1015A0000446002521E004F0800018B101201B4909
:1015B000086002E00020194908606006040E41201E
:1015C000FEF7EEFE01201549083908601448D0F8EE
:1015D000180108B144F001044120FEF7E1FE0020AB
:1015E0000E4908390860681CC5B2082DDBDB2046AF
:1015F00070BD70B50446002506E03C20FEF7D0FE25
:101600006006040E681CC5B2082DF6DB70BD000034
:1016100000100240000801400000333B9C012142C1
:101620000000214210B500F07CFA10BD10B500F0AA
:1016300080FA10BD10B500F0B4FB002000F0A0FB54
:10164000012000F031FD0021084600F09DFE04213C
:10165000002000F00CFE00231A464FF6FF710846EA
:1016600000F08DFD10BD10B500F092FA032808D0EF
:10167000042802D0052806D101E0022010BD012077
:10168000FCE70320FAE70020F8E710B50446012044
:1016900000F0E2FD012C0AD134214FF4E86000F0A3
:1016A000EDFA442140F2417000F0E8FA09E014211B
:1016B0004FF4E86000F0E2FA242140F2417000F0BB
:1016C000DDFA10BD10B5044614B1012C01D000BFE5
:1016D00010E0012000F0C0FDEB484078EA490978AD
:1016E000884206D0E8480078E74948704878FFF714
:1016F000CCFF00BF00BF10BD10B50446022160B290
:1017000000F0B5FD10BD10B50446204600F078FD90
:1017100010BD30B50446012030BD08B50020009052
:101720009DF8000020F00400001D0090009800F0DB
:1017300044FC0220FEF750FE08BD70B500250120D4
:1017400000F08AFD002000F004FC00240AE00120E3
:10175000FEF742FE00F034FE00F00100A040054319
:10176000601CC4B2202CF2DBFFF7D7FF284670BD07
:101770002DE9F05F0D4614461E46DDF848B0DDF851
:101780003CA0DDE90C890B9FC04913980870FF202D
:10179000BF490870002000F079FC08F0FF0000F05D
:1017A0007CFC0120BB4981F82800084680F83840BD
:1017B000B948415DB74880F8391080F83A601DB9E2
:1017C0000B2C05D00C2C03D0012D06D10C2C04D1F0
:1017D0000121B04880F83B1003E00021AD4880F8BB
:1017E0003B100120AB4908700846878180F80E90B5
:1017F000A7480178A748C17380F810A080F811B0FD
:101800000120FFF75FFFA348283000F049FDA14801
:1018100000F05DFDBDE8F09F10B5002000F0B0FACB
:1018200010BD2DE9F05F0E461C46DDF844B00AAD50
:1018300095E8A007002000F029FC002000F02DFC16
:101840000120944981F82800084680F838509248D1
:10185000015D904880F8391080F83A701CB90B2D62
:1018600005D00C2D03D0012C06D10C2D04D1012163
:10187000884880F83B1003E00021864880F83B1040
:101880000120844908700846A0F80C8080F80E906A
:101890007F4801787F48C17380F810A080F811B0AC
:1018A000FFF7BAFF0120FFF70DFF7A48283000F05C
:1018B000F7FC784800F00BFD0221304600F0D7FC21
:1018C000BDE8F09F02460020704770B505460C4603
:1018D000164601207149086000207149C1F8B40121
:1018E0009620FEF779FD00231A4640F201210846B2
:1018F00000F045FC6748C47300F0E9FC324621461D
:10190000284600F0B3FA9620FEF766FD70BD70B56C
:1019100004460D46164632462946204600F07BFA1C
:1019200070BD10B5044600205C49086001205C4988
:10193000C1F8B40100231A4640F20221084600F023
:101940001EFC002000F005FB10BD10B504464F48FA
:101950000078012804D16FF07F4000F048FB02E0DE
:10196000A00100F044FB4F48046010BD70B5044670
:101970000D462946204600F053FB70BD10B50120EE
:101980004649091D086000204549C1F8B0010023FF
:101990001A464FF4C071084600F0F1FB00F05EFB00
:1019A00010BD2DE9F84304460D4616461F46DDF8E6
:1019B00020803B46324629462046CDF8008000F084
:1019C000A5FCBDE8F88310B50446A00100F03AFA82
:1019D0003548046010BD70B505460C4616462846CD
:1019E00000F00EFC0221204600F041FC00F040FB1C
:1019F00070BD10B500F0E4FC10BD70B505460C4696
:101A0000012D06D1224804702248C47300F05FFC07
:101A100009E02048C079012805D11D4804701D48FF
:101A2000047200F054FC70BD10B500F0BFFB10BD97
:101A300010B50446204600F0D3FC10BD08B500F0F8
:101A40000BFD0090BDF80010084608BD10B500F071
:101A50000DFD10BD10B50446204600F010FD10BD70
:101A6000012012490870704710B504460948848166
:101A7000002000F085F9074800F029FC10BD10B5E2
:101A80000346002010BD000050000020520000203E
:101A900054000020940B002090300008B0812142B7
:101AA000008021425C0000205800002053000020EC
:101AB000F948806940F00400F7498861F7480068F8
:101AC00080B2F649086008460068F5490843F349C2
:101AD0000860F148806940F00400EF498861EF48F0
:101AE000001D0068ED49091D08600846006840F0C7
:101AF00003000860E848806940F00800E649886112
:101B0000E84800686FF31300E6490860084600687B
:101B1000E5490843E34908600120E449086070474B
:101B200070470020E1490C310860E149C1F8B40177
:101B3000704700B5FFF7F4FF00BD10B50A20FEF7AF
:101B40004BFC0020D949091D08601420FEF744FC15
:101B50000120D749C1F8A8010A20FEF73DFC10BDBD
:101B600000BFD248083000680028FAD1704710B58D
:101B70000020D0490860C020FFF711FD0020FFF7CA
:101B80000EFD0120CC49C1F89001FFF7E9FF10BD1F
:101B9000CA480078704710B5FFF7FAFF18B1FFF791
:101BA000F7FF062801D1FFF7E2FFFFF7D9FF10BDCD
:101BB0002DE9F04105460E4617460024FFF7EBFFDE
:101BC0000020BC4908602846FFF7E9FC00BF04E09C
:101BD000305DFFF7E4FC601C84B2BC42F8DB0120FE
:101BE000B4490860842D01D0FFF7BAFFBDE8F08149
:101BF0002DE9F04107460D4616460024FFF7CBFFBE
:101C00000020AC4908603846FFF7C9FC0020FFF708
:101C1000C6FC00BF05E00020FFF7C1FC2855601C92
:101C200084B2B442F7DB0120A2490860FFF798FFB5
:101C3000BDE8F0812DE9F04104460E461746002527
:101C4000FFF7A9FF00209B4908600D20FFF7A7FCC4
:101C5000200AFFF7A4FCE0B2FFF7A1FC00BF04E0FC
:101C6000705DFFF79CFC681C85B2BD42F8DB01206B
:101C700090490860FFF774FFBDE8F08113B5044692
:101C8000012201A92046FFF7D5FF1CBD2DE9F04137
:101C900004460E4617460025FFF77DFF00208549C4
:101CA00008601D20FFF77BFC200AFFF778FCE0B2FC
:101CB000FFF775FC0020FFF772FC00BF05E0002075
:101CC000FFF76DFC7055681C85B2BD42F7DB012043
:101CD00078490860FFF744FFBDE8F08138B5044655
:101CE000012269462046FFF7D1FF9DF8000038BD6C
:101CF0002DE9F04107460D4616460024FFF74BFF3D
:101D000000206C4908600E20FFF749FC3846FFF7B9
:101D100046FC00BF04E0285DFFF741FC601C84B274
:101D2000B442F8DB012063490860FFF719FFBDE802
:101D3000F0812DE9F04107460D4616460024FFF7D5
:101D40002AFF00205B4908601E20FFF728FC384668
:101D5000FFF725FC0020FFF722FC00BF05E0002074
:101D6000FFF71DFC2855601C84B2B442F7DB01204C
:101D700050490860FFF7F4FEBDE8F081022070478B
:101D800001B5012269468020FFF712FF9DF800008F
:101D900018B901204949087002E00220474908703B
:101DA00008BD10B5FFF784FEFFF7C7FEFFF7B8FECA
:101DB000FFF7DDFE0020FFF7E3FF10BD70B504461E
:101DC0000D462A4621460020FFF792FF70BD3C4891
:101DD0000078704738B504460D4602226946132044
:101DE000FFF706FFFFF7F3FF01280DD140F2047063
:101DF000FFF774FF0121B1EBE01F05D140F2027043
:101E0000FFF76CFF207002E09DF8000020709DF845
:101E10000100287038BDF8B505460C46164600206E
:101E2000009069462046FFF7D5FF2078B04201DDDB
:101E30000120F8BD227829469DF80000FFF779FFC0
:101E40000020F6E738B5044604201C490870200C31
:101E50008DF80000200A8DF80100E0B28DF8020034
:101E6000032269468320FFF7A3FE38BD70B50546FF
:101E70000E46144631462846FFF7A0FF2046FFF7DE
:101E8000E1FF70BD10B50446082221464FF4D8602A
:101E9000FFF7D0FE002010BD0010024000080140F6
:101EA00000003338040C014033380300A481214280
:101EB0000080214290012142000021426000002068
:101EC0006100002038B50446200A8DF80000E0B219
:101ED0008DF80100FFF77BFF30B90222694640F21E
:101EE000BC60FFF7A7FE00E000BF00BF38BD38B5FB
:101EF0000446200A8DF80000E0B28DF80100FFF7DB
:101F000066FF30B90222694640F2BE60FFF792FEDA
:101F100000E000BF00BF38BD70B504460025FFF7E4
:101F200056FF98B94FF4D760FFF7D8FE00F0FE05D2
:101F3000C4F30020054329464FF4D760FFF79EFE07
:101F4000E1B240F2B960FFF799FE00E000BF00BFC8
:101F500070BD38B504460520FD490870200C8DF889
:101F60000000200A8DF80100E0B28DF80200032283
:101F700069468220FFF71CFE38BD08B5002000909E
:101F8000FFF7E7FF0120FEF727FA0422694640F633
:101F90001900FFF77BFE0020FFF7F2FE9DF800001E
:101FA00000069DF8011040EA01409DF8021040EA49
:101FB00001209DF80310084308BD01B50020E54944
:101FC0000860E549C1F8B001012269468420FFF7A5
:101FD000EFFD0020DE49087008BD10B50022114653
:101FE000C120FFF7E5FD0320D949087010BD38B5C1
:101FF00004460520D6490870962140F6AC00FFF74C
:102000003DFE200C8DF80000200A8DF80100E0B2A2
:102010008DF80200032269468220FFF7C9FD38BD12
:102020007CB505460C46280C8DF80000280A8DF872
:102030000100E8B28DF80200200C8DF80300200AA0
:102040008DF80400E0B28DF8050006226946942060
:10205000FFF7AEFD0620BE4908707CBD10B500221A
:102060001146C520FFF7A4FD0720B949087010BD2F
:1020700010B500221146D120FFF79AFD10BD10B512
:1020800000221146D220FFF793FD10BD01B50122B9
:1020900069469F20FFF78CFD08BD01B50122694606
:1020A000A020FFF785FD08BD01B5012269469620F5
:1020B000FFF77EFD08BD01B5012269468920FFF7C3
:1020C00077FD08BD38B50446A448844206D9E1200E
:1020D0008DF80000E9208DF8010030E0A04884422E
:1020E00006D9D7208DF80000D8208DF8010026E011
:1020F0009C48844206D9C1208DF80000C5208DF887
:1021000001001CE09848844206D975208DF8000033
:1021100081208DF8010012E09448844206D96B209A
:102120008DF800006F208DF8010008E0904884428F
:1021300005D337208DF8000041208DF801000222E0
:1021400069469820FFF734FD38BDF8B504460D46C2
:1021500016461F468DF800408DF801508DF802603C
:102160008DF80370042269469520FFF721FDF8BD24
:1021700001B5012269469320FFF71AFD08BD2DE93C
:10218000FC4104460D4616461F467AA103C9CDE917
:102190000001E0B28DF80100E0B28DF803000822E2
:1021A00069461046FFF704FDBDE8FC8108B5022230
:1021B00069461220FFF71CFD9DF801009DF80010F4
:1021C00040EA012008BD01B5012269469D20FFF7C4
:1021D000EFFC08BD38B505460C4605F007008DF844
:1021E0000000200C8DF80100200A8DF80200E0B2FA
:1021F0008DF80300042269469720FFF7D9FC38BD0B
:102200002DE9F843814600245C48007828B9484607
:10221000FFF758FF012059490870484600F02BFB92
:1022200007460022564B00F0A1F9054600F0F6FAE9
:102230000446200E8DF80000200C8DF80100200AC5
:102240008DF80200E0B28DF8030004226946862072
:10225000FFF7AEFCBDE8F88301B59DF800004949E1
:102260000870012269468A20FFF7A2FC08BD38B534
:1022700005460C460123002207210420FFF765FFD5
:10228000382140F6E700FFF7F9FCE8B28DF80000CE
:102290008DF80140022269468E20FFF789FC38BD87
:1022A00038B50446042500200090207C8DF80000FD
:1022B000607C8DF80100A07C8DF80200E07C8DF838
:1022C00003002A4669468B20FFF772FC38BD7CB5B7
:1022D00004460625002000900190A089000A8DF890
:1022E0000000207B8DF80100A07B8DF80200E07BD0
:1022F0008DF80300207C8DF80400607C8DF80500CB
:102300002A4669468C20FFF753FC7CBD2DE9FC4131
:1023100005460E4690461F46089C8DF800508DF8E5
:1023200001608DF802808DF80370200C8DF8040098
:10233000200A8DF80500E0B28DF8060005226946F6
:102340008820FFF735FC072001490870BDE8FC81B3
:1023500060000020B48121420080214200E9A435C0
:1023600080F8A9328044E52D000B6B1B40FC54190A
:102370008058840C02010201000000006800002067
:102380008084EE3F6100002038B505460C468DF88C
:1023900000508DF80140022269468F20FFF708FCAB
:1023A00038BD1CB500200190012201A9C020FFF713
:1023B0001FFC9DF8040000909DF8001008461CBD0D
:1023C00038B500200090441E012269461520FFF711
:1023D0000FFC9DF800004042401044B2204638BD3A
:1023E00038B50446032269461420FFF701FCFFF7C5
:1023F000EEFC2070207820B1012803D00F2820D1D6
:1024000020E027E09DF800004042401041B22173D7
:102410009DF80100802804DA9DF8010081106173A5
:1024200005E09DF80100A0F58070811061739DF8B2
:1024300002004042401041B2A17318480168216176
:1024400008E000BF14220021204600F029F80F20E8
:10245000207000BF00BF38BD08B5022269461720B2
:10246000FFF7C6FBBDF80010084608BD08B5002000
:102470000090022269460720FFF79AFB08BD38B595
:102480000446200A8DF80000E0B28DF80100022217
:1024900069461046FFF78CFB38BD00006400002041
:1024A00010B501E000F8011B131EA2F10104A2B255
:1024B000F8D110BD10B503E011F8013B00F8013B65
:1024C000131EA2F10104A2B2F6D110BD70B50346ED
:1024D000002006E013F8015B11F8016BB54200D053
:1024E00070BD141EA2F10105EAB2F3D1012000BFB4
:1024F000F6E7704770477047754600F02BF8AE4618
:1025000005006946534620F00700854618B020B5FF
:10251000FDF74CFEBDE820404FF000064FF00007ED
:102520004FF000084FF0000B21F00701AC46ACE87B
:10253000C009ACE8C009ACE8C009ACE8C0098D46E8
:10254000704710B50446AFF300802046BDE8104048
:10255000FDF713BE00487047D00B0020014918203A
:10256000ABBEFEE726000200704700002DE9C04127
:1025700030B4DFF8A0C23CEA111418BF3CEA1314CF
:1025800000F0EC8081EA03051CEA111444EAD574DA
:1025900018BF1CEA131500F0C780A4EB05044FF028
:1025A000004545EAC12145EAC32341EA505143EAC7
:1025B000525304F17F74994204F500344FEAC0206D
:1025C0004FEAC22208BF904200F09C804FEA136598
:1025D0000FF24016765D4FEA134506FB05F7C7F18B
:1025E000807706FB07F74FEAD737A7FB03687642E9
:1025F000C8F58038A7FB06CE38BFA8F1010807FB55
:1026000008E64FF0000EA6FB028CE6FB03CEDCF1E1
:10261000000CCEF1004E38BFAEF1010EA6FB0C58F7
:102620004FF000074FF00005E6FB0E87A1FB08C640
:10263000A0FB07CE16EB0E0645F10005E1FB076592
:1026400015F1E04E7EBFA4F580345FEA46066D4189
:1026500016F1800745F100054FEA17274FEA066695
:1026600047EA0567A6F1DE46B6F1805F4FEA152519
:102670001FD9384624F0010C05EBC471BCF1FE6F84
:1026800001EB0C1102D8F0BCBDE8008124425CBF14
:1026900001F5801E9EEAC47F02D4F0BCBDE8008133
:1026A000244238D4F0BCA1F1C041BDE8004100F0A3
:1026B00043B94FEAD22242EA43524FEAD323A7FB5F
:1026C00002864FEAD02040EA415007FB03661EEA2B
:1026D0000E0F4FEAD12105FB026658BFA6EB00564C
:1026E000B6EB00564FEA520E4EEAC37E18EB0E0EC2
:1026F00056EB530EBDD518EB02085E417F1C55F119
:102700000005B6E74FF480154FF000074FF00006C4
:102710004FF00008ADE7F0BC4FF0000001F1C04100
:1027200001F00041BDE8008111EA0C1F0CEA13150D
:1027300000D00CE013EA0C1F00F025804FF00000E1
:10274000F0BC81EA030101F00041BDE80081F0BC6A
:10275000BDE8004181EA030100F0EEB8F0BCBDE83D
:10276000004170B500F09AF8097EFC3E00F007B811
:1027700081EA03014FF0000001F00041704781EA57
:10278000030100F0D9B8F0BCBDE800414FF00000F3
:1027900021497047FFFDFBF9F7F5F4F2F0EEEDEBA0
:1027A000E9E8E6E4E3E1E0DEDDDBDAD8D7D5D4D34F
:1027B000D1D0CFCDCCCBCAC8C7C6C5C4C2C1C0BF9B
:1027C000BEBDBCBBBAB9B8B7B6B5B4B3B2B1B0AFA1
:1027D000AEADACABAAA9A8A8A7A6A5A4A3A3A2A185
:1027E000A09F9F9E9D9C9C9B9A9999989797969540
:1027F00095949393929191908F8F8E8E8D8C8C8BDC
:102800008B8A898988888787868585848483838263
:10281000828181800000FF070000F87F4FEA11539A
:10282000A3F58063D3F11E03A8BFD3F1200C08DB0E
:102830004FF0004242EAC12252EA505232FA03F00B
:10284000704709420BD4102BC4BF0020704703F51A
:10285000787CBCF1FF3F05D04FF0FF3070474FF060
:102860000000704770B500F019F800BF499224804D
:1028700000207047F0E7B0FA80F310FA03F10AD0B5
:10288000C3F11D0303F580634FEA41504FEA035241
:1028900002EBD12170474FF0000070470EF1020E9D
:1028A0002EF0030E5EF8046B364205D4012A43EB8A
:1028B000030515F5001F12D8012841EB010C1CF58A
:1028C000001F0CD80ED14FEAD17C15F5001F0CEB80
:1028D0004C0C0CF1020C08BF4CEBD37C04E04FF025
:1028E000080C01E04FEAD37C0CEB4C0526FA05F608
:1028F00006F00706B6F1040C06D20EEB860CBDE816
:1029000070404CF0010C6047DFE80CF0090B02024C
:102910004FF000414FF00000A1F5002170BD1946B5
:102920001046012851EB010418BFD4F5001484BFF0
:10293000002001F0004170BD0808A0F500114FEA29
:102940003101704790EA010F48BF81F0004100F16A
:102950002E82421A3CBF801A89184FEAD0524FF09B
:102960007F4C1CEA410FA2EBD15318BF9CEA026FC7
:1029700000F03B804FF0004C4CEA00204CEA012173
:1029800021FA03FC10EB0C0C1ED202F1FF325FEABD
:102990001C2040EBC25038BF70471CF07F0F4FEA3D
:1029A000400C18BFBCF17F4F38BF7047C3F1200304
:1029B000994008BF20F00100BCF17F4F38BF70473D
:1029C000A0F1C04000F0DDB94FEA3C00000A40EB46
:1029D000C25028BF1CF0FF0F4FEA400CE6D018BFD2
:1029E000BCF17F4F38BF7047EAE79CEA026F05D021
:1029F00010EA5C0F08BF00F00040704710B500F00F
:102A00007AF900BF64FBBE3E4FF47F0C1CEAD01283
:102A10001EBF1CEAD11392EA0C0F93EA0C0F00F0D0
:102A2000858090EA010F48BF42F4807240F4000CA8
:102A300041F400002CF07F4120F07F4000B581423E
:102A4000A2EB03020FF2081CACEB504EC0F10000E9
:102A50009EF800E04FEA4E0E00FB0EFC38BF490026
:102A60004FEA2C1C02F5FA020CFB0EF34FEACE1EC5
:102A70004FEA112C4FEAC1210EEB635E42EB22427A
:102A80000EFB0CFC4FEA1C5300FB03114FEA112C08
:102A90004FEA01310EFB0CFC4FEADC4C00FB0C1141
:102AA000C14228BF09184CEB03335DF804EB10EB6F
:102AB000410143EBC250B2F57C0F38BF704729D5B6
:102AC00012F0F00F1CBF00F1C04000F00040704752
:102AD000008182838485868788898B8C8D8E8F91F7
:102AE0009293959697999A9C9D9FA0A2A3A5A7A81B
:102AF000AAACAEB0B2B3B5B7B9BCBEC0C2C5C7C947
:102B0000CCCED1D4D7D9DCDFE2E6E9ECF0F3F7FAAA
:102B1000FE0000004FEA400C0CF1807CBCF17E4FBF
:102B200028BF7047B0F1C04000F02BB990EA010F08
:102B30000CEAD11348BF42F48072624538BF634546
:102B400007D213F47F0F16D080EA010000F0004096
:102B5000704710B500F0CFF8097EFC3E00F005B8D4
:102B600080EA010000F00040704780EA010000F0B8
:102B7000004000F006B912F47F0F04BF024870470E
:102B800080EA010000F0FDB80000C07FC10DD1F166
:102B90009E0206DB4FEA002343F0004323FA02F0D3
:102BA0007047004207D54FEA4001B1F1FE4F02D213
:102BB0004FF00000704710B500F09DF84992248056
:102BC000002070476FEA200070470000B0FA80F3E1
:102BD00010FA03F2C3F19D030AD0D90501EB1220CC
:102BE000530638BF704700F1010008BF20F0010014
:102BF000704700004FF47F0C1CEAD0121EBF1CEA85
:102C0000D11392EA0C0F93EA0C0F00F0478090EA80
:102C1000010F48BF42F480724FF0004C4CEA002094
:102C20004CEA012102EB0302A0FB0113A2F5000212
:102C3000002918BF43F001035B0028BF4FEA3303AC
:102C400042EB22425FEA132C4CEBC2502EBFBCEB8E
:102C5000436FB2F57C0F70474FEA036CBCF1004F35
:102C600008BF20F00100B2F57C0F38BF70470BD5CC
:102C700082F0FF0212F5803FC8BF704700F1C040EC
:102C8000D8BF00F00040704700F5000C5FEA4C0C24
:102C900048BF7047B0F1C04000F073B890EA010F30
:102CA0000CEAD11348BF42F48072624538BF6345D5
:102CB00004D280EA010000F00040704710B500F037
:102CC0001AF800BF8900013E00F007B800F009B80B
:102CD0005FEA410C5FEA1C6C08D080EA010000F05A
:102CE00050B85FEA400C5FEA1C6CF6D14FF0004030
:102CF000A0F5800070470EF1020E2EF0030E5EF874
:102D0000044B244204D44FEA4102B2F17F4F11D860
:102D10004FEA4003B3F17F4F0CD80ED14FEAD07C7D
:102D2000B2F17F4F0CEB4C0C0CF1020C08BF4CEBDA
:102D3000D17C04E04FF0080C01E04FEAD17C0CEBB1
:102D40004C0324FA03F404F00704B4F1040C06D293
:102D50000EEB840CBDE810404CF0010C6047DFE83E
:102D60000CF0070802024FF00040A0F5800010BDF3
:102D70000846420018BFD2F1807288BF00F00040C0
:102D800010BDFF2141EAD050C005704780F00040DF
:102D900090EA010F7FF5DDAD81F0004100F007B84A
:102DA00090EA010F48BF81F000413FF5D2AD421AD1
:102DB00004D882F00042A0EB020011444FEAD05246
:102DC0004FF07F4C1CEA410FA2EBD15318BF9CEA95
:102DD000026F4AD04FF0004C4CEA00204CEA01212F
:102DE00021FA03FCB0EB0C0C0FD412F0FE0F36D01E
:102DF0005FEA4C001DD5001240EBC25038BF70474F
:102E00001CF03F0F18BF70470BE0A2F101025FEA10
:102E10001C2040EBC25038BF70471CF07F0F18BF1A
:102E20007047C3F12003994014BF401E20F00100F9
:102E3000704780084FEA122308BF7047B0FA80FC41
:102E4000A2EB0C02CCF1280C60FA0CF093EA122FE2
:102E500004BF00EBC25070474FEAC3707047130ABB
:102E60005FEADC1008BF7047F6E79CEA026F04D007
:102E700010EA5C0F08BF0020704710B5FFF73BFF5A
:102E800040DFF63E81F00040704700C1814001C044
:102E9000804101C0804100C1814001C0804100C12A
:102EA000814000C1814001C0804101C0804100C11A
:102EB000814000C1814001C0804100C1814001C00A
:102EC000804101C0804100C1814001C0804100C1FA
:102ED000814000C1814001C0804100C1814001C0EA
:102EE000804101C0804100C1814000C1814001C0DA
:102EF000804101C0804100C1814001C0804100C1CA
:102F0000814000C1814001C0804101C0804100C1B9
:102F1000814000C1814001C0804100C1814001C0A9
:102F2000804101C0804100C1814000C1814001C099
:102F3000804101C0804100C1814001C0804100C189
:102F4000814000C1814001C0804100C1814001C079
:102F5000804101C0804100C1814001C0804100C169
:102F6000814000C1814001C0804101C0804100C159
:102F7000814000C1814001C0804100C1814001C049
:102F8000804101C0804100C1814000C0C101C30334
:102F900002C2C60607C705C5C404CC0C0DCD0FCFB1
:102FA000CE0E0ACACB0BC90908C8D81819D91BDB21
:102FB000DA1A1EDEDF1FDD1D1CDC14D4D515D71771
:102FC00016D6D21213D311D1D010F03031F133F321
:102FD000F23236F6F737F53534F43CFCFD3DFF3F71
:102FE0003EFEFA3A3BFB39F9F83828E8E929EB2BA1
:102FF0002AEAEE2E2FEF2DEDEC2CE42425E527E731
:10300000E62622E2E323E12120E0A06061A163A3A0
:10301000A26266A6A767A56564A46CACAD6DAF6F30
:103020006EAEAA6A6BAB69A9A86878B8B979BB7BA0
:103030007ABABE7E7FBF7DBDBC7CB47475B577B7F0
:10304000B67672B2B373B17170B050909151935320
:10305000529296565797559594549C5C5D9D5F9FF0
:103060009E5E5A9A9B5B99595898884849894B8B20
:103070008A4A4E8E8F4F8D4D4C8C448485458747B0
:103080004686824243834181804000000000000068
:103090000405060000000000FCA9F1D24D6240408A
:1030A000FCA9F1D24D623040FCA9F1D24D62204022
:1030B000FCA9F1D24D621040FCA9F1D24D62004052
:1030C000FCA9F1D24D62F03FFCA9F1D24D62E03F84
:1030D000FCA9F1D24D62D03FFCA9F1D24D62304043
:1030E000FCA9F1D24D622040FCA9F1D24D62104002
:1030F000FCA9F1D24D620040FCA9F1D24D62F03F33
:10310000FCA9F1D24D62E03FFCA9F1D24D62D03F63
:10311000FCA9F1D24D62C03FFCA9F1D24D62204022
:10312000FCA9F1D24D621040FCA9F1D24D620040E1
:10313000FCA9F1D24D62F03FFCA9F1D24D62E03F13
:10314000FCA9F1D24D62D03FFCA9F1D24D62C03F43
:10315000FCA9F1D24D62B03F783100080000002098
:103160006C00000028010008E43100086C00002019
:10317000C41100004401000800000006060606060F
:103180000606060606000000000000000000000021
:10319000000000000A000000000000000000000025
:1031A000000000000000000000000000000000001F
:1031B000000000000000000000000000000000000F
:1031C000000000000000000000000000FF00000000
:1031D00000000000000000000000000000000000EF
:0431E00000000000EB
:04000005080000ED02
:00000001FF
