:020000040800F2
:10000000F00900200D0200089904000819040008F6
:1000100095040008C70200088B16000800000000C5
:10002000000000000000000000000000850800083B
:10003000EF02000800000000210500084910000838
:1000400027020008270200082702000827020008EC
:1000500027020008270200082702000827020008DC
:1000600027020008270200082702000827020008CC
:1000700027020008270200082702000827020008BC
:1000800027020008270200082702000827020008AC
:10009000270200082702000827020008270200089C
:1000A000270200082702000827020008270200088C
:1000B000AD100008E9100008191100082702000817
:1000C000270200082702000827020008270200086C
:1000D0002702000861130008270200082702000811
:1000E000270200082702000827020008270200084C
:1000F000270200082702000827020008270200083C
:1001000027020008270200084911000827020008FA
:10011000270200082702000827020008270200081B
:10012000270200082702000827020008270200080B
:1001300000F002F800F05AF80AA090E8000C82449F
:100140008344AAF10107DA4501D100F04FF8AFF27C
:10015000090EBAE80F0013F0010F18BFFB1A43F0A5
:10016000010318472C1C00004C1C00000A444FF0EF
:10017000000C10F8013B13F0070408BF10F8014B06
:100180001D1108BF10F8015B641E05D010F8016B4B
:10019000641E01F8016BF9D113F0080F1EBF10F8AF
:1001A000014BAD1C0C1B09D16D1E58BF01F801CBD2
:1001B000FAD505E014F8016B01F8016B6D1EF9D555
:1001C0009142D6D37047000000230024002500266A
:1001D000103A28BF78C1FBD8520728BF30C148BFAA
:1001E0000B6070471FB51FBD10B510BD00F031F892
:1001F0001146FFF7F7FF01F0E7FA00F04FF803B4FC
:10020000FFF7F2FF03BC00F057F8000009488047F1
:1002100009480047FEE7FEE7FEE7FEE7FEE7FEE7E8
:10022000FEE7FEE7FEE7FEE704480549054A064B00
:10023000704700004D10000831010008F003002055
:10024000F0090020F0050020F005002070477047FD
:100250007047754600F02CF8AE46050069465346D7
:1002600020F00700854618B020B5FFF7DDFFBDE898
:1002700020404FF000064FF000074FF000084FF00D
:10028000000B21F00701AC46ACE8C009ACE8C0099E
:10029000ACE8C009ACE8C0098D46704710B504460B
:1002A000AFF300802046BDE81040FFF7A8BF000074
:1002B000004870478C03002001491820ABBEFEE7C0
:1002C00026000200704700BFFEE7002106E0002381
:1002D000821D5354FF3253544A1C91B282888A4281
:1002E000F5DC0022427082800270C2707047704755
:1002F0002DE9F041024600250026002000230024BD
:10030000002791F803C00CF00F0591F803C00CF022
:10031000100CBCF1000F03D091F802C04CEA0505A7
:1003200091F800C0BCF1000F31D0146800202BE020
:100330004FF0010C0CFA00F3B1F800C00CEA030610
:100340009E4220D183004FF00F0C0CFA03F7BC4300
:1003500005FA03FC4CEA040491F803C0BCF1280F31
:1003600006D14FF0010C0CFA00FCC2F814C00AE0F0
:1003700091F803C0BCF1480F05D14FF0010C0CFA05
:1003800000FCC2F810C0401C0828D1D31460B1F89A
:1003900000C0BCF1FF0F34DD546800202EE000F1F6
:1003A000080C4FF0010808FA0CF3B1F800C00CEA91
:1003B00003069E4221D183004FF00F0C0CFA03F785
:1003C000BC4305FA03FC4CEA040491F803C0BCF1F9
:1003D000280F05D100F1080C08FA0CF8C2F81480B7
:1003E00091F803C0BCF1480F07D100F1080C4FF0A1
:1003F000010808FA0CF8C2F81080401C0828CED377
:100400005460BDE8F0810246002093680B400BB1B8
:10041000012000E00020704700BFFEE708B5012181
:10042000102000F08FF80C20ADF8000010208DF89F
:10043000030003208DF8020069460548FFF758FFC6
:100440000120044908600449C1F8880108BD000082
:10045000001001408C0122420000224270B5044687
:100460006006050E0EE00A48C06880F004000849E6
:10047000C8600846C06880F00800C8604FF4C870C3
:1004800001F028F9281EA5F10101CDB2EBD170BD14
:100490000010014000BFFEE77047000070B500216A
:1004A00000230F22C47804B3154C246804F4E064DC
:1004B000C4F5E064210AC1F10403CA40447804FA97
:1004C00003F184781440214309010E4C0678A155AC
:1004D000047804F01F050124AC4005786D11AD00CF
:1004E00005F1E025C5F8004109E0047804F01F0596
:1004F0000124AC40044D0678761145F8264070BDC5
:100500000CED00E000E400E080E100E0024901437E
:10051000024A1160704700000000FA050CED00E08F
:100520007047000029B1064AD2690243044BDA61E0
:1005300004E0034AD2698243014BDA61704700004C
:100540000010024029B1064A92690243044B9A61A5
:1005500004E0034A92698243014B9A6170470000AC
:100560000010024030B500210022002400232D4D50
:100570006D6805F00C0121B1042905D0082923D1AB
:1005800005E0294D056022E0274D05601FE0254D5F
:100590006D6805F47012234D6D6805F480340225F2
:1005A00005EB92421CB9214D554305600BE01D4DF2
:1005B0006D6805F400351DB11C4D5543056002E022
:1005C000194D5543056002E0174D056000BF00BF9F
:1005D000144D6D6805F0F0010909154D6B5C056857
:1005E000DD4045600F4D6D6805F4E061090A104D6E
:1005F0006B5C4568DD4085600A4D6D6805F46051AF
:10060000C90A0B4D6B5C4568DD40C560054D6D68E2
:1006100005F44041890B074D6B5CC568B5FBF3F5EC
:10062000056130BD0010024000127A0000093D0053
:10063000140000202400002010B50446204600F0DD
:1006400080F910BD70B504460D461646324629465F
:10065000204600F09DF970BD10B500F080F910BD86
:1006600010B500F0CDF9002000F086FB012000F06D
:1006700036FB0021084600F0A1FA0421002000F01A
:10068000ADFB00231A464FF6FF71084600F0A4FAAE
:1006900010BD000010B50446002008490860012084
:1006A0000749C1F8800100231A4640F2022108469A
:1006B00000F092FA002000F049FB10BD84012142B5
:1006C0000000214270B505460C46164601200B4934
:1006D000086000200A49C1F8800100231A4640F250
:1006E0000121084600F078FA0648C47300F0C1FA08
:1006F00032462146284600F055FA70BD8401214259
:10070000000021425003002010B50446204600F0AE
:10071000EDFA10BD10B5044614B1012C01D000BF94
:1007200010E0012000F0C4FA074840780649097833
:10073000884206D00448007803494870487800F0A1
:1007400005F800BF00BF10BD3402002010B50446FC
:10075000012000F0ADFA012C0AD134214FF4E860F9
:1007600000F0BCFB442140F2417000F0B7FB09E00F
:1007700014214FF4E86000F0B1FB242140F24170F5
:1007800000F0ACFB10BD00002DE9F05F0E461C46EA
:10079000DDF844B00AAD95E8A007002000F000FBAA
:1007A000002000F035FA0120204981F82800084691
:1007B00080F838501E48015D1C4880F8391080F8D8
:1007C0003A701CB90B2D05D00C2D03D0012C06D18D
:1007D0000C2D04D10121154880F83B1003E00021C5
:1007E000124880F83B100120104908700846A0F814
:1007F0000C8080F80E900F4801780C48C17380F887
:1008000010A080F811B000F017F80120FFF782FF68
:100810000648283000F003FA044800F02AFA0221C2
:10082000304600F0DBFABDE8F09F000050030020E6
:10083000C81C00083802002010B5002000F09CFA07
:1008400010BD000008B501210420FFF77BFE102039
:100850008DF8030003208DF80200A020ADF8000001
:1008600069460748FFF744FD48208DF80300402003
:10087000ADF8000069460248FFF73AFD08BD0000E8
:10088000000801407047000038B504462048844203
:1008900006D9E1208DF80000E9208DF8010030E054
:1008A0001C48844206D9D7208DF80000D8208DF846
:1008B000010026E01848844206D9C1208DF80000C6
:1008C000C5208DF801001CE01448844206D975202B
:1008D0008DF8000081208DF8010012E0104884425C
:1008E00006D96B208DF800006F208DF8010008E01C
:1008F0000C48844205D337208DF8000041208DF844
:10090000010002226946982000F0C6FA38BD0000B6
:1009100000E9A43580F8A9328044E52D000B6B1B5B
:1009200040FC54198058840C10B500F025F818B11B
:1009300000F022F8062801D100F076FA00F068FAFB
:1009400010BD38B50446200A8DF80000E0B28DF8DD
:10095000010002226946104600F09EFA38BD08B533
:1009600002226946122000F0AFF89DF801009DF8C0
:10097000001040EA012008BD0148007870470000DF
:100980004402002001480078704700004502002022
:10099000F8B505460C4616460020009069462046EC
:1009A00000F00DF82078B04201DD0120F8BD22787A
:1009B00029469DF8000000F061F80020F6E738B500
:1009C00004460D4602226946132000F07DF8FFF729
:1009D000D9FF01280DD140F2047000F099F80121EF
:1009E000B1EBE01F05D140F2027000F091F82070E9
:1009F00002E09DF8000020709DF80100287038BDCD
:100A000010B500F00BF800F0B7F800F035F800F082
:100A10000BFA002000F0B0F910BD000008B501216C
:100A20001420FFF78FFD48208DF803000420ADF857
:100A3000000069460E48FFF75BFC48208DF8030074
:100A40000120ADF8000069460A48FFF751FC10206C
:100A50008DF8030003208DF802001B20ADF8000084
:100A600069460348FFF744FCFFF7ECFE08BD0000B1
:100A70000008014000100140704700002DE9F041DE
:100A800007460D461646FFF74FFF00200D49086048
:100A90001E2000F06BFE384600F068FE002000F0DB
:100AA00065FE002405E0002000F060FE2855601C73
:100AB00084B2B442F7DB01200249086000F0A8F9D3
:100AC000BDE8F081900121422DE9F04107460D4635
:100AD0001646FFF729FF00200C490860384600F051
:100AE00045FE002000F042FE002405E0002000F05A
:100AF0003DFE2855601C84B2B442F7DB0120034957
:100B0000086000F085F9BDE8F08100009001214205
:100B100038B5044601226946204600F003F89DF8E6
:100B2000000038BD2DE9F04104460E461746FFF798
:100B3000FBFE00200F4908601D2000F017FE200A70
:100B400000F014FEE0B200F011FE002000F00EFEF6
:100B5000002505E0002000F009FE7055681C85B2F4
:100B6000BD42F7DB01200349086000F051F9BDE800
:100B7000F08100009001214210B50A2000F0AAFD8A
:100B8000002006490860142000F0A4FD012004495B
:100B9000C1F88C010A2000F09DFD10BD8C0121429E
:100BA0000000214270B505460E46144631462846DF
:100BB00000F08CF8204600F0FBF870BD38B5054613
:100BC0000C468DF800508DF80140022269468F20B6
:100BD00000F062F938BD00002DE9FC4104460D46E5
:100BE00016461F4608A103C9CDE90001E0B28DF801
:100BF0000100E0B28DF8030008226946104600F0BB
:100C00004BF9BDE8FC810000020102010000000078
:100C100001B501226946A02000F03EF908BD38B5B3
:100C20000446042500200090207C8DF80000607CA4
:100C30008DF80100A07C8DF80200E07C8DF80300A7
:100C40002A4669468B2000F027F938BDF8B50446DE
:100C50000D4616461F468DF800408DF801508DF860
:100C600002608DF8037004226946952000F014F9A3
:100C7000F8BD7CB504460625002000900190A089AF
:100C8000000A8DF80000207B8DF80100A07B8DF814
:100C90000200E07B8DF80300207C8DF80400607C6E
:100CA0008DF805002A4669468C2000F0F5F87CBDD9
:100CB00001B59DF8000004490870012269468A20A8
:100CC00000F0EAF808BD00004502002070B50446B7
:100CD0000D462A462146002000F0BCF870BD01B543
:100CE00001226946962000F0D7F808BD2DE9F843A7
:100CF000814600241348007828B94846FFF7C4FD10
:100D0000012010490870484600F075FF0746002290
:100D10000D4B00F0EBFD054600F040FF0446200EB1
:100D20008DF80000200C8DF80100200A8DF80200DB
:100D3000E0B28DF8030004226946862000F0ACF88A
:100D4000BDE8F8834C0200208084EE3F38B50446AD
:100D5000052008490870200C8DF80000200A8DF845
:100D60000100E0B28DF8020003226946822000F003
:100D700093F838BD4402002001B501226946802065
:100D800000F08AF89DF8000018B9012003490870A6
:100D900002E002200149087008BD00004402002062
:100DA00001B5012269469F2000F076F808BD0000D9
:100DB00038B50446042008490870200C8DF800005E
:100DC000200A8DF80100E0B28DF802000322694686
:100DD000832000F061F838BD4402002038B5054694
:100DE0000C460123002207210420FFF72FFF3821A2
:100DF00040F6E70000F072F8E8B28DF800008DF8D8
:100E00000140022269468E2000F046F838BD0000FD
:100E100010B500BF04210348FFF7F5FA0028F9D107
:100E200010BD00000008014010B50020074908600F
:100E3000C02000F09BFC002000F098FC0120044939
:100E4000C1F89001FFF7E4FF10BD000090012142BE
:100E5000000021422DE9F04107460D461646FFF7F6
:100E600063FD00200B4908600E2000F07FFC38462F
:100E700000F07CFC002404E0285D00F077FC601C9E
:100E800084B2B442F8DB012002490860FFF7C0FFDA
:100E9000BDE8F081900121422DE9F04105460E4662
:100EA0001746FFF741FD00200B490860284600F077
:100EB0005DFC002404E0305D00F058FC601C84B24E
:100EC000BC42F8DB012004490860842D01D0FFF703
:100ED0009FFFBDE8F08100009001214213B5044658
:100EE000012201A9204600F001F81CBD2DE9F041C6
:100EF00004460E461746FFF717FD00200D4908600F
:100F00000D2000F033FC200A00F030FCE0B200F0CD
:100F10002DFC002504E0705D00F028FC681C85B203
:100F2000BD42F8DB012003490860FFF771FFBDE80F
:100F3000F08100009001214210B500F001F810BDD1
:100F40000CB50020019000903348006840F48030D8
:100F50003149086000BF3048006800F4003000905C
:100F60000198401C0190009818B90198B0F5A06F45
:100F7000F1D12948006800F4003010B10120009040
:100F800001E0002000900098012843D12348006828
:100F900040F01000214908600846006820F0030076
:100FA00008600846006840F0020008601A4840687F
:100FB000194948600846406848600846406840F45F
:100FC000806048600846406820F47C10486008460D
:100FD000406840F4E81048600846006840F08070BF
:100FE000086000BF0C48006800F000700028F9D0CD
:100FF0000948406820F003000749486008464068F7
:1010000040F00200486000BF0348406800F00C0058
:101010000828F9D10CBD0000001002400020024059
:10102000042808D14FF0E021096941F004014FF094
:10103000E022116107E04FF0E021096921F004018D
:101040004FF0E022116170477047000010B513485F
:10105000006840F0010011490860084640681049E6
:1010600008400E494860084600680E4908400B4990
:1010700008600846006820F4802008600846406840
:1010800020F4FE0048604FF41F008860FFF754FF13
:101090004FF000600449086010BD000000100240DD
:1010A0000000FFF8FFFFF6FE08ED00E010B501219B
:1010B000880700F070F898B10121880700F05CF80B
:1010C0000848007860B10748C078401C0549C870DE
:1010D0000846C0788978884202DD012001494870BD
:1010E00010BD00002E00002010B50121084800F0BE
:1010F00052F858B10748006808B9012000E0002004
:10110000044908600121024800F036F810BD0000D3
:10111000000400408C01224210B50121084800F073
:101120003AF858B10748006808B9012000E00020EB
:10113000044908600121024800F01EF810BD0000BB
:10114000000800408801224210B50121084800F043
:1011500022F858B10748006808B9012000E00020D3
:10116000044908600121024800F006F810BD0000A3
:10117000000C004088012242CA430282704721B11C
:10118000028842F00102028004E002884FF6FE73FA
:101190001A400280704730B5024600200023002428
:1011A000158A05EA0103958905EA010413B10CB11A
:1011B000012000E0002030BD1AB183890B438381F8
:1011C00002E083898B4383817047000000220288FC
:1011D0001D4B98420ED01D4B98420BD0B0F1804F62
:1011E00008D01B4B984205D01A4B984202D01A4B9C
:1011F000984204D14FF68F731A404B881A43174B0D
:10120000984207D0164B984204D04FF6FF431A403D
:10121000CB881A4302808B8883850B8803850A4B11
:1012200098420BD0094B984208D00E4B984205D0FB
:101230000D4B984202D00D4B984201D10B7A038698
:101240000123838270470000002C014000340140DC
:101250000004004000080040000C00400010004066
:10126000001400400040014000440140004801409B
:101270007FB504460D460026B4F1804F04D101210C
:101280000846FFF74FF916E03248844204D10121A5
:101290000220FFF747F90EE02F48844204D10121D4
:1012A0000420FFF73FF906E02C48844203D10121D6
:1012B0000820FFF737F905EB85000121C1EB40005D
:1012C00086B20020ADF80A00ADF80600ADF808605F
:1012D00041F61F40ADF8040001A92046FFF776FF54
:1012E000012211462046FFF767FFB4F1804F06D177
:1012F0001C208DF8000000208DF802001CE015482D
:10130000844206D11D208DF8000001208DF80200D6
:1013100012E01148844206D11E208DF80000022000
:101320008DF8020008E00D48844205D132208DF886
:10133000000003208DF8020001208DF8030000203A
:101340008DF801006846FFF7A9F801212046FFF754
:1013500016FF7FBD0004004000080040000C004064
:1013600010B540F22551114800F09EF8E8B140F266
:1013700025510E4800F076F800200D49C870084647
:101380008088FF2811DA0846407870B9074800F0D5
:1013900047F9C1B2064882888088401C044B988077
:1013A000981D815401201946087010BD0038014075
:1013B0002E00002010B586B00446012144F204003E
:1013C000FFF7C0F84FF40070ADF8140018208DF846
:1013D000170003208DF8160005A92048FEF788FFA6
:1013E0004FF48060ADF8140048208DF8170005A96F
:1013F0001A48FEF77DFF25208DF800009DF80100BA
:10140000032190FBF1F0C0B28DF8010003208DF8AC
:10141000020001208DF803006846FFF73FF80194B1
:101420000020ADF810000C20ADF80E000020ADF843
:101430000C00ADF80A00ADF8080001A9084800F05A
:1014400083F8012240F22551054800F057F80121A8
:10145000034800F010F806B010BD0000000801407D
:101460000038014001F40072B2F5007F00D100BFE6
:10147000CA430280704721B1828942F400528281BE
:1014800004E082894DF6FF731A408281704702465C
:101490000020B1F5007F00D100BF13880B400BB1D5
:1014A000012000E00020704770B5024600240023B0
:1014B0000025002040F66A16B14200D100BFC1F3FA
:1014C000421501F01F03012606FA03F3012D02D194
:1014D0009689334006E0022D02D1168A334001E09E
:1014E000968A33400C12012606FA04F4168834401A
:1014F00013B10CB1012000E0002070BDF0B503462F
:10150000002400260025002040F66A17B94200D1C9
:1015100000BF1846C1F3421401F01F06012707FA65
:1015200006F5012C01D10C3004E0022C01D1103061
:1015300000E014301AB107682F43076002E0076823
:10154000AF430760F0BD00002DE9F04786B00546C7
:101550000E460024A24600BFA1460027B08900B174
:1015600000BF2F462C8A4CF6FF700440F0880443DD
:101570002C82AC894EF6F3100440B08831890843C0
:10158000718908430443AC81AC8A4FF6FF400440A4
:10159000B0890443AC8201A8FEF7E4FF1F488742EC
:1015A00002D1DDF810A001E0DDF80CA0A88900F45C
:1015B000004040B10AEBCA0000EB0A103168490054
:1015C000B0FBF1F807E00AEBCA0000EB0A10316843
:1015D0008900B0FBF1F86420B8FBF0F004012009A9
:1015E000642101FB1089A88900F4004040B1322039
:1015F00000EBC900B0FBF1F000F00700044308E085
:10160000322000EB09106421B0FBF1F000F00F0074
:1016100004432C8106B0BDE8F0870000003801408B
:1016200001468888C0F30800704770B506460C462E
:10163000154604E014F8011B304600F006F8281E99
:10164000A5F10101CDB2F5D170BD70B504460D46CE
:101650002946204600F008F800BF80212046FFF709
:1016600016FF0028F9D070BDC1F3080282807047D0
:1016700070B505460C4604E014F8011B2846FFF738
:10168000E4FF20780028F7D170BD00BFFEE700001E
:1016900010B56FF00400FFF7C3FC0A4800680A4960
:1016A000B0FBF1F0094908700846007800EB4001F2
:1016B000C1EBC0104FF6FF7101EAC0000449088079
:1016C00010BD00000000002000127A002800002059
:1016D0002A0000200146114A12884A434FF0E023B5
:1016E0005A6100229A611A46126942F001021A6197
:1016F00000BF4FF0E022106900F001021AB100F4BF
:101700008032002AF5D04FF0E022126922F0010267
:101710004FF0E0231A6100229A6170472A000020EE
:101720000146114A12784A434FF0E0235A610022E1
:101730009A611A46126942F001021A6100BF4FF025
:10174000E022106900F001021AB100F48032002A90
:10175000F5D04FF0E022126922F001024FF0E023B1
:101760001A6100229A6170472800002070B5044673
:10177000002521E004F0800018B101201049086024
:1017800002E000200E4908606006040E0420FFF706
:10179000C7FF01200A49083908600A48D0F8180133
:1017A00008B144F001040420FFF7BAFF0020044907
:1017B00008390860681CC5B2082DDBDB204670BD07
:1017C0009C012142000021428AB00024FFF760FF03
:1017D0004FF4A060FEF79AFE4FF41650FFF7EAFDB3
:1017E000FEF71CFE0A214807FFF742FDFEF738FF0F
:1017F000FFF722F840F6B830002105910691CDE9B7
:10180000071001200C22CDE90102CDE903100B20C5
:1018100002230A46162100900120FEF7B5FF234857
:10182000FEF772FF22A12948FFF722FF0320FEF7EF
:1018300015FE0020FEF72EFF37E02548407890B1D6
:10184000234801790022801DFEF73CFF2048FEF767
:101850003CFD20A11D48FFF70BFF2148C06880F028
:1018600008001F49C860FEF7F7FEC4B204F002008A
:1018700002281AD14FF6FF70FEF7DEFE0020FEF7B9
:1018800009FFFF2217491848FEF7DCFE15480078CB
:1018900058B11448027814490C48FFF7C6FE1048A6
:1018A000C06880F004000E49C860C6E7400ECF193A
:1018B00053544D3332463130332B5358313236384E
:1018C00020CAD5B7A2B2E2CAD40D0A00003801403E
:1018D0002E000020B7A2CBCDCDEAB3C90D0A00007F
:1018E000001001402C000020500200202DE9C041D2
:1018F00030B4DFF8A0C23CEA111418BF3CEA13145C
:1019000000F0EC8081EA03051CEA111444EAD57466
:1019100018BF1CEA131500F0C780A4EB05044FF0B4
:10192000004545EAC12145EAC32341EA505143EA53
:10193000525304F17F74994204F500344FEAC020F9
:101940004FEAC22208BF904200F09C804FEA136524
:101950000FF24016765D4FEA134506FB05F7C7F117
:10196000807706FB07F74FEAD737A7FB0368764275
:10197000C8F58038A7FB06CE38BFA8F1010807FBE1
:1019800008E64FF0000EA6FB028CE6FB03CEDCF16E
:10199000000CCEF1004E38BFAEF1010EA6FB0C5884
:1019A0004FF000074FF00005E6FB0E87A1FB08C6CD
:1019B000A0FB07CE16EB0E0645F10005E1FB07651F
:1019C00015F1E04E7EBFA4F580345FEA46066D4116
:1019D00016F1800745F100054FEA17274FEA066622
:1019E00047EA0567A6F1DE46B6F1805F4FEA1525A6
:1019F0001FD9384624F0010C05EBC471BCF1FE6F11
:101A000001EB0C1102D8F0BCBDE8008124425CBFA0
:101A100001F5801E9EEAC47F02D4F0BCBDE80081BF
:101A2000244238D4F0BCA1F1C041BDE8004100F02F
:101A300043B94FEAD22242EA43524FEAD323A7FBEB
:101A400002864FEAD02040EA415007FB03661EEAB7
:101A50000E0F4FEAD12105FB026658BFA6EB0056D8
:101A6000B6EB00564FEA520E4EEAC37E18EB0E0E4E
:101A700056EB530EBDD518EB02085E417F1C55F1A5
:101A80000005B6E74FF480154FF000074FF0000651
:101A90004FF00008ADE7F0BC4FF0000001F1C0418D
:101AA00001F00041BDE8008111EA0C1F0CEA13159A
:101AB00000D00CE013EA0C1F00F025804FF000006E
:101AC000F0BC81EA030101F00041BDE80081F0BCF7
:101AD000BDE8004181EA030100F0EEB8F0BCBDE8CA
:101AE000004170B500F09AF8097EFC3E00F007B89E
:101AF00081EA03014FF0000001F00041704781EAE4
:101B0000030100F0D9B8F0BCBDE800414FF000007F
:101B100021497047FFFDFBF9F7F5F4F2F0EEEDEB2C
:101B2000E9E8E6E4E3E1E0DEDDDBDAD8D7D5D4D3DB
:101B3000D1D0CFCDCCCBCAC8C7C6C5C4C2C1C0BF27
:101B4000BEBDBCBBBAB9B8B7B6B5B4B3B2B1B0AF2D
:101B5000AEADACABAAA9A8A8A7A6A5A4A3A3A2A111
:101B6000A09F9F9E9D9C9C9B9A99999897979695CC
:101B700095949393929191908F8F8E8E8D8C8C8B68
:101B80008B8A8989888887878685858484838382F0
:101B9000828181800000FF070000F87F4FEA115327
:101BA000A3F58063D3F11E03A8BFD3F1200C08DB9B
:101BB0004FF0004242EAC12252EA505232FA03F098
:101BC000704709420BD4102BC4BF0020704703F5A7
:101BD000787CBCF1FF3F05D04FF0FF3070474FF0ED
:101BE0000000704770B500F019F800BF49922480DA
:101BF00000207047F0E7B0FA80F310FA03F10AD042
:101C0000C3F11D0303F580634FEA41504FEA0352CD
:101C100002EBD12170474FF0000070470EF1020E29
:101C20002EF0030E5EF8046B364205D4012A43EB16
:101C3000030515F5001F12D8012841EB010C1CF516
:101C4000001F0CD80ED14FEAD17C15F5001F0CEB0C
:101C50004C0C0CF1020C08BF4CEBD37C04E04FF0B1
:101C6000080C01E04FEAD37C0CEB4C0526FA05F694
:101C700006F00706B6F1040C06D20EEB860CBDE8A2
:101C800070404CF0010C6047DFE80CF0090B0202D9
:101C90004FF000414FF00000A1F5002170BD194642
:101CA0001046012851EB010418BFD4F5001484BF7D
:101CB000002001F0004170BD0808A0F500114FEAB6
:101CC000310170470000000004050600000000001C
:101CD000FCA9F1D24D624040FCA9F1D24D623040E6
:101CE000FCA9F1D24D622040FCA9F1D24D62104016
:101CF000FCA9F1D24D620040FCA9F1D24D62F03F47
:101D0000FCA9F1D24D62E03FFCA9F1D24D62D03F77
:101D1000FCA9F1D24D623040FCA9F1D24D622040C5
:101D2000FCA9F1D24D621040FCA9F1D24D620040F5
:101D3000FCA9F1D24D62F03FFCA9F1D24D62E03F27
:101D4000FCA9F1D24D62D03FFCA9F1D24D62C03F57
:101D5000FCA9F1D24D622040FCA9F1D24D621040A5
:101D6000FCA9F1D24D620040FCA9F1D24D62F03FD6
:101D7000FCA9F1D24D62E03FFCA9F1D24D62D03F07
:101D8000FCA9F1D24D62C03FFCA9F1D24D62B03F37
:101D9000B01D000800000020500200006C01000887
:101DA000D01D000850020020A0070000C801000854
:101DB0001184A24A04680901020304060708090CF9
:101DC00069107D020406082401FF01FF910217FF3C
:0400000508000131BD
:00000001FF
