:020000040800F2
:10000000D0060020D9010008DD010008DF0100084A
:10001000E1010008E3010008E5010008000000001C
:10002000000000000000000000000000E7010008E0
:10003000E901000800000000EB010008ED010008E4
:10004000EF010008EF010008EF010008EF010008D0
:10005000EF010008EF010008EF010008EF010008C0
:10006000EF010008EF010008EF010008EF010008B0
:10007000EF010008EF010008EF010008EF010008A0
:10008000EF010008EF010008EF010008EF01000890
:10009000EF010008EF010008EF010008EF01000880
:1000A000EF010008EF010008EF010008EF01000870
:1000B000EF010008EF010008EF010008EF01000860
:1000C000EF010008EF010008EF010008EF01000850
:1000D000EF010008EF010008C5050008EF01000866
:1000E000EF010008EF010008EF010008EF01000830
:1000F000EF010008EF010008EF010008EF01000820
:10010000EF010008EF010008EF010008EF0100080F
:10011000EF010008EF010008EF010008EF010008FF
:10012000EF010008EF010008EF010008EF010008EF
:1001300000F002F800F03AF80AA090E8000C8244BF
:100140008344AAF10107DA4501D100F02FF8AFF29C
:10015000090EBAE80F0013F0010F18BFFB1A43F0A5
:10016000010318471015000030150000103A24BF95
:1001700078C878C1FAD8520724BF30C830C144BF0C
:1001800004680C607047000000230024002500264E
:10019000103A28BF78C1FBD8520728BF30C148BFEA
:1001A0000B6070471FB51FBD10B510BD00F083FF79
:1001B0001146FFF7F7FF00F02BF800F0A1FF03B4A2
:1001C000FFF7F2FF03BC00F0A9FF000030BF72B6DA
:1001D00062B680F30888704708480047FEE7FEE7EC
:1001E000FEE7FEE7FEE7FEE7FEE7FEE7FEE7FEE7E7
:1001F00003480449044A054B7047000031010008D8
:10020000D0000020D0060020D0020020D002002024
:10021000092000F06EF9482000F00EF800F0C6FB4F
:1002200001200449086003E000F03AFC00F03CFCC7
:10023000FAE70000900121424FF0E021096921F026
:1002400004014FF0E0221161C21700EB5272C2F3B9
:10025000C702234B1A701946097801EB4102C2EB21
:10026000C1114FF6FF7202EAC1011E4A11807047A8
:1002700001461B4A12784A434FF0E0235A6100229C
:100280009A6101221A6100BF4FF0E022106900F06C
:1002900001021AB100F48032002AF5D000224FF09A
:1002A000E0231A619A61704701460E4A12884A4358
:1002B0004FF0E0235A6100229A6101221A6100BFC7
:1002C0004FF0E022106900F001021AB100F4803210
:1002D000002AF5D000224FF0E0231A619A6170479E
:1002E0000000002002000020A74A0A400243A74B5A
:1002F0001A6070470146072323EA01021202A34B4A
:100300001B1D18684FF6FF031840A14B18431043FC
:100310009E4B1B1D186070472DE9F041074688462B
:1003200014461D462846FFF7E5FFC5F1040007FA0D
:1003300000F60F20284100EA0800064306F00F06E9
:10034000E21704EBD2625211920002F1E022D2F8DD
:1003500000212146E31704EBD3635B11A4EB431C9C
:10036000012303FA0CF31A432046E31704EBD3638B
:100370005B119B0003F1E023C3F800218548005D79
:1003800040EA061083490855BDE8F08170B504467F
:100390000B46CE1701EB9676C6F38700CE1701EB1E
:1003A0009676B610A1EB8606B606350E7A4B9B699B
:1003B00043F00103784EB3614FEAB63353F820306F
:1003C0000F26AE40B343754E46F82030334653F8FF
:1003D000203004FA05F61E43704B43F82060704B42
:1003E0001B6801268E4033436D4E336002F00103DB
:1003F00043B16B4B0C331B6801268E403343684E70
:100400000C36336002F0020343B1654B08331E68BB
:1004100001238B401E43624B08331E6070BD00B544
:1004200000205D490861C86014204861002088618F
:10043000C8610846006840F001000860084640684E
:1004400058490840544948600846006856490840E1
:10045000514908600846006820F48020086008467A
:10046000406820F4FE0048600020886000214FF0C2
:100470000060FFF739FF00BD10B544480830006840
:1004800040F004004149083108604348C06940F029
:1004900080504149C8614548406840F480704349F4
:1004A00048600846006840F004000860084600689C
:1004B00040F002000860FFF789FE10BD3448001DBF
:1004C0003249091D0860704701464906324A92695F
:1004D00042F00102304B9A61304A083A526822F0E9
:1004E000E0622E4B083B5A601A4652680A435A6033
:1004F000704730B504460025FFF791FF2648006895
:1005000040F480302449086000BF23480068400C54
:100510000028FAD04FF480601F494860A01EC4B282
:100520000846406840EA844048600846406840F415
:10053000003048600846406840F4803048601C48FD
:10054000006840F032001A4908601348006840F023
:1005500080701149086000BF0F480068400E0028F5
:10056000FAD00D48406840F002000B49486005E0B1
:1005700009484068C0F3870505F00305022DF7D14F
:100580000120FFF7A1FF30BD80FFFF1F08ED00E055
:100590000000FA0500E400E00010024008000140FD
:1005A000000401400000FFF8FFFFF6FE007000406D
:1005B000002002400020F1490870F1490870F1491B
:1005C00008707047F049098801F0200109B3EE492D
:1005D000091D0988C8B2EB49097821B94E2802D112
:1005E0000121E74A1170E6490978012907D1E34959
:1005F0000A780978491CE14B1970E44988542A2883
:1006000007D10021DD4A1170DD4A11700121DD4A58
:100610001170704770B500220021002300240122D0
:100620000BE0DA48805C3A2800D11146D748805C5C
:100630002A2800D103E0501CC2B2642AF1DB00BFBB
:10064000914201D1002070BD501AC4B2A01E0528ED
:1006500075D2DFE800F00309172B4A00CB4D481C88
:10066000285C303883B26BE0C84D881C285C303879
:100670002E464D1C755D303D05EB850500EB4500B4
:1006800083B25DE0C14D481C285C30386425684366
:10069000BE4E8D1C755D303D05EB850500EB4505B7
:1006A000C81C305C3038284483B249E0B74D481C40
:1006B000285C30384FF47A756843B44E8D1C755DF4
:1006C000303D05EBC50606EB051500EB8505AF4E85
:1006D000C81C305C303800EB800005EB4005081D7D
:1006E000305C3038284483B22AE0A84D481C285C8E
:1006F000303842F210756843A44E8D1C755D303D54
:1007000005EB4506C6EBC51500EBC5059F4EC81C9D
:10071000305C303800EBC00606EB001005EB8005BE
:100720009A4E081D305C303800EB800005EB400528
:10073000481D305C3038284483B201E0FFE700BF39
:1007400000BF18467FE70020914908609149C1F831
:10075000B4018F4908310860704701208C49086056
:100760008C49C1F8B4018A4908310860704710B556
:1007700084480078012878D10024844800784E28E5
:100780000DD1824840783038010280488078303876
:1007900001EB00117D48C0783038084484B2442C05
:1007A00070D014DC262C67D008DC222C27D0232C18
:1007B00037D0242C47D0252C73D157E0272C62D07A
:1007C000282C67D0422C70D0432CF5D184E0612CCA
:1007D00069D008DC452C67D0462C78D0472C77D0E0
:1007E000482CE9D1AFE0632C73D0652C72D0B4F5FE
:1007F000807F70D0A4F201100028DDD1B3E06448FE
:100800007438006810B9012063490860624888386C
:10081000006818B901206049091F0860FFF79DFFB3
:10082000A5E05B487438006810B901205A49086097
:1008300059488838006818B901205749091F0860CD
:10084000FFF78BFF93E052487438006810B900201E
:100850005149086050488838006818B900204E494E
:10086000091F0860FFF76FFF81E085E001204A491A
:100870000860FFF772FF7AE0002047490860FFF741
:1008800062FF74E03AE001204349091F0860FFF766
:1008900064FF6CE000204049091F0860FFF753FF28
:1008A00065E063E001E055E03AE03B487C380068F1
:1008B00010B901203949086038488438006818B9EF
:1008C00001203649091D0860FFF747FF4FE02DE082
:1008D00032E040E040E043E02F487C38006810B947
:1008E00001202E4908602D488438006818B901207D
:1008F0002A49091D0860FFF730FF38E026487C3898
:10090000006810B900202549086024488438006830
:1009100018B900202149091D0860FFF714FF26E0DF
:1009200001201E490860FFF718FF20E000201B4946
:100930000860FFF708FF1AE001201849091D086048
:10094000FFF70BFF13E000201449091D0860FFF7B3
:10095000FAFE0CE00BE00AE011A000F026FB06E036
:10096000FFF7FBFE03E0FFF7EEFE00E000BF00BF75
:1009700000200449087000BF10BD000004000020E2
:100980000500002006000020004400400C0000206C
:10099000B081214200802142A0012242A4012142D3
:1009A00049443A4E3036352A0000000010B54FF465
:1009B0001651242000F080F96E48806940F0040050
:1009C0006C4988616C4800686C4908406A49086055
:1009D000084600686A4908436749086065488069B5
:1009E00040F00400634988616348001D00686FF3AC
:1009F0000B006149091D08600846006840F44E700C
:100A000008605C48806940F008005A4988615D4888
:100A1000006880B25B490860084600685A4908438C
:100A2000584908605348806940F010005149886176
:100A30005648006820F07F40544908600846006826
:100A400040F0605008600846406820F0FF004860B1
:100A50000846406840F083004860FFF7ABFD012086
:100A60004B4908604B49C1F818014B4908604B4994
:100A700008604949703108600020474984310860A6
:100A8000091D0860454978310860091D0860404922
:100A900074310860091D08604149C1F8B80110BDF2
:100AA00010B5FFF764FE10BD10B539480068A0B955
:100AB0003C48007838B901203A4908703A49087032
:100AC0003AA000F072FA38480078012805D00120D9
:100AD0003549087035A000F068FA30480C380068D5
:100AE000A8B93048007840B901202E49087002208A
:100AF0002D49087030A000F058FA2B4800780228E1
:100B000005D00220284908702BA000F04EFA234897
:100B10000068A0B92B48007838B90120294908702D
:100B20002949087029A000F040FA274800780128D8
:100B300005D001202449087024A000F036FA164898
:100B40000068A8B91F48007840B901201D49087005
:100B500002201D49087020A000F027FA1A480078EA
:100B6000022805D00220184908701BA000F01DFAC9
:100B700010BD000000100240000801400FFFF0FF10
:100B800030000300040C01400000338300100140DA
:100B90003C812142000022422001214224012242C4
:100BA00000802142090000200700002049443A4EFD
:100BB0003032302A0000000049443A4E3032312AA7
:100BC000000000000A0000200800002049443A4EBE
:100BD0003034302A0000000049443A4E3034312A83
:100BE000000000002DE9F05F05460E46300100F0E0
:100BF000E1FB8146FE4905FB01F000F0DBFB82468C
:100C0000494600F0F5FA0746384600F0B3FB84B2D7
:100C1000204600F0CFFB8346394600F0ABFC82460D
:100C20004FF0834100F0DAFB814600F0A3FB8046E1
:100C30004FF6FF7000EA041404EB080084B2ED489C
:100C4000806940F00400EB4988610846806940F4FF
:100C500080408861E848006820F47F60E6490860C9
:100C60000846006840F40B600860E248C06840F441
:100C70008040E049C8600846C06820F48040C860F1
:100C8000DE480480001D008842F20C010843DB4965
:100C9000091D08800846008840F4807008800846D6
:100CA000008840F020000880022325220021084609
:100CB000FFF732FBBDE8F09F2DE9F05F05460E46D9
:100CC000300100F077FB8146C94905FB01F000F0D7
:100CD00071FB8246494600F08BFA0746384600F021
:100CE00049FB84B2204600F065FB8346394600F09C
:100CF00041FC82464FF0834100F070FB814600F0DA
:100D000039FB80464FF6FF7000EA041404EB08003C
:100D100084B2B848806940F00400B649886108464A
:100D2000C06940F40030C861B348001F006820F477
:100D30007F40B149091F08600846006840F40B4035
:100D40000860AC48006940F40030AA4908610846D0
:100D5000006920F400300861A9480480001D008863
:100D600042F20C010843A649091D08800846008884
:100D700040F4807008800846008840F02000088019
:100D80000223262203210120FFF7C6FABDE8F09FC7
:100D90002DE9F05F05460E46300100F00BFB814661
:100DA000934905FB01F000F005FB8246494600F03F
:100DB0001FFA0746384600F0DDFA84B2204600F0FC
:100DC000F9FA8346394600F0D5FB82464FF083415D
:100DD00000F004FB814600F0CDFA80464FF6FF702C
:100DE00000EA041404EB080084B28248806940F0F1
:100DF0000800804988610846C06940F48020C861C5
:100E00008048006820F47F407E49086008460068FA
:100E100040F40B4008607748006940F48020754931
:100E200008610846006920F4802008617648048043
:100E3000001D008842F20C0108437349091D088017
:100E40000846008840F4807008800846008840F01A
:100E5000200008800123272219461846FFF75CFA74
:100E6000BDE8F09F2DE9F05F05460E46300100F029
:100E7000A1FA81465E4905FB01F000F09BFA82462B
:100E8000494600F0B5F90746384600F073FA84B2D7
:100E9000204600F08FFA8346394600F06BFB82460D
:100EA0004FF0834100F09AFA814600F063FA8046E1
:100EB0004FF6FF7000EA041404EB080084B24D48BA
:100EC000806940F010004B4988610846C06940F4D1
:100ED0000020C8614D48406820F47F404B4948607D
:100EE0000846406840F40B4048604248006940F4BE
:100EF0000020404908610846006920F4002008618C
:100F000043480480001D008842F20C010843404918
:100F1000091D08800846008840F480700880084653
:100F2000008840F0200008800223342200210120A4
:100F3000FFF7F2F9BDE8F09F0020364908607047DE
:100F4000012034490860704700B50246FFF7F8FFFA
:100F50002A48001F028000BF28480838008800F097
:100F600040000028F8D0FFF7E7FF00BD00B50346BA
:100F700003E013F8010BFFF7E7FF18780028F8D11A
:100F800000BD1F49091F088000BF1D490839098895
:100F900001F040010029F8D019490839098801F009
:100FA0004001174A083A1180704700B50346FFF721
:100FB000C7FF03E013F8010BFFF7E3FF18780028E1
:100FC000F8D1FFF7B9FF00BD0F49091F088000BF26
:100FD0000D490839098801F040010029F8D00A4973
:100FE0000839098801F04001074A083A1180704722
:100FF00040420F0000100240040801400838014040
:1010000008440040040C0140084800400010014022
:10101000084C00408401214200B5034603E013F868
:10102000010BFFF7D1FF18780028F8D100BD7047F9
:1010300070471D49888000BF1B49098801F04001A5
:101040000029F9D01849098801F04001164A118099
:10105000704700B5034603E013F8010BFFF7E9FF03
:1010600018780028F8D100BD10B503460C46FFF7EC
:1010700067FF00220CE000BF0C48008800F0400031
:101080000028F9D0985C0949091D0880501CC2B29B
:10109000A242F0DB00BF0548008800F040000028B5
:1010A000F9D0FFF749FF10BD005000400044004058
:1010B000704770477047754600F02CF8AE46050043
:1010C0006946534620F00700854618B020B5FFF763
:1010D0008FF8BDE820404FF000064FF000074FF0BA
:1010E00000084FF0000B21F00701AC46ACE8C00946
:1010F000ACE8C009ACE8C009ACE8C0098D4670474F
:1011000010B50446AFF300802046BDE81040FFF75D
:1011100056B80000004870477000002001491820B0
:10112000ABBEFEE7260002007047000090EA010F08
:1011300048BF81F0004100F12E82421A3CBF801A64
:1011400089184FEAD0524FF07F4C1CEA410FA2EBB6
:10115000D15318BF9CEA026F00F03B804FF0004C67
:101160004CEA00204CEA012121FA03FC10EB0C0CA4
:101170001ED202F1FF325FEA1C2040EBC25038BFA2
:1011800070471CF07F0F4FEA400C18BFBCF17F4F37
:1011900038BF7047C3F12003994008BF20F0010019
:1011A000BCF17F4F38BF7047A0F1C04000F0DDB9FF
:1011B0004FEA3C00000A40EBC25028BF1CF0FF0F72
:1011C0004FEA400CE6D018BFBCF17F4F38BF7047E4
:1011D000EAE79CEA026F05D010EA5C0F08BF00F056
:1011E0000040704710B500F07AF900BF64FBBE3EC6
:1011F0004FF47F0C1CEAD0121EBF1CEAD11392EAF6
:101200000C0F93EA0C0F00F0858090EA010F48BFA5
:1012100042F4807240F4000C41F400002CF07F4155
:1012200020F07F4000B58142A2EB03020FF2081CC0
:10123000ACEB504EC0F100009EF800E04FEA4E0EBD
:1012400000FB0EFC38BF49004FEA2C1C02F5FA02E5
:101250000CFB0EF34FEACE1E4FEA112C4FEAC121D0
:101260000EEB635E42EB22420EFB0CFC4FEA1C537A
:1012700000FB03114FEA112C4FEA01310EFB0CFC6D
:101280004FEADC4C00FB0C11C14228BF09184CEBA3
:1012900003335DF804EB10EB410143EBC250B2F5B0
:1012A0007C0F38BF704729D512F0F00F1CBF00F13A
:1012B000C04000F0004070470081828384858687AB
:1012C00088898B8C8D8E8F919293959697999A9C05
:1012D0009D9FA0A2A3A5A7A8AAACAEB0B2B3B5B774
:1012E000B9BCBEC0C2C5C7C9CCCED1D4D7D9DCDF4A
:1012F000E2E6E9ECF0F3F7FAFE0000004FEA400CFA
:101300000CF1807CBCF17E4F28BF7047B0F1C0402B
:1013100000F02BB990EA010F0CEAD11348BF42F458
:101320008072624538BF634507D213F47F0F16D031
:1013300080EA010000F00040704710B500F0CFF8DF
:10134000097EFC3E00F005B880EA010000F0004094
:10135000704780EA010000F0004000F006B912F486
:101360007F0F04BF0248704780EA010000F0FDB81B
:101370000000C07FC10DD1F19E0206DB4FEA0023C1
:1013800043F0004323FA02F07047004207D54FEACA
:101390004001B1F1FE4F02D24FF00000704710B58E
:1013A00000F09DF849922480002070476FEA2000E9
:1013B00070470000B0FA80F310FA03F2C3F19D0306
:1013C0000AD0D90501EB1220530638BF704700F14F
:1013D000010008BF20F00100704700004FF47F0CAF
:1013E0001CEAD0121EBF1CEAD11392EA0C0F93EA3A
:1013F0000C0F00F0478090EA010F48BF42F4807262
:101400004FF0004C4CEA00204CEA012102EB0302B1
:10141000A0FB0113A2F50002002918BF43F001034D
:101420005B0028BF4FEA330342EB22425FEA132CF2
:101430004CEBC2502EBFBCEB436FB2F57C0F704734
:101440004FEA036CBCF1004F08BF20F00100B2F579
:101450007C0F38BF70470BD582F0FF0212F5803F3A
:10146000C8BF704700F1C040D8BF00F000407047CF
:1014700000F5000C5FEA4C0C48BF7047B0F1C0406B
:1014800000F073B890EA010F0CEAD11348BF42F4A0
:101490008072624538BF634504D280EA010000F0E3
:1014A0000040704710B500F01AF800BF8900013EF7
:1014B00000F007B800F009B85FEA410C5FEA1C6C65
:1014C00008D080EA010000F050B85FEA400C5FEA03
:1014D0001C6CF6D14FF00040A0F5800070470EF173
:1014E000020E2EF0030E5EF8044B244204D44FEAA1
:1014F0004102B2F17F4F11D84FEA4003B3F17F4F61
:101500000CD80ED14FEAD07CB2F17F4F0CEB4C0CD3
:101510000CF1020C08BF4CEBD17C04E04FF0080C3E
:1015200001E04FEAD17C0CEB4C0324FA03F404F005
:101530000704B4F1040C06D20EEB840CBDE8104095
:101540004CF0010C6047DFE80CF0070802024FF096
:101550000040A0F5800010BD0846420018BFD2F13F
:10156000807288BF00F0004010BDFF2141EAD050DA
:10157000C005704780F0004090EA010F7FF5DDADB7
:1015800081F0004100F007B890EA010F48BF81F0F8
:1015900000413FF5D2AD421A04D882F00042A0EBE0
:1015A000020011444FEAD0524FF07F4C1CEA410F29
:1015B000A2EBD15318BF9CEA026F4AD04FF0004C07
:1015C0004CEA00204CEA012121FA03FCB0EB0C0CA0
:1015D0000FD412F0FE0F36D05FEA4C001DD500127A
:1015E00040EBC25038BF70471CF03F0F18BF704728
:1015F0000BE0A2F101025FEA1C2040EBC25038BFB1
:1016000070471CF07F0F18BF7047C3F1200399404B
:1016100014BF401E20F00100704780084FEA1223DB
:1016200008BF7047B0FA80FCA2EB0C02CCF1280C8A
:1016300060FA0CF093EA122F04BF00EBC25070471F
:101640004FEAC3707047130A5FEADC1008BF7047A7
:10165000F6E79CEA026F04D010EA5C0F08BF002096
:10166000704710B5FFF73BFF40DFF63E81F00040CA
:101670007047000094160008000000200C000000D5
:101680006C010008A01600080C000020C406000031
:1016900088010008000000000000000000000000B9
:0400000508000131BD
:00000001FF
